:10000000FAC0000029C1000027C1000025C100007E
:1000100023C1000021C100001FC100001DC100005C
:100020001BC1000019C1000017C1000015C100006C
:1000300013C1000011C100000FC100000DC100007C
:100040000BC1000009C1000007C1000005C100008C
:1000500003C1000001C10000FFC000000C94980B18
:10006000FBC000000C946E0E0C94A40EF5C00000B2
:10007000F3C00000F1C00000EFC00000EDC00000C0
:10008000EBC00000E9C00000E7C00000E5C00000D0
:100090000C94FA0E0C94300FDFC00000B5C40000C1
:1000A000DBC00000D9C00000D7C00000D5C00000F0
:1000B000D3C00000D1C00000CFC00000CDC0000000
:1000C000CBC00000C9C000000C9474090C94860FCA
:1000D0000C94BC0FC1C000000C9412100C9448107A
:1000E000BBC0000000000A0B02090C0D0E0807033C
:1000F00004010000000000000000000000000000FB
:1001000000000000000000000000000000000000EF
:1001100012111000000000000000000000000000AC
:100120000000000000000000000001021020200874
:100130000810204010204080020102010804020142
:1001400001020408102040808040201008040201B1
:10015000800402018040201008040201080402010A
:100160000102040810204080010204081020408091
:1001700005050505070508080808020202020A0A23
:100180000808040404040101010101010101030341
:10019000030303030303040707070C0C0C0C0C0CEC
:1001A0000C0C0202020206060606060606060B0BE9
:1001B0000B0B0B0B0B0B00002200250028002B0063
:1001C0002E003100340002010000050108010B017E
:1001D00000002100240027002A002D0030003300F9
:1001E00001010000040107010A0178022808CD0E70
:1001F000590FE50F711011241FBECFEFD1E2DEBF02
:10020000CDBF00E00CBF12E0A0E0B2E0EEEEF1E204
:1002100000E00BBF02C007900D92AE33B107D9F7D3
:1002200026E0AEE3B2E001C01D92A734B207E1F7C9
:1002300010E0CBEFD0E000E006C021970109802F4D
:10024000FE010E94ED10C53FD10780E00807A9F725
:100250000E94E3090C94F510D3CE90E080E008955D
:100260008091720290917302891B990B089590916D
:100270007302809172022FEF3FEF981748F4E92F35
:10028000F0E0EC58FD4F208130E09F5F90937302C7
:10029000C9010895E091730280917202E81730F469
:1002A000F0E0EC58FD4F808190E008958FEF9FEFD4
:1002B00008950895CF93DF93EC01E0914A02F09105
:1002C0004B023097F1F0909173028091720298176F
:1002D000C0F090E0292F30E02617370754F4DE01F4
:1002E000A20FB31F4C912C583D4FD9014C939F5FE7
:1002F000F1CF1092730260937202CB01DF91CF9124
:100300001994DF91CF910895E0914C02F0914D0244
:10031000309729F01092500210924F0219940895CC
:10032000CF93DF931F92CDB7DEB7698320914E0242
:100330002223F9F020914F02203258F021E030E0E2
:10034000FC013383228390E080E00F90DF91CF9116
:10035000089580915002E82FF0E0EF5AFD4F998107
:1003600090838F5F8093500280934F0281E090E0F2
:10037000ECCF61E0CE010196F7D0F8CFCF92DF92BB
:10038000EF92FF920F931F93CF93DF937C01CB01EA
:100390008A0120914E02222389F0EB016B01C40EE9
:1003A000D51ECC15DD0561F06991D701ED91FC9169
:1003B0000190F081E02DC7011995F3CF642FD4D0BF
:1003C000C801DF91CF911F910F91FF90EF90DF90C7
:1003D000CF90089510927302109272021092500200
:1003E00010924F0296D084E891E0EAD08AE591E03D
:1003F000E2C081E080934E0260937102109250023D
:1004000010924F0208950F93062F21E040914F0262
:1004100061E572E080917102D5D110925002109284
:100420004F0210924E020F9108954F925F926F9279
:100430007F92AF92BF92CF92EF92FF920F931F9352
:10044000CF93DF935C01F62ED42F28013901EE20E3
:1004500009F1CFDFCE2DC43008F0C3E0C150B8F0B1
:1004600028E0C29FC0011124A301920104C0569547
:100470004795379527958A95D2F7B901D501ED9122
:10048000FC910190F081E02DC5011995E7CF60E066
:10049000C501B9DF4D2FD13208F040E22C2D64E7C1
:1004A00072E08F2DACD01092730280937202DF91B4
:1004B000CF911F910F91FF90EF90CF90BF90AF9091
:1004C0007F906F905F904F900895CF92EF920F932F
:1004D0001F93C22EE12C00E010E09801A6DF1F91CF
:1004E0000F91EF90CF90089521E0EFCF61E08BCF97
:1004F000EEE3F2E01382128288EE93E0A0E0B0E037
:1005000084839583A683B7838AE092E09183808376
:1005100008951092070381E080930503109204036D
:1005200061E084E10E94170D61E085E10E94170DF2
:10053000E9EBF0E080818E7F808380818D7F8083F6
:1005400088E48093B80085E48093BC000895ECEBC8
:10055000F0E080818A7B808360E084E10E94170D57
:1005600060E085E10C94170D2091B602260F332729
:10057000331F21323105ECF420910703FC0190E098
:1005800080E0243069F082E00895A091B6022191C4
:10059000AC0148545D4FA40FB52FB11D2C930196AB
:1005A000861798F38091B602680F6093B60280E0D8
:1005B000089581E008959093FB028093FA020895D4
:1005C0009093FD028093FC02089585EC8093BC001B
:1005D000109207030895CF93DF9391E09093FF0269
:1005E000882351F0C091B800D091BA00B0DF91DFFC
:1005F000D093BA00C093B800DF91CF9108954F9285
:100600005F926F927F928F929F92AF92BF92CF92A2
:10061000DF92EF92FF920F931F93CF93DF93D82F28
:10062000162F072FC42FB22E413208F0A2C00E940D
:10063000EE0B6B017C0180910703811176C081E094
:1006400080930703B09205039FEF9093940210925A
:10065000D9029C0F9093D8028093060380910603E1
:10066000DD0FD82BD093060380910403813009F06D
:1006700082C0109204030E94EE0B6B017C018091FA
:1006800006038093BB008091000390910103A09129
:100690000203B0910303892B8A2B8B2BA1F00E94BC
:1006A000EE0B8090000390900103A0900203B090A5
:1006B00003036C197D098E099F0986169706A80603
:1006C000B90608F453C08091BC0083FDD8CF85ECF7
:1006D0008093BC000E94EE0B6B017C0180910703AC
:1006E000813009F44AC08091D9028C1710F4C0916E
:1006F000D902AAEDB2E0912FE12FF02F8E2F891BA6
:100700008C1708F45CC08C2FDF91CF911F910F9153
:10071000FF90EF90DF90CF90BF90AF909F908F9021
:100720007F906F905F904F9008958091000390911B
:100730000103A0910203B0910303892B8A2B8B2B19
:1007400009F479CF0E94EE0B409000035090010312
:1007500060900203709003036C197D098E099F0954
:10076000461657066806790608F065CF8091FE02A6
:1007700032DFC0E0C8CF85EEABCF8091000390910F
:100780000103A0910203B0910303892B8A2B8B2BC9
:1007900009F4A4CF0E94EE0B809000039090010317
:1007A000A0900203B09003036C197D098E099F0984
:1007B00086169706A806B90608F090CFD7CF8D9178
:1007C00081939CCF4F925F926F927F928F929F9274
:1007D000AF92BF92EF92FF920F931F93CF93DF934D
:1007E000413208F0D2C0F22ED42FE72E162FC82F98
:1007F000F5D74B015C018091070381116DC082E048
:1008000080930703009305038FEF80939402109267
:10081000D902D093D802912FAAEDB2E0E12FFE2D9C
:100820008E2F891B8D1708F48AC0109206038091C1
:100830000603CC0FC82BC0930603809104038130BC
:1008400009F080C010920403C9D74B015C0180916C
:1008500006038093BB008091000390910103A09157
:100860000203B0910303892B8A2B8B2B99F0B6D707
:1008700000910003109101032091020330910303C2
:10088000681979098A099B09061717072807390784
:1008900008F442C08091BC0083FDD9CF85EC8093E1
:1008A000BC009CD74B015C01FF2029F0809107031D
:1008B000823009F449C0809194028F3F09F467C0E7
:1008C00080919402803209F464C080919402803354
:1008D00009F461C084E024C0809100039091010379
:1008E000A0910203B0910303892B8A2B8B2B09F46F
:1008F00082CF74D7409000035090010360900203B0
:1009000070900303681979098A099B0946165706EE
:100910006806790608F06FCF8091FE025CDE85E004
:10092000DF91CF911F910F91FF90EF90BF90AF900B
:100930009F908F907F906F905F904F9008958191DE
:100940008D936ECF85EEABCF809100039091010324
:10095000A0910203B0910303892B8A2B8B2B09F4FE
:10096000A3CF3CD700910003109101032091020313
:1009700030910303681979098A099B09061717073B
:100980002807390708F090CFC7CF81E0C9CF80E0B2
:10099000C7CF82E0C5CF83E0C3CF85ED8093BC0095
:1009A0008091000390910103A0910203B091030391
:1009B0000796A11DB11D23E0B695A795979587953C
:1009C0002A95D1F72091BC0024FD03C010920703A3
:1009D00008954091000350910103609102037091CA
:1009E0000303452B462B472B69F30097A105B1055F
:1009F00041F025E32A95F1F700000197A109B1091B
:100A0000E1CF8091FE02E7CD1F920F920FB60F92B9
:100A100011240BB60F922F933F934F935F936F93D5
:100A20007F938F939F93AF93BF93EF93FF938091A7
:100A3000B900887F803609F44CC008F03FC0883286
:100A400009F4A8C028F5803109F49CC0C8F48823B3
:100A500009F4F8C0883009F495C0FF91EF91BF9177
:100A6000AF919F918F917F916F915F914F913F9146
:100A70002F910F900BBE0F900FBE0F901F901895E7
:100A8000883109F487C0803241F78093940214C002
:100A9000803409F49CC040F48033B9F38833E9F61C
:100AA0008093940292DDD9CF803509F484C08835D3
:100AB00009F495C0883489F670DFCFCF883909F4FE
:100AC0008CC038F5883729F050F4883611F080371B
:100AD00021F683E0809307031092950257C088386F
:100AE00009F47BC0803919F0803809F0B6CF8091C5
:100AF0009502803208F071C0E091950281E08E0F7E
:100B0000809395028091BB00F0E0EA56FD4F808310
:100B10003DC0803B39F0E0F4803A09F479C0883A6E
:100B200009F09BCF84E0809307031092B7021092E4
:100B3000B602E091FC02F091FD0219958091B60297
:100B400081110FC081E08093B6021092B80209C0F3
:100B5000803C09F475C0883C09F472C0883B09F0F8
:100B60007CCFE091B70281E08E0F8093B702F0E076
:100B7000E854FD4F80818093BB009091B702809133
:100B8000B60229C0809106038093BB0085EC809358
:100B9000BC0063CF9091D9028091D802981758F584
:100BA000E091D90281E08E0F8093D902F0E0E65205
:100BB000FD4F8081E9CFE091D90281E08E0F8093D3
:100BC000D9028091BB00F0E0E652FD4F8083909106
:100BD000D9028091D8029817C8F285E8D8CFE09161
:100BE000D90281E08E0F8093D9028091BB00F0E0A2
:100BF000E652FD4F80838091050381115DCF81E036
:100C00008093040384EA8093BC001092070325CFED
:100C1000DCDC80919502803230F4E0919502F0E0C6
:100C2000EA56FD4F10826091950270E0E091FA0261
:100C3000F091FB0286E992E01995109295020DCF92
:100C400085ECE1CF1092940237CFFF920F931F9360
:100C5000CF93DF93C62F042FF22E132F682F8EE32E
:100C600092E0C7DB6C2F8EE392E05ADBCF2DD12FC1
:100C70000C0F1D2F111DC017D10729F069918EE3AC
:100C800092E04EDBF8CF8EE392E030DC91E0811110
:100C900090E0892FDF91CF911F910F91FF900895E0
:100CA000CF93DF931F92CDB7DEB749839E012F5FAD
:100CB0003F4F41E0CADF0F90DF91CF9108952F920F
:100CC0003F924F925F926F927F928F929F92AF92DC
:100CD000BF92CF92DF92EF92FF920F931F93CF9329
:100CE000DF9300D0CDB7DEB7E82E69834B8369016F
:100CF00069D54B015C01F12C1A822B81222E312CFB
:100D00002801712C612C8B81F81608F043C06E2DE0
:100D10008EE392E06EDB69818EE392E001DB8EE38D
:100D200092E0E4DB6E2D8EE392E063DBA1014F19CC
:100D300051094132510514F040E250E06E2D8EE32E
:100D400092E0D2DB8EE392E08BDA892BD1F00115B1
:100D5000110569F48EE392E08ADAF6019A81E90FCF
:100D6000F11D97FDFA9580839F5F9A83EBCF2AD57B
:100D7000681979098A099B0964157505860597051F
:100D800048F38EE392E0B2DB8B81813208F080E29F
:100D9000F80EB9CF01151105B9F014D56819790904
:100DA0008A099B0930E020E06017710782079307EA
:100DB00058F02A81822F220F990B2B8128171906B0
:100DC00019F014F08FEF8A838A810F900F900F90A3
:100DD000DF91CF911F910F91FF90EF90DF90CF9017
:100DE000BF90AF909F908F907F906F905F904F904B
:100DF0003F902F9008950F931F9389019A0141E02E
:100E00005EDF1F910F910895EF92FF920F931F9352
:100E1000CF93DF931F92CDB7DEB7182F062FE42EA6
:100E2000F22E2091000230910102AE014F5F5F4F20
:100E3000E2DF81E090E001C0880FEA94EAF749819F
:100E4000FF2069F0482B4983602F812F29DF0F9005
:100E5000DF91CF911F910F91FF90EF9008958095B2
:100E60004823F1CFDF92EF92FF920F931F93CF931E
:100E7000DF931F92CDB7DEB7F82EE62E142FD22EB9
:100E80002091000230910102AE014F5F5F4FB3DF4E
:100E9000882351F1812F8D19990BAC014F5F5F4F62
:100EA00081E090E002C0880F991FDA94E2F7019781
:100EB000042E01C0880F0A94EAF701C0000F4A957A
:100EC000EAF7482F4095998149238023482B49838D
:100ED0006E2D8F2DE5DE0F90DF91CF911F910F9139
:100EE000FF90EF90DF90089580E0F5CF28E6FC01B9
:100EF000208308950F93062F23E042E06AE1FC016E
:100F00008081B0DF0F9108950F93062F22E044E017
:100F10006BE1FC018081A6DF0F9108950F93062FEE
:100F200022E044E06CE1FC0180819CDF0F91089598
:100F30000F931F93CF93DF93EC0100910002109168
:100F400001029C012F5F3F4F42E063E48881B7DEDE
:100F500089819A81982789279827DF91CF911F91BE
:100F60000F9108950F931F93CF93DF93EC0100919E
:100F70000002109101029C012F5F3F4F42E065E4A7
:100F800088819DDE89819A81982789279827DF911A
:100F9000CF911F910F9108950F931F93CF93DF93DC
:100FA000EC0100910002109101029C012F5F3F4F64
:100FB00042E067E4888183DE89819A8198278927C6
:100FC0009827DF91CF911F910F910895262F46E02A
:100FD0006BE6FC01808118CF0F93062F23E042E0DF
:100FE0006BE6FC0180813EDF0F910895CF93DF9384
:100FF000EC0161E0F1DF60E0CE0186DF60E0CE0170
:101000008DDF60E0CE01DF91CF91E0CFCF93C82F8D
:101010008EE392E0DFD96C2F88E093E06BDF88E00D
:1010200093E0CF91E3CFCF93DF93EC0188E093E09F
:101030007FDF9983888388E093E094DF9B838A83B2
:1010400088E093E0A9DF9D838C83DF91CF910895A1
:1010500088E093E04BCF4F925F926F927F928F9296
:101060009F92AF92BF92CF92DF92EF92FF920F9337
:101070001F93CF93DF9300D000D0CDB7DEB7CE0162
:101080000196D1DF0091B1031091B20320910202C9
:10109000309103024091040250910502F8016081F1
:1010A000718182819381B9D218160CF09CC081E0C5
:1010B00080934406C0909B03D0909C03E0909D03D6
:1010C000F0909E03FFEFCF1ADF0AEF0AFF0AC092EB
:1010D0009B03D0929C03E0929D03F0929E03C11467
:1010E000D104E104F10499F480919F039091A0034D
:1010F000A091A103B091A2030196A11DB11D8093FF
:101100009F039093A003A093A103B093A2038090A8
:10111000A3039090A403A090A503B090A6036091B0
:101120009F037091A0038091A1039091A203E7D146
:10113000A501940176D220E030E040E85FE471D26E
:101140002B013C01C701B601DAD1A501940169D296
:101150009B01AC01C301B2016ED1F80160837183C0
:10116000828393838091A7039091A803A091A90300
:10117000B091AA030196A11DB11D8093A70390937E
:10118000A803A093A903B093AA03892B8A2B8B2BC6
:1011900099F48091AB039091AC03A091AD03B09111
:1011A000AE030196A11DB11D8093AB039093AC03D8
:1011B000A093AD03B093AE0326960FB6F894DEBFAE
:1011C0000FBECDBFDF91CF911F910F91FF90EF9098
:1011D000DF90CF90BF90AF909F908F907F906F9057
:1011E0005F904F9008951092440664CF0F931F9321
:1011F000CF93DF93E7E1F3E084EADF011D928A9564
:10120000E9F78FEA93E095838483C1EBD3E0D7AF0E
:10121000C6AF03EA13E0138B028BF0938003E093D5
:101220007F03F383E28321E030E0DC012D933C93E4
:1012300088E192E09187808783EB93E099838883AC
:101240004AE057ED63E27CE3F80140835183628317
:101250007383CBE3D6E08AE0DE011D928A95E9F73D
:1012600011E0188781E090E0A0E0B0E089839A83E4
:10127000AB83BC8390E080E0C9DE1D831986DF91DB
:10128000CF911F910F91089580913B06811103C06A
:1012900081E080933B06089526E030E040E052EC88
:1012A00061E070E090E080E006D061E08DE083D303
:1012B00060E08DE0BCC38130910569F01CF4892B9E
:1012C00039F008958230910549F0039751F008955F
:1012D00087EC93E0A3C484E694E0FCCF81E095E042
:1012E000F9CF8EE995E0F6CF1F920F920FB60F92CD
:1012F00011240BB60F922F933F934F935F936F93ED
:101300007F938F939F93AF93BF93EF93FF938FE858
:101310009DEF90932501809324018091BC039091CF
:10132000BD03019719F461E08DE081D334D0FF91C2
:10133000EF91BF91AF919F918F917F916F915F914D
:101340004F913F912F910F900BBE0F900FBE0F90BA
:101350001F9018958FE89DEF9093250180932401AD
:10136000A3E7B0E08C918E7F8C93E0E2F1E0808186
:101370008C7F8083E1E2F1E08081877E80838081C1
:101380008460808380818C7F80838C9181608C934A
:10139000089581E008958091BB0391E0980F9093A8
:1013A000BB03882349F021E030E03093BD03209354
:1013B000BC038093BB03089578944DDEF89480912C
:1013C000BB038150F6CFCF93DF9310924606109265
:1013D000450629D261DFC0912A02D0912B021982E1
:1013E000188204DFF894B6DF81E028813981232B4D
:1013F00009F080E0809345067894789480914506C2
:10140000811107C041DFF89490E080E0DF91CF9137
:10141000089581E028813981232B09F480E08093AD
:1014200046069091460681E0911180E08093450642
:10143000B0DFE4CF5058BB27AA270ED0B4C0A5D048
:1014400030F0AAD020F031F49F3F11F41EF49AC07E
:101450000EF4E095E7FB90C0E92FB6D080F3BA1701
:10146000620773078407950718F071F49EF5CEC0E4
:101470000EF4E0950B2EBA2FA02D0B01B9019001AF
:101480000C01CA01A0011124FF27591B99F0593FF3
:1014900050F4503E68F11A16F040A22F232F342F3B
:1014A0004427585FF3CF469537952795A795F04089
:1014B0005395C9F77EF41F16BA0B620B730B840B9E
:1014C000BAF09150A1F0FF0FBB1F661F771F881F56
:1014D000C2F70EC0BA0F621F731F841F48F48795AE
:1014E00077956795B795F7959E3F08F0B3CF93959D
:1014F000880F08F09927EE0F979587950895E8943F
:1015000009C097FB3EF490958095709561957F4F4B
:101510008F4F9F4F9923A9F0F92F96E9BB279395F9
:10152000F695879577956795B795F111F8CFFAF409
:10153000BB0F11F460FF1BC06F5F7F4F8F4F9F4F3A
:1015400016C0882311F096E911C0772321F09EE898
:10155000872F762F05C0662371F096E8862F70E0FE
:1015600060E02AF09A95660F771F881FDAF7880FD8
:101570009695879597F9089597F99F6780E870E0A9
:1015800060E008959FEF80EC089500240A941616F9
:10159000170618060906089500240A941216130661
:1015A000140605060895092E0394000C11F48823EF
:1015B00052F0BB0F40F4BF2B11F460FF04C06F5F0B
:1015C0007F4F8F4F9F4F089557FD9058440F551FE1
:1015D00059F05F3F71F04795880F97FB991F61F0B5
:1015E0009F3F79F087950895121613061406551F2C
:1015F000F2CF4695F1DF08C0161617061806991F98
:10160000F1CF86957105610508940895E894BB278C
:1016100066277727CB0197F9089566D008F48FEFF6
:1016200008950BD0C0CFB1DF28F0B6DF18F09523B6
:1016300009F0A2CFA7CF1124EACFC6DFA0F3959F70
:10164000D1F3950F50E0551F629FF001729FBB27A9
:10165000F00DB11D639FAA27F00DB11DAA1F649F55
:101660006627B00DA11D661F829F2227B00DA11D08
:10167000621F739FB00DA11D621F839FA00D611D8E
:10168000221F749F3327A00D611D231F849F600DAF
:10169000211D822F762F6A2F11249F5750408AF0E8
:1016A000E1F088234AF0EE0FFF1FBB1F661F771F74
:1016B000881F91505040A9F79E3F510570F05CCFB4
:1016C000A6CF5F3FECF3983EDCF386957795679560
:1016D000B795F795E7959F5FC1F7FE2B880F911D92
:1016E0009695879597F90895990F0008550FAA0BBD
:1016F000E0E8FEEF16161706E807F907C0F0121625
:101700001306E407F50798F0621B730B840B950B27
:1017100039F40A2661F0232B242B252B21F408957C
:101720000A2609F4A140A6958FEF811D811D089519
:101730001F920F920FB60F9211242F933F938F9306
:101740009F93AF93BF938091BF039091C003A091EB
:10175000C103B091C2033091BE0323E0230F2D37A4
:1017600058F50196A11DB11D2093BE038093BF03C0
:101770009093C003A093C103B093C2038091C303AD
:101780009091C403A091C503B091C6030196A11D19
:10179000B11D8093C3039093C403A093C503B0937A
:1017A000C603BF91AF919F918F913F912F910F9061
:1017B0000FBE0F901F90189526E8230F0296A11DCB
:1017C000B11DD2CF2FB7F8946091BF037091C003C1
:1017D0008091C1039091C2032FBF08953FB7F89441
:1017E0008091C3039091C403A091C503B091C60337
:1017F00026B5A89B05C02F3F19F00196A11DB11D6C
:101800003FBFBA2FA92F982F8827BC01CD01620FA7
:10181000711D811D911D42E0660F771F881F991F62
:101820004A95D1F70895789484B5826084BD84B5D3
:10183000816084BD85B5826085BD85B5816085BDCB
:10184000EEE6F0E0808181608083E1E8F0E01082E4
:10185000808182608083808181608083E0E8F0E025
:10186000808181608083E1EBF0E08081846080830F
:10187000E0EBF0E0808181608083E1E9F0E080814D
:1018800082608083808181608083E0E9F0E08081F4
:1018900081608083E1EAF0E08081826080838081E2
:1018A00081608083E0EAF0E0808181608083E1E212
:1018B000F1E0808182608083808181608083E0E2CA
:1018C000F1E0808181608083EAE7F0E080818460DC
:1018D0008083808182608083808181608083808139
:1018E000806880831092C10008958150823108F091
:1018F00059C0E82FF0E08827E058F34F8F4F6DC4B0
:10190000A00CA40C920C980C9C0CD20CA70CAD0C47
:10191000B10CB70CBB0CBF0CC50CC90CD20CCD0C58
:10192000D30CD70C809180008F778093800008952E
:10193000809180008F7DF9CF80918000877FF5CFE7
:1019400084B58F7784BD089584B58F7DFBCF80915A
:10195000B0008F778093B00008958091B0008F7DA4
:10196000F9CF809190008F778093900008958091B7
:1019700090008F7DF9CF80919000877FF5CF809187
:10198000A0008F778093A00008958091A0008F7DA4
:10199000F9CF8091A000877FF5CF809120018F77CC
:1019A000809320010895809120018F7DF9CF80914F
:1019B0002001877FF5CFCF93DF9390E0FC01E65DB8
:1019C000FE4F249180599E4FFC0184918823C9F0D9
:1019D00090E0880F991FFC01E053FE4FA591B49150
:1019E000FC01EA54FE4FC591D49161110DC09FB71F
:1019F000F8948C91209582238C93888128232883C6
:101A00009FBFDF91CF910895623051F49FB7F89452
:101A10003C91822F809583238C93E8812E2BEFCFEE
:101A20008FB7F894EC912E2B2C938FBFEACF1F9396
:101A3000CF93DF93282F30E0F901EC51FF4F8491D1
:101A4000F901E65DFE4FD491F901E059FE4FC491D2
:101A5000CC23A1F0162F811148DFEC2FF0E0EE0F20
:101A6000FF1FEA54FE4FA591B4918FB7F894EC9103
:101A7000111108C0D095DE23DC938FBFDF91CF9189
:101A80001F910895DE2BF8CFFC01918D228D892FB7
:101A900090E0805C9F4F821B91098F739927089576
:101AA000FC01918D828D981731F0828DE80FF11D28
:101AB000858D90E008958FEF9FEF0895FC01918D43
:101AC000828D981761F0A28DAE0FBF2FB11D5D966C
:101AD0008C91928D9F5F9F73928F90E008958FEF0E
:101AE0009FEF0895FC01538D448D252F30E0842F06
:101AF00090E0821B930B541710F0CF960895019736
:101B00000895FC01A48DA80FB92FB11DA35ABF4F92
:101B10002C91848D90E001968F739927848FA689EC
:101B2000B7892C93A089B1898C91837080648C9340
:101B3000938D848D981306C00288F389E02D8081EF
:101B40008F7D80830895CF93DF93EC01888D882368
:101B5000B1F0AA89BB89E889F9898C9185FD03C018
:101B6000808186FD0CC00FB607FCF7CF8C9185FFF6
:101B7000F2CF808185FFEDCFCE01C3DFEACFDF91C9
:101B8000CF910895EF92FF920F931F93CF93DF931E
:101B9000EC0181E0888F9B8D8C8D98131AC0E889A9
:101BA000F989808185FF15C09FB7F894EE89FF8978
:101BB0006083E889F98980818370806480839FBF16
:101BC00081E090E0DF91CF911F910F91FF90EF9016
:101BD0000895F62E0B8D10E00F5F1F4F0F73112726
:101BE000E02E8C8D8E110BC00FB607FCFACFE88962
:101BF000F989808185FFF5CFCE0183DFF2CFEB8DB0
:101C0000EC0FFD2FF11DE35AFF4FF0829FB7F894C0
:101C10000B8FEA89FB8980818062D0CFCF92DF92DF
:101C2000EF92FF921F93CF93DF93EC016A017B0148
:101C3000122FE889F98982E08083C11481EED806E9
:101C4000E104F10499F060E079E08DE390E0A70110
:101C50009601A1D221503109410951095695479564
:101C600037952795211580E1380790F0E889F989A3
:101C7000108260E874E88EE190E0A70196018BD2B3
:101C800021503109410951095695479537952795B6
:101C9000EC85FD853083EE85FF852083188EEC89E9
:101CA000FD891083EA89FB89808180618083EA89CC
:101CB000FB89808188608083EA89FB8980818068D4
:101CC0008083EA89FB8980818F7D8083DF91CF913A
:101CD0001F91FF90EF90DF90CF9008951F920F9289
:101CE0000FB60F9211240BB60F922F938F939F93E1
:101CF000EF93FF93E091D703F091D8038081E091B7
:101D0000DD03F091DE0382FD1DC090818091E00330
:101D10008F5F8F732091E103821741F0E091E00320
:101D2000F0E0E953FC4F958F8093E003FF91EF9132
:101D30009F918F912F910F900BBE0F900FBE0F9020
:101D40001F9018958081F2CF1F920F920FB60F92BD
:101D500011240BB60F922F933F934F935F936F9382
:101D60007F938F939F93AF93BF93EF93FF9387ECF2
:101D700093E0C7DEFF91EF91BF91AF919F918F915B
:101D80007F916F915F914F913F912F910F900BBE7B
:101D90000F900FBE0F901F901895E7ECF3E01382A1
:101DA000128288EE93E0A0E0B0E084839583A6835E
:101DB000B78380E392E09183808385EC90E0958700
:101DC000848784EC90E09787868780EC90E0918B05
:101DD000808B81EC90E0938B828B82EC90E0958BF2
:101DE000848B86EC90E0978B868B118E128E138EEF
:101DF000148E08951F920F920FB60F9211240BB6F6
:101E00000F922F938F939F93EF93FF93E09174041E
:101E1000F09175048081E0917A04F0917B0482FD59
:101E20001DC0908180917D048F5F8F7320917E040F
:101E3000821741F0E0917D04F0E0EC59FB4F958F63
:101E400080937D04FF91EF919F918F912F910F903F
:101E50000BBE0F900FBE0F901F9018958081F2CF90
:101E60001F920F920FB60F9211240BB60F922F9361
:101E70003F934F935F936F937F938F939F93AF9312
:101E8000BF93EF93FF9384E694E03BDEFF91EF91E5
:101E9000BF91AF919F918F917F916F915F914F9182
:101EA0003F912F910F900BBE0F900FBE0F901F9080
:101EB0001895E4E6F4E01382128288EE93E0A0E045
:101EC000B0E084839583A683B78380E392E0918317
:101ED00080838DEC90E0958784878CEC90E09787E9
:101EE000868788EC90E0918B808B89EC90E0938BD7
:101EF000828B8AEC90E0958B848B8EEC90E0978BB4
:101F0000868B118E128E138E148E08951F920F924F
:101F10000FB60F9211240BB60F922F938F939F93AE
:101F2000EF93FF93E0911105F09112058081E0910C
:101F30001705F091180582FD1DC0908180911A054A
:101F40008F5F8F7320911B05821741F0E0911A0576
:101F5000F0E0EF5FFA4F958F80931A05FF91EF91B4
:101F60009F918F912F910F900BBE0F900FBE0F90EE
:101F70001F9018958081F2CF1F920F920FB60F928B
:101F800011240BB60F922F933F934F935F936F9350
:101F90007F938F939F93AF93BF93EF93FF9381E0D2
:101FA00095E0AFDDFF91EF91BF91AF919F918F9140
:101FB0007F916F915F914F913F912F910F900BBE49
:101FC0000F900FBE0F901F901895E1E0F5E013827F
:101FD000128288EE93E0A0E0B0E084839583A6832C
:101FE000B78380E392E09183808385ED90E09587CD
:101FF000848784ED90E09787868780ED90E0918BD1
:10200000808B81ED90E0938B828B82ED90E0958BBD
:10201000848B86ED90E0978B868B118E128E138EBB
:10202000148E08951F920F920FB60F9211240BB6C3
:102030000F922F938F939F93EF93FF93E091AE05B1
:10204000F091AF058081E091B405F091B50582FD76
:102050001DC090818091B7058F5F8F732091B80567
:10206000821741F0E091B705F0E0E256FA4F958F04
:102070008093B705FF91EF919F918F912F910F90D2
:102080000BBE0F900FBE0F901F9018958081F2CF5E
:102090001F920F920FB60F9211240BB60F922F932F
:1020A0003F934F935F936F937F938F939F93AF93E0
:1020B000BF93EF93FF938EE995E023DDFF91EF91BE
:1020C000BF91AF919F918F917F916F915F914F9150
:1020D0003F912F910F900BBE0F900FBE0F901F904E
:1020E0001895EEE9F5E01382128288EE93E0A0E005
:1020F000B0E084839583A683B78380E392E09183E5
:10210000808385E391E09587848784E391E09787D6
:10211000868780E391E0918B808B81E391E0938BC4
:10212000828B82E391E0958B848B86E391E0978BA1
:10213000868B118E128E138E148E0895AF92BF92DD
:10214000CF92DF92EF92FF920F931F93CF93DF9383
:102150006C017B018B01040F151FEB015E01AE18B2
:10216000BF08C017D10759F06991D601ED91FC91D4
:102170000190F081E02DC6011995892B79F7C501F1
:10218000DF91CF911F910F91FF90EF90DF90CF9053
:10219000BF90AF900895A1E21A2EAA1BBB1BFD01B0
:1021A0000DC0AA1FBB1FEE1FFF1FA217B307E40736
:1021B000F50720F0A21BB30BE40BF50B661F771F8E
:1021C000881F991F1A9469F760957095809590956E
:1021D0009B01AC01BD01CF010895EE0FFF1F881FC9
:0E21E0008BBF0790F691E02D1994F894FFCF75
:1021EE00E80300004040000000009001BE012D01F8
:1021FE005901300137014A014669786564537465A7
:10220E007044697363726574650017030000000003
:0E221E00C20D9E10720DA30D440D5E0D500DED
:00000001FF
