:1000000020C100000C948C390C94B7390C94E2395F
:100010000C940D3A0C94383A0C94633A0C948E3A42
:100020000C94B93A0C94E3090C94860A0C94C20A15
:1000300039C1000037C1000035C1000033C10000E4
:1000400031C100002FC100002DC100002BC10000F4
:1000500029C1000027C1000025C100000C94E43A2A
:1000600021C100000C94C43E0C94FA3E1BC1000058
:1000700019C1000017C1000015C1000013C1000024
:1000800011C100000FC100000DC100000BC1000034
:100090000C94503F0C94863F05C10000E1C4000061
:1000A00001C10000FFC00000FDC00000FBC0000057
:1000B000F9C00000F7C00000F5C00000F3C0000068
:1000C000F1C00000EFC000000C94CE330C94DC3F74
:1000D0000C941240E7C000000C9468400C949E40C1
:1000E000E1C00000084AD73B3BCE016E84BCBFFD97
:1000F000C12F3D6C74319ABD56833DDA3D00C77FF8
:1001000011BED9E4BB4C3E916BAAAABE0000008090
:100110003F05A84CCDB2D44EB93836A9020C50B91F
:10012000918688083CA6AAAA2ABE000000803F004B
:1001300000000A0B02090C0D0E0807030401000061
:1001400000000000000000000000000000000000AF
:10015000000000000000000000000000121110006C
:10016000000000000000000000000000000000008F
:1001700000000000000001021020200808102040AC
:10018000102040800201020108040201010204085B
:1001900010204080804020100804020180040201E9
:1001A0008040201008040201080402010102040832
:1001B000102040800102040810204080050505053C
:1001C000070508080808020202020A0A08080404CF
:1001D00004040101010101010101030303030303FD
:1001E0000303040707070C0C0C0C0C0C0C0C02028C
:1001F000020206060606060606060B0B0B0B0B0B89
:100200000B0B00002200250028002B002E003100DF
:10021000340002010000050108010B01000021006B
:10022000240027002A002D003000330001010000C7
:10023000040107010A019E02CF08233FAF3F3B4064
:10024000C74011241FBECFEFD1E2DEBFCDBF00E01B
:100250000CBF13E0A0E0B2E0E6E1F3E800E00BBF82
:1002600002C007900D92AA35B107D9F72AE0AAE596
:10027000B3E001C01D92AC32B207E1F711E0C1E278
:10028000D1E000E006C021970109802FFE010E9405
:100290005841CB31D10780E00807A9F70E94D63436
:1002A0000C948941ADCE90E080E0089580918E035A
:1002B00090918F03891B990B089590918F038091E2
:1002C0008E032FEF3FEF981748F4E92FF0E0E05747
:1002D000FC4F208130E09F5F90938F03C901089508
:1002E000E0918F0380918E03E81730F4F0E0E0573F
:1002F000FC4F808190E008958FEF9FEF089508955F
:10030000CF93DF93EC01E0916603F09167033097A0
:10031000F1F090918F0380918E039817C0F090E0D8
:10032000292F30E02617370754F4DE01A20FB31F40
:100330004C9120573C4FD9014C939F5FF1CF1092C5
:100340008F0360938E03CB01DF91CF911994DF91DE
:10035000CF910895E0916803F0916903309729F0F7
:1003600010926C0310926B0319940895CF93DF934E
:100370001F92CDB7DEB7698320916A032223F9F07B
:1003800020916B03203258F021E030E0FC013383F0
:10039000228390E080E00F90DF91CF9108958091CB
:1003A0006C03E82FF0E0E359FC4F998190838F5F55
:1003B00080936C0380936B0381E090E0ECCF61E06D
:1003C000CE010196F7D0F8CFCF92DF92EF92FF9255
:1003D0000F931F93CF93DF937C01CB018A01209170
:1003E0006A03222389F0EB016B01C40ED51ECC15E4
:1003F000DD0561F06991D701ED91FC910190F081EB
:10040000E02DC7011995F3CF642FD4D0C801DF9137
:10041000CF911F910F91FF90EF90DF90CF900895B3
:1004200010928F0310928E0310926C0310926B0344
:1004300096D08AEA91E0EAD080E891E0E2C081E0DB
:1004400080936A0360938D0310926C0310926B0388
:1004500008950F93062F21E040916B036DE673E042
:1004600080918D03D5D110926C0310926B03109282
:100470006A030F9108954F925F926F927F92AF92AD
:10048000BF92CF92EF92FF920F931F93CF93DF9380
:100490005C01F62ED42F28013901EE2009F1CFDFBF
:1004A000CE2DC43008F0C3E0C150B8F028E0C29FA0
:1004B000C0011124A301920104C0569547953795B8
:1004C00027958A95D2F7B901D501ED91FC9101905C
:1004D000F081E02DC5011995E7CF60E0C501B9DFD6
:1004E0004D2FD13208F040E22C2D60E973E08F2DC2
:1004F000ACD010928F0380938E03DF91CF911F9128
:100500000F91FF90EF90CF90BF90AF907F906F9042
:100510005F904F900895CF92EF920F931F93C22E4A
:10052000E12C00E010E09801A6DF1F910F91EF9001
:10053000CF90089521E0EFCF61E08BCFEAE5F3E0C3
:100540001382128288EE93E0A0E0B0E0848395836A
:10055000A683B78385EA92E0918380830895109201
:10056000230481E0809321041092200461E084E15F
:100570000E946D3D61E085E10E946D3DE9EBF0E098
:1005800080818E7F808380818D7F808388E48093CB
:10059000B80085E48093BC000895ECEBF0E0808126
:1005A0008A7B808360E084E10E946D3D60E085E1AC
:1005B0000C946D3D2091D203260F3327331F213237
:1005C0003105ECF420912304FC0190E080E024301C
:1005D00069F082E00895A091D2032191AC014C52C0
:1005E0005C4FA40FB52FB11D2C930196861798F37D
:1005F0008091D203680F6093D20380E0089581E078
:100600000895909317048093160408959093190405
:1006100080931804089585EC8093BC001092230405
:100620000895CF93DF9391E090931B04882351F0BA
:10063000C091B800D091BA00B0DF91DFD093BA007A
:10064000C093B800DF91CF9108954F925F926F925F
:100650007F928F929F92AF92BF92CF92DF92EF9252
:10066000FF920F931F93CF93DF93D82F162F072F4F
:10067000C42FB22E413208F0A2C00E943A3B6B0157
:100680007C0180912304811176C081E08093230452
:10069000B09221049FEF9093B0031092F5039C0F4A
:1006A0009093F4038093220480912204DD0FD82BD1
:1006B000D093220480912004813009F082C01092EE
:1006C00020040E943A3B6B017C01809122048093BC
:1006D000BB0080911C0490911D04A0911E04B09158
:1006E0001F04892B8A2B8B2BA1F00E943A3B809010
:1006F0001C0490901D04A0901E04B0901F046C195F
:100700007D098E099F0986169706A806B90608F482
:1007100053C08091BC0083FDD8CF85EC8093BC0092
:100720000E943A3B6B017C0180912304813009F4E3
:100730004AC08091F5038C1710F4C091F503A6EF21
:10074000B3E0912FE12FF02F8E2F891B8C1708F427
:100750005CC08C2FDF91CF911F910F91FF90EF9094
:10076000DF90CF90BF90AF909F908F907F906F90D1
:100770005F904F90089580911C0490911D04A0916A
:100780001E04B0911F04892B8A2B8B2B09F479CF7F
:100790000E943A3B40901C0450901D0460901E043F
:1007A00070901F046C197D098E099F094616570623
:1007B0006806790608F065CF80911A0432DFC0E040
:1007C000C8CF85EEABCF80911C0490911D04A09101
:1007D0001E04B0911F04892B8A2B8B2B09F4A4CF04
:1007E0000E943A3B80901C0490901D04A0901E042F
:1007F000B0901F046C197D098E099F098616970613
:10080000A806B90608F090CFD7CF8D9181939CCFE1
:100810004F925F926F927F928F929F92AF92BF9210
:10082000EF92FF920F931F93CF93DF93413208F023
:10083000D8C0F22ED42FE72E162FC82F0E943A3B95
:100840004B015C0180912304811170C082E0809390
:100850002304009321048FEF8093B0031092F503DB
:10086000D093F403912FA6EFB3E0E12FFE2D8E2F4E
:10087000891B8D1708F48EC01092220480912204E7
:10088000CC0FC82BC093220480912004813009F042
:1008900084C0109220040E943A3B4B015C0180917D
:1008A00022048093BB0080911C0490911D04A091B0
:1008B0001E04B0911F04892B8A2B8B2BA1F00E9460
:1008C0003A3B00911C0410911D0420911E043091AC
:1008D0001F04681979098A099B0906171707280751
:1008E000390708F444C08091BC0083FDD8CF85EC63
:1008F0008093BC000E943A3B4B015C01FF2029F031
:1009000080912304823009F44AC08091B0038F3F64
:1009100009F469C08091B003803209F466C0809107
:10092000B003803309F463C084E025C080911C04C7
:1009300090911D04A0911E04B0911F04892B8A2B55
:100940008B2B09F47FCF0E943A3B40901C045090BF
:100950001D0460901E0470901F04681979098A09AB
:100960009B09461657066806790608F06BCF8091FA
:100970001A0457DE85E0DF91CF911F910F91FF9010
:10098000EF90BF90AF909F908F907F906F905F900F
:100990004F90089581918D936ACF85EEA9CF809174
:1009A0001C0490911D04A0911E04B0911F04892B7A
:1009B0008A2B8B2B09F4A2CF0E943A3B00911C0496
:1009C00010911D0420911E0430911F0468197909AB
:1009D0008A099B09061717072807390708F08ECFE1
:1009E000C6CF81E0C8CF80E0C6CF82E0C4CF83E02D
:1009F000C2CF85ED8093BC0080911C0490911D04B2
:100A0000A0911E04B0911F040796A11DB11D23E003
:100A1000B695A795979587952A95D1F72091BC0013
:100A200024FD03C010922304089540911C045091AA
:100A30001D0460911E0470911F04452B462B472B0B
:100A400069F30097A105B10541F025E32A95F1F777
:100A500000000197A109B109E1CF80911A04E1CD0D
:100A60001F920F920FB60F9211240BB60F922F9375
:100A70003F934F935F936F937F938F939F93AF9326
:100A8000BF93EF93FF938091B900887F803609F47C
:100A90004CC008F03FC0883209F4A8C028F5803166
:100AA00009F49CC0C8F4882309F4F8C0883009F41C
:100AB00095C0FF91EF91BF91AF919F918F917F91E1
:100AC0006F915F914F913F912F910F900BBE0F90BF
:100AD0000FBE0F901F901895883109F487C080329F
:100AE00041F78093B00314C0803409F49CC040F4F3
:100AF0008033B9F38833E9F68093B0038CDDD9CF26
:100B0000803509F484C0883509F495C0883489F6A5
:100B100070DFCFCF883909F48CC038F5883729F0D9
:100B200050F4883611F0803721F683E08093230457
:100B30001092B10357C0883809F47BC0803919F08E
:100B4000803809F0B6CF8091B103803208F071C0CF
:100B5000E091B10381E08E0F8093B1038091BB00DF
:100B6000F0E0EE54FC4F80833DC0803B39F0E0F470
:100B7000803A09F479C0883A09F09BCF84E08093E9
:100B800023041092D3031092D203E0911804F09141
:100B9000190419958091D20381110FC081E08093CF
:100BA000D2031092D40309C0803C09F475C0883C7C
:100BB00009F472C0883B09F07CCFE091D30381E057
:100BC0008E0F8093D303F0E0EC52FC4F8081809332
:100BD000BB009091D3038091D20329C0809122045D
:100BE0008093BB0085EC8093BC0063CF9091F503AC
:100BF0008091F403981758F5E091F50381E08E0F8A
:100C00008093F503F0E0EA50FC4F8081E9CFE0915A
:100C1000F50381E08E0F8093F5038091BB00F0E037
:100C2000EA50FC4F80839091F5038091F40398176C
:100C3000C8F285E8D8CFE091F50381E08E0F80936C
:100C4000F5038091BB00F0E0EA50FC4F8083809177
:100C5000210481115DCF81E08093200484EA809398
:100C6000BC001092230425CFD6DC8091B1038032E2
:100C700030F4E091B103F0E0EE54FC4F108260914B
:100C8000B10370E0E0911604F091170482EB93E059
:100C900019951092B1030DCF85ECE1CF1092B003FE
:100CA00037CFFF920F931F93CF93DF93C62F042F5D
:100CB000F22E132F682F8AE593E0C1DB6C2F8AE5B3
:100CC00093E054DBCF2DD12F0C0F1D2F111DC0171A
:100CD000D10729F069918AE593E048DBF8CF8AE5EE
:100CE00093E02ADC91E0811190E0892FDF91CF9190
:100CF0001F910F91FF900895CF93DF931F92CDB76F
:100D0000DEB749839E012F5F3F4F41E0CADF0F905E
:100D1000DF91CF9108952F923F924F925F926F9201
:100D20007F928F929F92AF92BF92CF92DF92EF927B
:100D3000FF920F931F93CF93DF9300D0CDB7DEB711
:100D4000E82E69834B8369010E942E3B4B015C01B5
:100D5000F12C1A822B81222E312C2801712C612C2E
:100D60008B81F81608F044C06E2D8AE593E067DBAE
:100D700069818AE593E0FADA8AE593E0DDDB6E2D9E
:100D80008AE593E05CDBA1014F195109413251051D
:100D900014F040E250E06E2D8AE593E0CBDB8AE56B
:100DA00093E084DA892BD9F00115110569F48AE5FD
:100DB00093E083DAF6019A81E90FF11D97FDFA9528
:100DC00080839F5F9A83EBCF0E942E3B681979093D
:100DD0008A099B09641575058605970540F38AE520
:100DE00093E0AADB8B81813208F080E2F80EB8CF65
:100DF00001151105C1F00E942E3B681979098A0975
:100E00009B0930E020E0601771078207930758F0D4
:100E10002A81822F220F990B2B812817190619F08E
:100E200014F08FEF8A838A810F900F900F90DF91DB
:100E3000CF911F910F91FF90EF90DF90CF90BF90D7
:100E4000AF909F908F907F906F905F904F903F906A
:100E50002F9008950F931F9389019A0141E05BDF62
:100E60001F910F910895EF92FF920F931F93CF93CD
:100E7000DF931F92CDB7DEB7182F062FE42EF22E88
:100E80002091000230910102AE014F5F5F4FE2DF1F
:100E900081E090E001C0880FEA94EAF74981FF20E1
:100EA00069F0482B4983602F812F26DF0F90DF9157
:100EB000CF911F910F91FF90EF9008958095482357
:100EC000F1CFDF92EF92FF920F931F93CF93DF93B7
:100ED0001F92CDB7DEB7F82EE62E142FD22E20911A
:100EE000000230910102AE014F5F5F4FB3DF8823F4
:100EF00051F1812F8D19990BAC014F5F5F4F81E04C
:100F000090E002C0880F991FDA94E2F70197042E4F
:100F100001C0880F0A94EAF701C0000F4A95EAF76A
:100F2000482F4095998149238023482B49836E2D72
:100F30008F2DE2DE0F90DF91CF911F910F91FF90E7
:100F4000EF90DF90089580E0F5CF28E6FC01208344
:100F500008950F93062F23E042E06AE1FC018081AF
:100F6000B0DF0F9108950F93062F22E044E06BE16C
:100F7000FC018081A6DF0F9108950F93062F22E0D8
:100F800044E06CE1FC0180819CDF0F9108950F9398
:100F90001F93CF93DF93EC010091000210910102A7
:100FA0009C012F5F3F4F42E06BE38881B4DE898173
:100FB0009A81982789279827DF91CF911F910F91C8
:100FC00008950F931F93CF93DF93EC0100910002DC
:100FD000109101029C012F5F3F4F42E06DE3888139
:100FE0009ADE89819A81982789279827DF91CF9166
:100FF0001F910F9108950F931F93CF93DF93EC01EF
:1010000000910002109101029C012F5F3F4F42E0CE
:101010006FE3888180DE89819A81982789279827C4
:10102000DF91CF911F910F9108950F931F93CF934D
:10103000DF93EC0100910002109101029C012F5FEF
:101040003F4F42E063E4888166DE89819A81982778
:1010500089279827DF91CF911F910F9108950F93C2
:101060001F93CF93DF93EC010091000210910102D6
:101070009C012F5F3F4F42E065E488814CDE89810F
:101080009A81982789279827DF91CF911F910F91F7
:1010900008950F931F93CF93DF93EC01009100020B
:1010A000109101029C012F5F3F4F42E067E488816D
:1010B00032DE89819A81982789279827DF91CF91FD
:1010C0001F910F910895262F46E06BE6FC01808169
:1010D000CACE0F93062F23E042E06BE6FC0180812D
:1010E000F0DE0F910895CF93DF93EC0161E0F1DF23
:1010F00060E0CE0138DF60E0CE013FDF60E0CE018E
:10110000DF91CF91E0CF8AE593E08AD984E294E041
:10111000EADF20E045E06AE688E6A5DE21E041E07E
:1011200067E388E6A0DE20E046E06BE688E69BCE3B
:10113000CF93DF93EC0184E294E029DF99838883E5
:1011400084E294E03EDF9B838A8384E294E053DF71
:101150009D838C83DF91CF910895CF93C82F8AE52B
:1011600093E05ED96C2F84E294E0F3DE84E294E0B5
:10117000CF91B9CFCF93DF93EC0184E294E055DFB8
:101180009983888384E294E06ADF9B838A8384E284
:1011900094E07FDF9D838C83DF91CF91089584E27B
:1011A00094E0D3CE611102C00C94313D6130E1F383
:1011B00062E0FACF662319F061E00C946D3D60E0C7
:1011C000FCCF9CB1892F807294FF16C0811116C08C
:1011D0008091370490913804A0913904B0913A0479
:1011E0000196A11DB11D8093370490933804A093FC
:1011F0003904B0933A0408958111EACF80913704FD
:1012000090913804A0913904B0913A040197A10952
:10121000B109E9CF99B1892F847093FF16C0882353
:10122000B1F08091450490914604A0914704B0919B
:1012300048040196A11DB11D809345049093460476
:10124000A0934704B09348040895882351F38091F4
:10125000450490914604A0914704B0914804019739
:10126000A109B109E9CF8CB190E09C01220F232F95
:10127000221F330B86FF16C08091530490915404B3
:10128000A0915504B0915604232BB9F40196A11DE9
:10129000B11D8093530490935404A0935504B093CC
:1012A000560408958091530490915404A0915504DC
:1012B000B09156042130310549F30197A109B109D4
:1012C000E8CF9CB1892F807195FF16C08823B1F0BB
:1012D0008091370490913804A0913904B0913A0478
:1012E0000196A11DB11D8093370490933804A093FB
:1012F0003904B0933A040895882351F38091370458
:1013000090913804A0913904B0913A040197A10951
:10131000B109E9CF99B1892F887092FF16C0811168
:1013200016C08091450490914604A0914704B09165
:1013300048040196A11DB11D809345049093460475
:10134000A0934704B093480408958111EACF809197
:10135000450490914604A0914704B0914804019738
:10136000A109B109E9CF8CB190E086FB222720F9D1
:1013700030E0880F892F881F990B0197B1F4809175
:10138000530490915404A0915504B0915604232B1A
:10139000B1F00196A11DB11D8093530490935404A4
:1013A000A0935504B09356040895809153049091EE
:1013B0005404A0915504B0915604232B51F3019786
:1013C000A109B109E9CF1F920F920FB60F92112414
:1013D0002F933F934F935F938F939F93AF93BF93BD
:1013E00083B121E030E0982F907285FD02C030E09B
:1013F00020E080744091770450917804421753079D
:1014000009F062C021E030E0811102C030E020E04C
:101410003093760420937504882309F1911121C03B
:1014200080916F0490917004A0917104B091720446
:101430000196A11DB11D80936F0490937004A09339
:101440007104B093720480916F0490917004A09124
:101450007104B09172040196A11DB11D20C09111BB
:10146000DFCF80916F0490917004A0917104B091CE
:1014700072040197A109B10980936F0490937004DD
:10148000A0937104B093720480916F0490917004E2
:10149000A0917104B09172040197A109B1098093E0
:1014A0006F0490937004A0937104B0937204BF9181
:1014B000AF919F918F915F914F913F912F910F909D
:1014C0000FBE0F901F9018953093780420937704E7
:1014D000992371F0882371F080916F0490917004CA
:1014E000A0917104B09172040196A11DB11DC4CFE9
:1014F000882391F380916F0490917004A0917104FE
:10150000B09172040197A109B10995CF1F920F9272
:101510000FB60F9211248F939F93AF93BF93809137
:10152000060181709091030190FF1EC081111EC0C1
:101530008091610490916204A0916304B09164046D
:101540000196A11DB11D8093610490936204A09344
:101550006304B0936404BF91AF919F918F910F90FA
:101560000FBE0F901F9018958111E2CF80916104FA
:1015700090916204A0916304B09164040197A10961
:10158000B109E1CF1F920F920FB60F9211248F93E2
:101590009F93AF93BF938091030181709091060157
:1015A00090FF1EC08823F1F0809161049091620445
:1015B000A0916304B09164040196A11DB11D8093B4
:1015C000610490936204A0936304B0936404BF9198
:1015D000AF919F918F910F900FBE0F901F90189514
:1015E000882311F38091610490916204A0916304B7
:1015F000B09164040197A109B109E1CF0F931F9342
:10160000CF93DF938C018EE0809FE001819FD00D0E
:101610001124CD5CDB4F798368835B834A838881A7
:10162000998160E00E94313D8A819B8160E00E9447
:10163000313D8881998161E00E946D3D8A819B8165
:1016400061E00E946D3D0230110509F487C064F429
:101650000115110501F10130110509F450C0DF91A8
:10166000CF911F910F9108950330110509F4A5C082
:1016700004301105A1F780916800816080936800B3
:1016800080916B00806280936B0080916B0080641E
:1016900080936B00E4CF80913304909134040297DF
:1016A0008431910530F58D549D4FFC018081082EC9
:1016B000000C990B41E050E061EE78E00E94123995
:1016C0008091350490913604029784319105A0F4FD
:1016D0008D549D4FFC018081082E000C990B41E038
:1016E00050E061E679E0DF91CF911F910F910C946A
:1016F00012398FEF9FEFDECF8FEF9FEFF0CF80910A
:1017000041049091420402978431910508F58D546B
:101710009D4FFC018081082E000C990B41E050E0A8
:101720006AE879E00E941239809143049091440460
:1017300002978431910578F48D549D4FFC0180818E
:10174000082E000C990B41E050E06AE079E0CBCF25
:101750008FEF9FEFE3CF8FEF9FEFF5CF80914F0497
:101760009091500402978431910508F58D549D4F56
:10177000FC018081082E000C990B41E050E063E3EE
:1017800079E00E941239809151049091520402979D
:101790008431910578F48D549D4FFC018081082E91
:1017A000000C990B41E050E063EB79E09CCF8FEFA8
:1017B0009FEFE3CF8FEF9FEFF5CF809168008460BC
:1017C00080936800809168008260809368008091B7
:1017D0006D00816080936D0080916C0082608093C9
:1017E0006C003DCF2EE0269FF001279FF00D1124C5
:1017F000ED5CFB4F64817581868197810895CF925E
:10180000DF92EF92FF92CF93882351F16A017B011F
:10181000CFEFC80F20E030E0A901CB01B6010E9454
:10182000383687FF11C0C701B60190580E94AA360A
:101830009B01AC016C2F70E090E080E0CF91FF90B5
:10184000EF90DF90CF90B2C0C701B6010E94A536DD
:101850008C2FCF91FF90EF90DF90CF900C94F73BBF
:10186000CF91FF90EF90DF90CF9008950F931F934B
:101870008B019C0183E036952795179507958A95EE
:10188000D1F707581B4F462F477021E030E0F90190
:1018900002C0EE0FFF1F4A95E2F7AF01F801208169
:1018A0002423CB010196211102C090E080E01F911A
:1018B0000F9108950F931F938B019C0183E0369540
:1018C0002795179507958A95D1F7677081E090E085
:1018D00001C0880F6A95EAF7F801E758FB4F2081AD
:1018E000452B31F48095822380831F910F910895B9
:1018F000822BFACF2F923F924F925F926F927F92FC
:101900008F929F92AF92BF92CF92DF92EF92FF920F
:101910000F931F93CF93DF93D62EC72E782E692E69
:1019200049015A01280161E08D2D0E94313DCD2DE4
:10193000DC2D8E010F5F1F4FA8016D2D7C2D872D93
:10194000962DB8DF20E030E0A901C201B7010E9466
:101950008738181664F4C201B7010E94AA362B0119
:10196000C501B4010E94AA36A201CE0123D0C8014C
:10197000DF91CF911F910F91FF90EF90DF90CF906B
:10198000BF90AF909F908F907F906F905F904F909F
:101990003F902F900895882341F08150682F70E088
:1019A00090E080E050E040E085CF0895862FB901B7
:1019B0000C94F73B9C01FC01E05DFE4FE491E1508B
:1019C000E231E0F4F0E08827E751F34F8F4F0C94B9
:1019D0005841FB0C020D050D1C0D310DFE0C460D82
:1019E000520D560D6D0D820D970DAE0DC30DFE0CF3
:1019F000D80DEF0D040E84B5806884BD60E0822FA1
:101A00000C946D3D84B58062F8CF809180008C7F0E
:101A100082608093800080918100807E8061682B4D
:101A200060938100509387004093860080918000EE
:101A3000806880938000E2CF809180008C7F8260FC
:101A40008093800080918100807E8061682B60930C
:101A500081005093870040938600809180008062CF
:101A6000E8CF809180008C7F82608093800080919D
:101A70008100807E8061682B609381005093870095
:101A800040938600809180008860D3CF8091B00021
:101A900080688093B0008091B100887F682B60934C
:101AA000B100ACCF8091B0008062F3CF8091900004
:101AB0008C7F82608093900080919100807E806115
:101AC000682B60939100509397004093960080910B
:101AD000900080688093900091CF809190008C7FDF
:101AE00082608093900080919100807E8061682B5D
:101AF00060939100509397004093960080919000DE
:101B00008062E8CF809190008C7F8260809390000B
:101B100080919100807E8061682B6093910050934A
:101B2000970040939600809190008860D3CF809179
:101B3000A0008C7F82608093A0008091A100807EB5
:101B40008061682B6093A1005093A7004093A6008A
:101B50008091A00080688093A00050CF8091A00069
:101B60008C7F82608093A0008091A100807E806144
:101B7000682B6093A1005093A7004093A60080912A
:101B8000A0008062E8CF8091A0008C7F826080936B
:101B9000A0008091A100807E8061682B6093A100ED
:101BA0005093A7004093A6008091A0008860D3CFF7
:101BB000809120018C7F826080932001809121019F
:101BC000807E8061682B60932101509327014093B0
:101BD0002601809120018068809320010FCF8091A1
:101BE00020018C7F82608093200180912101807E82
:101BF0008061682B60932101509327014093260157
:101C0000809120018062E8CF809120018C7F8260EA
:101C10008093200180912101807E8061682B6093F8
:101C20002101509327014093260180912001886073
:101C3000D3CF90E080E008950F931F93009709F4AD
:101C400089C06115710509F485C000916802109181
:101C5000690220916A0230916B020E3F1F4F2F4F95
:101C60003F4F09F068C04FEF5FEFBA014093680241
:101C70005093690260936A0270936B02409168020C
:101C80005091690260916A0270916B02DC011296B8
:101C9000ED91FC9180819181A281B3818093F604C2
:101CA0009093F704A093F804B093F904848195818C
:101CB000A681B7818093F2049093F304A093F40477
:101CC000B093F50480859185A285B3858093EE0459
:101CD0009093EF04A093F004B093F104848595856C
:101CE000A685B7858093EA049093EB04A093EC0457
:101CF000B093ED041092E6041092E7041092E80409
:101D00001092E9040E94B41789ED97E1909383043F
:101D10008093820490938504809384040E94A31688
:101D2000009731F421E030E03093FB042093FA0473
:101D30001F910F91089500916802109169022091FE
:101D40006A0230916B02DB010D931D932D933C933E
:101D5000139794CF8FEF9FEFEBCF8F929F92AF921D
:101D6000BF92CF92DF92EF92FF921F93CF93DF93B8
:101D70004B015C011091FD0482E090E09093FB0424
:101D80008093FA0481149104A104B10441F4809178
:101D9000FD04811104C08091FC04C1E08111C0E008
:101DA000C12CD12C76018091FD04811106C0809157
:101DB000FC04811102C0CC23D9F083E090E0909321
:101DC000FB048093FA04CC2379F1CCE9DFEF111105
:101DD00002C00E943D1BCE01DF91CF911F91FF9069
:101DE000EF90DF90CF90BF90AF909F908F9008952D
:101DF0006AE070E080E090E00E945F3B80E1C80E06
:101E000087E2D81EE11CF11C8FEF88169806A80601
:101E1000B80631F0C1E08C149D04AE04BF0408F094
:101E2000C0E080E0C4D7BFCFD0E0C0E0D0CFCF9239
:101E3000DF92EF92FF920F931F93CF93DF938F3F29
:101E4000910511F008F050C02091FA043091FB0484
:101E50002330310539F02091FA043091FB04213010
:101E6000310531F424E030E03093FB042093FA0490
:101E70006A017B01EC0182309105A0F011E0AE0116
:101E8000C701B6015FD7AB01BC01CE011123F9F048
:101E9000DF91CF911F910F91FF90EF90DF90CF9046
:101EA0000C94661D8C01000F111F0E571B4FD8019B
:101EB0008D919C91892B11F30E94701D0297F1F670
:101EC000D801ED91FC91CE011995182FD8CF0E9421
:101ED000881D90E080E0DF91CF911F910F91FF90DE
:101EE000EF90DF90CF9008958FEF9FEFF4CF80E0D9
:101EF0005EC7CF93DF9386E090E09093FB048093DE
:101F0000FA04AED7EC01E2E8F4E084E0DF011D92D0
:101F10008A95E9F70E94D51A1092FB041092FA04F0
:101F2000CE01DF91CF9108958091FC0408958091B6
:101F3000E5040895609368027093690280936A02D1
:101F400090936B0290E080E008958F929F92AF9201
:101F5000BF92CF92DF92EF92FF92CF93DF936B010C
:101F60007C0149015A01ECD5882399F060911E0A41
:101F700070911F0A8091200A9091210ADF91CF91E0
:101F8000FF90EF90DF90CF90BF90AF909F908F9099
:101F90000895C501B401D4D58111E8CFC701B601B8
:101FA0008AD58823D9F1C501B40185D58823B1F13B
:101FB00020E030E0A901C701B6010E948738CFEFC9
:101FC000DFEF181614F4C1E0D0E020E030E0A90102
:101FD000C501B4010E9487386FEF7FEF181614F423
:101FE00061E070E0072E000C880B990B0E94D83638
:101FF0006B017C01BE01DD0F880B990B0E94D83666
:10200000A7019601DF91CF91FF90EF90DF90CF90E5
:10201000BF90AF909F908F900C94D23520E030E02D
:10202000A901C501B4010E943836811116C020E013
:1020300030E0A901C701B6010E948738181694F054
:1020400020E030E0A901C701B6010E94383687FDC3
:102050000EC060E070E0CB0191CFA5019401C701F3
:10206000B601D0CF6BED7FE089EC9FE387CF6BEDBE
:102070007FE089EC9FEB82CFCF92DF92EF92FF92CD
:102080006B017C019F7720E030E040E859E50E9439
:10209000383687FF2BC020E030E040E05FE3C70127
:1020A000B6010E94873887FD0EC020E030E040E096
:1020B0005FE3C701B6010E945F35FF90EF90DF90AC
:1020C000CF900C94133720E030E040E05FEBC70185
:1020D000B6010E948738181684F420E030E0A90188
:1020E000C701B6010E9492386B017C01C701B6019D
:1020F000FF90EF90DF90CF90089520E030E040E037
:102100005FE3C701B6010E945E35FF90EF90DF905C
:10211000CF900C9425364F925F926F927F928F9260
:102120009F92AF92BF92CF92DF92EF92FF920F9366
:102130001F93CF93DF93CDB7DEB72E970FB6F894EA
:10214000DEBF0FBECDBF61E070E080E090E04ADB13
:1021500060930E0A70930F0A8093100A9093110AED
:10216000C0900A02D0900B02E0900C02F0900D0299
:102170002091E6093091E7094091E8095091E90979
:10218000C701B6010E945F35A70196010E945F3525
:1021900020911602309117024091180250911902B5
:1021A0000E9492386093FE097093FF098093000AA1
:1021B0009093010ACE0101960E9498086D817E815C
:1021C000072E000C880B990B0E94D83620911E0216
:1021D00030911F0240912002509121020E949238BA
:1021E0006B017C016B817C81072E000C880B990BA5
:1021F0000E94D83620911A0230911B0240911C0295
:1022000050911D020E949238A70196019EDE2091F6
:1022100022023091230240912402509125020E9413
:102220005F3520910A0230910B0240910C025091CF
:102230000D020E945F3520912602309127024091C5
:102240002802509129020E9492386093020A7093EA
:10225000030A8093040A9093050A8091FA099091E9
:10226000FB09A091FC09B091FD09892B8A2B8B2BCE
:1022700091F12091B8043091B9044091BA04509181
:10228000BB046091320270913302809134029091CC
:1022900035020E9492386B017C010E94F5386093F0
:1022A000EA097093EB098093EC099093ED09C7015B
:1022B000B6010E943C366093EE097093EF0980935B
:1022C000F0099093F1091092FA091092FB0910920B
:1022D000FC091092FD098091EA099091EB09A09107
:1022E000EC09B091ED098F839887A987BA8780910F
:1022F000420290914302A0914402B09145028B8723
:102300009C87AD87BE874090EE095090EF096090A2
:10231000F0097090F109C0903E02D0903F02E09029
:102320004002F09041029C01AD016F817885898562
:102330009A850E9492384B015C01A7019601C30166
:10234000B2010E9492389B01AC01C501B4010E9408
:102350005F3520913A0230913B0240913C0250910E
:102360003D020E9492384B015C01A30192016B85F2
:102370007C858D859E850E9492382B013C01A701AA
:1023800096016F81788589859A850E9492389B0194
:10239000AC01C301B2010E945E352091360230913A
:1023A000370240913802509139020E9492389B01C5
:1023B000AC01C501B4010E945F3520912A02309121
:1023C0002B0240912C0250912D020E9492382091B4
:1023D0002E0230912F0240913002509131020E9422
:1023E0005F356093060A7093070A8093080A9093FA
:1023F000090ACE0101960E94BA0869817A81072EE6
:10240000000C880B990B0E94D83660930A0A7093CF
:102410000B0A80930C0A90930D0A2091060A3091C2
:10242000070A4091080A5091090A6091520270917E
:10243000530280915402909155020E9492380E945A
:1024400013376B017C017CD38111A1C1C701B60197
:1024500032D381119CC120E030E040E857E4C7014D
:10246000B6010E942D376B017C0120E030E0A9010C
:102470000E94383687FF8EC1C701B60190580E946E
:10248000AA36EE24FF24E61AF70A8091660290919C
:102490006702E816F9060CF483C18090020290905E
:1024A0000302A0900402B0900502C501B401E4DD6E
:1024B0002B013C0120E030E040E853E40E94383634
:1024C0006FEF87FF0EC020E030E0A901C301B20129
:1024D0000E94873860E087FD04C0C301B2010E94FA
:1024E000AA3686E00E94DA0868E070E080E090E0BA
:1024F000BDD96C019093E5098093E409B701F7FE1B
:1025000003C0719561957109072E000C880B990B1A
:102510000E94D836209156023091570240915802BD
:10252000509159020E945F358B012C0160905A0234
:1025300070905B02E0905C02F0905D029B01AC0148
:10254000B301C7010E94383687FD12C060905E0259
:1025500070905F02E0906002F09061029801A20129
:10256000B301C7010E948738181614F038017201B0
:1025700020916202309163024091640250916502A1
:10258000C501B4010E9492389301A7010E945E35F3
:102590004B015C01E894B7F820E030E04FE753E4EA
:1025A000C501B4010E943836181634F4812C912CE0
:1025B0008FE7A82E83E4B82EB501A401C6011FD968
:1025C00020910A0A30910B0A40910C0A50910D0A91
:1025D00060914602709147028091480290914902B1
:1025E0000E94923820914A0230914B0240914C0255
:1025F00050914D020E94923820914E0230914F022C
:1026000040915002509151020E945F3520910E027C
:1026100030910F0240911002509111020E949238A5
:102620002091E6093091E7094091E8095091E909C4
:102630000E945F356093E6097093E7098093E8098B
:102640009093E909C090EA09D090EB09E090EC0979
:10265000F090ED0980903A0290903B02A0903C02ED
:10266000B0903D028091EE099091EF09A091F009A0
:10267000B091F1098F839887A987BA874090360275
:10268000509037026090380270903902A70196018D
:10269000C501B4010E9492386B877C878D879E8725
:1026A000A30192016F81788589859A850E9492386D
:1026B0009B01AC016B857C858D859E850E945F3575
:1026C0006093EA097093EB098093EC099093ED090C
:1026D0002F81388549855A85C501B4010E949238F9
:1026E0004B015C01A7019601C301B2010E9492381F
:1026F0009B01AC01C501B4010E945E356093EE09F7
:102700007093EF098093F0099093F1096091BC04F4
:102710007091BD048091BE049091BF046F5F7F4FA4
:102720008F4F9F4F6093BC047093BD048093BE0491
:102730009093BF040E94D6369B01AC016091C00407
:102740007091C1048091C2049091C3040E94923898
:102750006093B8047093B9048093BA049093BB0457
:102760002E960FB6F894DEBF0FBECDBFDF91CF918E
:102770001F910F91FF90EF90DF90CF90BF90AF909F
:102780009F908F907F906F905F904F900895C12C95
:10279000D12C7601C701B6010E94AA367B0175CE05
:1027A0008090060290900702A0900802B090090263
:1027B0007CCE8F929F92AF92BF92DF92EF92FF9268
:1027C0000F931F93CF93DF9384E090E03DD1E2EA33
:1027D000F4E087E2DF011D928A95E9F780E090E05E
:1027E000A0E8BFEB82A393A3A4A3B5A38AE097EDCF
:1027F000A3E2BCE3868F978FA0A3B1A385EB9BE6F2
:10280000A5E6B4E984839583A683B78387EA9AE52E
:10281000AFE4B6EE80879187A287B38783E996E518
:10282000A3E7B5E584879587A687B78788EC96EFF9
:10283000ADE2BBE4808B918BA28BB38BA6E9B4E0B5
:10284000B383A283E6E8F4E01196FC93EE9387EC61
:1028500092E091838083938382839583848397839B
:1028600086839187808793878287958784879787D8
:10287000868786EB94E015969C938E93149786EA50
:1028800094E013969C938E93129788EB94E017969E
:102890009C938E931697EEEFF9E084E1DF011D9291
:1028A0008A95E9F7C4ECD9E08AE3FE0111928A9592
:1028B000E9F7812C912C540183948D8A9E8AAF8AEA
:1028C000B88E42E150E063E170E081E090E00E9468
:1028D000FE0ADD24D394D98E188289829A82AB8233
:1028E000BC820E948308DD821E868F86988AA98A10
:1028F000BA8A90E080E00E94AD08DB8A1E828F8257
:102900009886A986BA8661E086E00E94D208DB86B6
:102910001A8E8B8E9C8EAD8EBE8EE12CF12C870193
:10292000A801970168E070E080E090E00E947A0CD6
:1029300099A388A3DF8E8091120290911302A09137
:102940001402B09115028AA39BA3ACA3BDA38EAAC7
:102950009FAAA8AEB9AEDF91CF911F910F91FF90C2
:10296000EF90DF90BF90AF909F908F9008958091EF
:10297000D809811103C081E08093D8098091C409EE
:10298000811103C081E08093C4098091D209811133
:1029900003C081E08093D2098091CA09811103C0EC
:1029A00081E08093CA098091DE0981112EC081E007
:1029B0008093DE098091DF099091E009A091E109FF
:1029C000B091E2090197A105B105F9F48091E309FD
:1029D0008823D9F068E070E080E090E00E94360C37
:1029E0009093E5098093E40940E050E0BA010E9429
:1029F000FF0B68E070E080E090E00E94360C90935E
:102A0000E5098093E4090C94CB0C089560E070E034
:102A100080E89FE7089560E070E080E89FE7089510
:102A200060E070E080E89FEF089560E070E080E88B
:102A30009FEF089560E070E080EC9FEF089560E004
:102A400070E080EC9FEF0895F5DF60931E0A7093AD
:102A50001F0A8093200A9093210AF1DF6093120AE3
:102A60007093130A8093140A9093150ACFDF609332
:102A70001A0A70931B0A80931C0A90931D0ACBDFDD
:102A80006093160A7093170A8093180A9093190A94
:102A9000C7DF6093220A7093230A8093240A9093DD
:102AA000250AC3DF6093260A7093270A8093280AB9
:102AB0009093290A0895CF92DF92EF92FF92CF93DD
:102AC0006B017C01AC019B0160911A0A70911B0A99
:102AD00080911C0A90911D0A0E943836C1E088231B
:102AE00071F0A70196016091220A7091230A8091EA
:102AF000240A9091250A0E9438368111C0E08C2F5B
:102B0000CF91FF90EF90DF90CF9008950F931F9398
:102B10008B019C010027112720783F7701151105B3
:102B200020483F4749F4AB01BC016F77772781E02C
:102B3000452B462B472B09F480E01F910F910895F8
:102B4000E5CF4F925F926F927F928F929F92AF925A
:102B5000BF92CF92DF92EF92FF920F931F93F89460
:102B60004090D5045090D6046090D7047090D8045B
:102B7000C090C904D090CA04E090CB04F090CC047B
:102B8000452B09F0A4C09B01AC0124193509460965
:102B9000570929013A010091D1041091D2042091E2
:102BA000D3043091D40448015901840C951CA61C0F
:102BB000B71C80169106A206B306A0F40091CD04BE
:102BC0001091CE042091CF043091D0040F5F1F4F9D
:102BD0002F4F3F4F0093CD041093CE042093CF048A
:102BE0003093D0048092D1049092D204A092D30466
:102BF000B092D4040091CD041091CE042091CF0462
:102C00003091D0048092D9049092DA04A092DB042F
:102C1000B092DC040093DD041093DE042093DF0403
:102C20003093E0046093D5047093D6048093D70466
:102C30009093D804A0E1B7E2A30192010E94604101
:102C40006C0D7D1D8E1D9F1D6093C9047093CA0479
:102C50008093CB049093CC04009168021091690298
:102C600020916A0230916B020F3F1F4F2F4F3F4F51
:102C7000F1F0009168021091690220916A0230918E
:102C80006B020E3F1F4F2F4F3F4F89F0C0906802DD
:102C9000D0906902E0906A02F0906B0221E08C14FF
:102CA0009D04AE04BF0408F420E02093E50478946A
:102CB0001F910F91FF90EF90DF90CF90BF90AF905A
:102CC0009F908F907F906F905F904F9008954B01F1
:102CD0005C0184189508A608B708A3019201261B79
:102CE000370B480B590B6415750586059705D0F011
:102CF00082169306A406B50640F420E030E0A90150
:102D000081149104A104B10491F4A0E1B7E20E94FE
:102D10006041A7019601261B370B480B590BCA01CE
:102D2000B901C5CF82169306A406B50670F7A0E1D7
:102D3000B7E2A50194010E9460416C0D7D1D8E1DBE
:102D40009F1DB5CFFECECF93DF9300D01F92CDB79E
:102D5000DEB71C821B821A8219821092E104109243
:102D6000E2041092E3041092E404BE016F5F7F4F0F
:102D7000CE0103960E949E3369817A818B819C816A
:102D80000E948C2C009761F4BE016F5F7F4FCE01D3
:102D900003960E94AA3369817A818B819C812ED50A
:102DA0000F900F900F900F90DF91CF910895FF92A9
:102DB0000F931F93CF93DF93082F60E070E0CB0158
:102DC0000E945F3BFF24F3940E94752BEC01892B3A
:102DD00089F010E0CE3F8FEFD80769F0002361F152
:102DE00060E070E0CB010E945F3B81E090E0892BC6
:102DF00059F322C011E025D5EC01892B21F0CE3FFB
:102E00008FEFD80759F711111EC011E0229609F46F
:102E100010E00E94252BEC01892B21F0CE3F8FEF93
:102E2000D807E1F6111111C011E0CE3F8FEFD8079E
:102E300009F410E001110BC0CE01DF91CF911F9179
:102E40000F91FF90089511E0E4CF11E0F3CF60E01F
:102E500070E0CB010E945F3B1F25812F90E0C7CF20
:102E6000CF93DF938091E504882321F060E070E048
:102E7000CB014CD635D6D0E0C0E0892B71F06AE0AA
:102E800070E080E090E00E945F3B81E090DF28D618
:102E90002196C03D27E0D20781F727D60E94E02C7B
:102EA0001092FD041092FC041092F6041092F704A4
:102EB0001092F8041092F9041092F2041092F304A4
:102EC0001092F4041092F5041092EE041092EF04A4
:102ED0001092F0041092F1041092EA041092EB04A4
:102EE0001092EC041092ED041092E6041092E704A4
:102EF0001092E8041092E9044EEF5FEF6FEF7FEF5E
:102F0000409368025093690260936A0270936B0267
:102F10001092E504E9EDF4E028E0DF011D922A9526
:102F2000E9F71092D5041092D6041092D7041092AB
:102F3000D8041092D1041092D2041092D3041092AB
:102F4000D4041092CD041092CE041092CF041092AB
:102F5000D0041092C9041092CA041092CB041092AB
:102F6000CC04DF91CF9108951092090510920A05C3
:102F700010920B0510920C05109208058091110516
:102F80009091120590930705809306051092050510
:102F9000109204051092000510920105109202058E
:102FA0001092030510920E0510920D0590E080E03E
:102FB0000895CF92DF92EF92FF920F931F93CF93DA
:102FC0008C01892B09F055C0209111053091120513
:102FD00080910605909107054091110550911205C9
:102FE00050930705409306052817390781F0109282
:102FF000050510920405109200051092010510922B
:1030000002051092030510920E0510920D05809195
:10301000110590911205019761F580910D05909130
:103020000E05892B21F480916C02811112C08091D0
:103030000D0590910E050197E1F4809100059091A6
:103040000105A0910205B09103050197A105B10505
:1030500081F4109200051092010510920205109261
:10306000030510926C0282E090E090930E0580932D
:103070000D058091110590911205019709F01CC171
:1030800080912705909128058017910709F014C1B8
:103090008091230590912405A0912505B0912605E6
:1030A000009709F409C12091220521110DC040911A
:1030B0002305509124056091250570912605452B27
:1030C000462B472B09F4F8C020910D0530910E05D1
:1030D0002230310509F0F0C0209104052111ECC027
:1030E000FC01C080D180E280F380809108058823B4
:1030F00009F4D3C08091140590911505892B09F42A
:10310000FDC0209114053091150581E02230310574
:1031100009F080E02091140530911505C1E02130BF
:10312000310549F02091140530911505C1E0223098
:10313000310509F0C0E0882309F456C020911E052E
:1031400030911F054091200550912105C701B6011E
:103150000E94873887FD14C020911E0530911F05FD
:1031600040912005509121056091090570910A0553
:1031700080910B0590910C050E94383687FD22C086
:1031800020911E0530911F05409120055091210589
:10319000C701B6010E948738181634F520911E0524
:1031A00030911F054091200550912105609109053E
:1031B00070910A0580910B0590910C050E9438369C
:1031C000811112C08091160590911705A0911805E4
:1031D000B0911905892B8A2B8B2B19F481E08093F0
:1031E000050581E080930405CC2309F456C02091A5
:1031F0001E0530911F054091200550912105C70102
:10320000B6010E94383687FF14C020911E05309108
:103210001F0540912005509121056091090570918D
:103220000A0580910B0590910C050E94873887FF55
:1032300022C020911E0530911F054091200550911C
:103240002105C701B6010E943836811126C02091A0
:103250001E0530911F054091200550912105609178
:10326000090570910A0580910B0590910C050E944B
:103270008738181694F48091160590911705A0913F
:103280001805B0911905892B8A2B8B2B19F481E035
:103290008093050581E08093040581E09091040509
:1032A000911180E080930805C0920905D0920A052B
:1032B000E0920B05F0920C05012B09F067C180919B
:1032C0000D0590910E05892BD9F4109213051092DB
:1032D000040580916C02882379F082E090E090935D
:1032E0000E0580930D0510926C022091110530910E
:1032F000120581E0232BE9F080E01BC081E00ACFBA
:1033000010926C0280911305882349F010920505F4
:1033100010920E0510920D0510921305EDCF8091BD
:10332000110590911205892BE1F08091040510920E
:10333000040520910D0530910E052230310509F468
:103340005EC088F42115310509F448C021303105EB
:1033500009F4F3C0109205051092040510921305AC
:1033600038C081E0E6CF2330310509F4B1C0243004
:10337000310581F7409100055091010560910205EA
:1033800070910305411551056105710561F04150CA
:10339000510961097109409300055093010560933B
:1033A000020570930305409100055091010560915D
:1033B000020570910305452B462B472BD9F420912C
:1033C0000F05309110052130310509F046C01092EB
:1033D000050510920E0510920D050CC080916C022F
:1033E000882341F082E090E090930E0580930D05D4
:1033F00010926C021092FE0480910505CEC08823C5
:10340000C9F38091160590911705A0911805B09108
:103410001905181619061A061B060CF07DC08091B6
:10342000110590911205019709F076C0809116055B
:1034300090911705A0911805B0911905809300058A
:1034400090930105A0930205B093030583E090E0FB
:1034500090930E0580930D05CDCF40911A055091A4
:103460001B0560911C0570911D05452B462B472BB4
:10347000A9F01092050580911A0590911B05A09165
:103480001C05B0911D058093000590930105A09344
:103490000205B093030581E090E0DACF882399F02C
:1034A00080916D0290916E02A0916F02B0917002B6
:1034B0008093000590930105A0930205B093030546
:1034C00084E090E0C5CF1092050582E090E0C0CF87
:1034D0008091000590910105A0910205B09103052E
:1034E0000097A105B10559F00197A109B109809391
:1034F000000590930105A0930205B0930305809108
:10350000000590910105A0910205B0910305892B5A
:103510008A2B8B2B09F06ECF80916D0290916E02F9
:10352000A0916F02B0917002892B8A2B8B2B09F42A
:103530004ECF81E080930505B3CF409100055091B7
:103540000105609102057091030541155105610562
:10355000710561F0415051096109710940930005FD
:103560005093010560930205709303054091000597
:10357000509101056091020570910305452B462B82
:10358000472B09F037CF8111C7CF9FCF8091FE0421
:10359000882309F431CF8091FF04CF911F910F91BF
:1035A000FF90EF90DF90CF90089510920905109250
:1035B0000A0510920B0510920C0510920805109246
:1035C0000E0510920D051092070510920605109237
:1035D00028051092270510920505109204051092F7
:1035E0000005109201051092020510920305109239
:1035F000FF041092FE0410922305109224051092ED
:103600002505109226051092220510921E05109293
:103610001F05109220051092210588EE93E0A0E08E
:10362000B0E080936D0290936E02A0936F02B0930E
:10363000700210921A0510921B0510921C05109230
:103640001D0510921605109217051092180510927C
:103650001905109215051092140581E080936C02F3
:103660001092130510921205109211051092100578
:1036700010920F0590E080E00895809111059091DF
:103680001205892B19F580916C02882351F08091E5
:103690001305811106C081E08093FF048093FE042E
:1036A00008952091130530916C0281E090E033235E
:1036B00011F090E080E030E082239323892B21F009
:1036C0001092FF0481E0EACF1092FE04089582E098
:1036D00090E0FA01918380838FEF9FEF0895CF935D
:1036E000DF93EA01009711F00E94002E19821882E0
:1036F00090E080E0DF91CF910895DB01009719F40D
:103700008FEF8C9308952EEF2C93FC013F96EF30B2
:10371000F10508F034C08827EF56F44E8F4F0C9413
:103720005841BD1BBB1BB91BB71BB51BB11BB31B42
:10373000AF1BAD1BAB1BA81BA41BA01BA61BBF1B59
:1037400080E311968C93089589E2FBCF82E2F9CF52
:1037500011961C92089583E2F4CF81E2F2CF81E1C9
:10376000F0CF87E2EECF8AE2ECCF80E1EACF84E2CD
:10377000E8CF88E2E6CF86E2E4CF81E3E2CF80E2E1
:10378000E0CF8091350590913605089590933605E8
:1037900080933505089580913405089590913405FE
:1037A000892B809334050895982F90958091340546
:1037B000892380933405089580913305089580917D
:1037C00031059091320508956115710559F0FB019D
:1037D00030E020E070E060E02417350719F0611553
:1037E000710511F0CB010895A081B181A817B90727
:1037F00009F4BF012F5F3F4F3696EECF809137051A
:1038000081111CC060D266D290932A05809329054D
:103810000E94FE250E94102690932E0580932D0570
:103820000E948D2A0E94942A90932C0580932B0548
:1038300081E08093370590E080E0089584EF9FEF6A
:1038400008958F929F92AF92BF92CF92DF92EF92A4
:10385000FF920F931F93CF93DF9300D000D000D03F
:103860001F92CDB7DEB71A86198618861F821E8270
:103870001D821C821B821A8219828091370507EFF4
:103880001FEF882309F49CC08E010D5F1F4F9E011E
:103890002B5F3F4FAE01495F5F4FBE01675F7F4FB8
:1038A00090E080E00E94112C8C01009721F0059699
:1038B000029708F0DBC029853A852115310509F406
:1038C00002C1ED80FE804B815C81B701640F751FE2
:1038D0008F8198858617970708F4F5C0E20EF31ECE
:1038E000D7019C91903C09F07FC04230510508F40B
:1038F0007BC011968C914091350550913605452B32
:1039000009F49CC0913F08F071C02CE1290F2D30C3
:1039100008F48BC02DE2290F203108F489C0903CB7
:1039200021F48150823008F483C088E3890F8B3002
:1039300008F481C09DE7C92E9BE1D92EE7E6FBE1A3
:103940006D817E81AE014F5F5F4F89859A851995A4
:103950005C01C114D104A1F189809A808114910481
:1039600079F18B819C818815990508F487C010E056
:1039700000E04B815C8170E060E0C7010E94824101
:1039800001151105E9F449815A8169857A858D818E
:103990009E81680F791FC501F6011995E980FA80AB
:1039A0000D811E812F81388549855A856FEF7FEF04
:1039B00081E090E00E94AC2B8C01892B09F056C06D
:1039C000C8012A960FB6F894DEBF0FBECDBFDF91B7
:1039D000CF911F910F91FF90EF90DF90CF90BF900C
:1039E000AF909F908F90089580E085CF30E020E0E9
:1039F000220F331FF901E75DFA4F0190F081E02DAE
:103A0000309709F497CF892F90E01995009709F422
:103A100091CFDC011296ED91FC9113971496CD9005
:103A2000DC90309709F08CCF1FC021E030E0E0CF70
:103A300022E030E0DDCF23E030E0DACFD12CC12C22
:103A4000EFE6FBE19F3F09F07BCFE0912905F09184
:103A50002A05309721F4C90104EF1FEF0CC08FEF46
:103A600090E019950097A9F604EF1FEF89859A85D4
:103A7000009709F4A5CF0E94002EA2CF0E94DB2C54
:103A80008C0189859A850E94002E70E060E0C40157
:103A90000E94742C98878F830E94A92B9E838D830C
:103AA0006F8178856115710559F0C8010E948C2FCE
:103AB0009A87898706EF1FEF892B09F058CF59CFD6
:103AC00008EF1FEF56CF08EF1FEFD0CF209137053B
:103AD000222319F020E00C94152687EF9FEF08951C
:103AE000809135059091360508950E94992A0E948B
:103AF000F329F5D0E9E2F5E088E0DF011D928A952F
:103B0000E9F71092370590E080E008950C94512871
:103B100021E040E050E0BA010C94152686E090E0E8
:103B2000FA019183808390E080E0089547E050E0BF
:103B30006AEC72E049CEDF92EF92FF920F931F93EF
:103B4000CF93DF938A01EC01C60FD71FE0903B05AE
:103B5000F0903C05D9800E94C32CD816190678F045
:103B600082E090E0F801918380838EEF9FEFDF91F8
:103B7000CF911F910F91FF90EF90DF900895EF2864
:103B800041F482E090E0F8019183808384EF9FEF1D
:103B9000EECF898180933A0590E00196F8019183F8
:103BA000808390E080E0E3CFCF93DF93EA010E942F
:103BB0000229882321F00E94D02C0E94032982E050
:103BC00090E0998388838BEF9FEFDF91CF910895E9
:103BD000CF93DF93EB0186E0FB0111928A95E9F721
:103BE0008FEF8883D8DD8983E7DD8A83E8DD9D83D5
:103BF0008C83DF91CF910895CF93DF93EA010E94E8
:103C00000529811109C082E090E09983888385EFBE
:103C10009FEFDF91CF91089590E080E0B7DD81E0E4
:103C200090E09983888390E080E0F3CF0F931F9317
:103C3000CF93DF93EA018C01060F171F0E9405291D
:103C400081110BC082E090E09983888385EF9FEF1C
:103C5000DF91CF911F910F910895F80181818230FA
:103C600038F082E090E0998388838EEF9FEFF0CF69
:103C700081E090E08BDD88E090E09983888390E09C
:103C800080E0E6CFCF93DF930097D1F4EB01FB0107
:103C9000329686E0DF011D928A95E9F78FEF8883DF
:103CA00085E089831A820E94C32C8B830E94C22CD8
:103CB0009D838C8381E08E838F83DF91CF910895E4
:103CC000DF91CF911ACD86E99DE1909339058093DC
:103CD000380508958091380590913905089510921E
:103CE000390510923805089580913B0590913C0567
:103CF0000895411105C0611571058105910561F0B7
:103D000060933B0570933C0580933D0590933E0581
:103D100040933F0581E0089580E00895FF920F935E
:103D20001F93CF93DF938A01EC01C60FD71FF98051
:103D30000E94C32CF816190668F082E090E0F801A2
:103D4000918380838EEF9FEFDF91CF911F910F9131
:103D5000FF9008956C817D818E819F814B81C9DFA9
:103D6000811108C082E090E0F8019183808384EFA4
:103D70009FEFEACF898180933A0590E00196F801A0
:103D80009183808390E080E0DFCFCF93DF93EA01DF
:103D9000FC01E60FF71F648175818681978143815D
:103DA000A8DF811109C082E090E09983888384EFC5
:103DB0009FEFDF91CF91089581E090E09983888310
:103DC00090E080E0F6CFEBE3F5E040815181628145
:103DD0007381480F511D611D711D408351836283A2
:103DE00073830895CF93C0913A054C2F50E06091B2
:103DF0003B0570913C0501960E9479418C2FE3DFD1
:103E000010923A05CF910895009799F480913B055F
:103E100090913C052FEFFB012083892B59F02091D5
:103E20003A0530E02F5F3F4F2417350719F4CB01D7
:103E3000D9CF63CC0895009799F480913B05909178
:103E40003C052FEFFB012083892B59F020913A0587
:103E500030E02F5F3F4F2417350719F4CB01C2CF55
:103E60004CCC089523E1AC01249FC001259F900D07
:103E70001124E0914405F0914505E80FF91F2381D5
:103E800034812250310981E02230310508F080E090
:103E900008950F931F93CF93DF93009146051091E0
:103EA0004705D0E0C0E080E00C171D0749F491E021
:103EB000811190E0892FDF91CF911F910F9108958B
:103EC0008111F5CFCE01CEDF2196EECFA091440532
:103ED000B0914505109729F120914605309147058D
:103EE00082179307F0F453E1589F9001599F300DCA
:103EF0001124A20FB31FED91FC911197309789F017
:103F000012968C91681768F48DE0689FE00DF11DA2
:103F1000112480819181892B21F081E092814917C0
:103F200008F080E008959C0143E1429FC001439F57
:103F3000900D1124E0914405F0914505E80FF91F1B
:103F40008385823091F481E090E0658176814091B3
:103F50007102509172026417750711F490E080E0CD
:103F6000892B19F081E0232B09F080E00895FC01F2
:103F7000A081B1818DE0689FA00DB11D1124139621
:103F80004D915C9185859685489F9001499F300DA4
:103F9000589F300D1124C9010196611103C047815A
:103FA00044FD04960895EF92FF920F931F93CF93D1
:103FB000DF93EA01FC01E60FF71F02811381E48021
:103FC000F5804F2D6E2DC80181DF81110DC082E07B
:103FD00090E0998388838EEF9FEFDF91CF911F91BF
:103FE0000F91FF90EF900895C8013CDF882339F0CE
:103FF00082E090E09983888388EF9FEFEECF109363
:10400000780200937702E0927902F0927A0281E0DE
:1040100090E09983888390E080E0DFCFCF92DF92B9
:10402000EF92FF920F931F93CF93DF937A01EC01EE
:10403000C60FD71FC0907702D09078020091790206
:1040400010917A02412F602FC60140DF811110C00C
:1040500082E090E0F701918380838AEF9FEFDF9108
:10406000CF911F910F91FF90EF90DF90CF90089527
:10407000C601F8DE882341F082E090E0F7019183E9
:10408000808388EF9FEFEBCF4C815D816E817F81D4
:104090009A8189818F3F41F082E090E0F70191831E
:1040A00080838EEF9FEFDBCFE3E1EC9D9001ED9DF0
:1040B000300D1124E0914405F0914505E20FF31F06
:1040C0000190F081E02D2DE0029FE00DF11D112403
:1040D0000190F081E02D27E0129FE00DF11D1124E9
:1040E000808391838B81828343835483658376832A
:1040F0001F5F10937A0281E090E0F7019183808343
:1041000090E080E0ACCFEF92FF920F931F93CF939C
:10411000DF937A018C01060F171FC0914405D091DF
:104120004505209781F021E030E0F80182819381FC
:1041300040914605509147058417950710F030E0EF
:1041400020E0232B71F482E090E0F70191838083DB
:104150008EEF9FEFDF91CF911F910F91FF90EF9026
:10416000089543E1489F9001499F300D1124C20FEB
:10417000D31F78DE882341F082E090E0F70191833D
:10418000808388EF9FEFE6CFF801248135812038C6
:104190003105C8F687818111D6CF4181842F90E007
:1041A0008F7E009741F082E090E0F7019183808359
:1041B00086EF9FEFCFCF4F833E832D8326812887C5
:1041C0001986223010F421E0288721E030E0F70141
:1041D00031832083BFCF88E090E0FA019183808310
:1041E00090E080E00895FB018FEF808381E181837F
:1041F0008FEF9FEF9383828380E890E095838483A1
:10420000168217820895FB018FEF808391E09183DE
:1042100082839383848384E3858381E090E0978322
:1042200086830895DF92EF92FF920F931F93CF93AF
:10423000DF93EA01FC01E60FF71F8181813071F005
:1042400082E090E0998388838FEF9FEFDF91CF9199
:104250001F910F91FF90EF90DF90089582819381DD
:10426000D4802581E680F7800091440510914505B2
:104270000115110539F482E090E0998388838CEF71
:104280009FEFE4CF4091460550914705841795076D
:1042900038F082E090E0998388838EEF9FEFD6CF4D
:1042A000892B39F082E090E09983888386EF9FEF35
:1042B000CDCF8D2D8D7FB1F72130A1F781E0D110C9
:1042C00006C091E0E916F10431F080E004C0E2E0BC
:1042D000EE16F104D0F3882329F390E080E0C2DDEC
:1042E000882339F082E090E09983888388EF9FEFFC
:1042F000ADCFF801D38681E08487F686E586108A03
:10430000178681E090E09983888390E080E09ECFDB
:104310004CE050E064EF72E057CA8F929F92BF92D8
:10432000CF92DF92EF92FF920F931F93CF93DF9381
:10433000EA01FC01E60FF71F828193810481B580B9
:10434000E0914405F0914505309791F482E090E0CA
:10435000998388838CEF9FEFDF91CF911F910F910D
:10436000FF90EF90DF90CF90BF909F908F90089537
:1043700020914605309147058217930738F082E077
:1043800090E0998388838EEF9FEFE6CF23E1289F0B
:104390006001299FD00C1124EC0DFD1DE080F180FF
:1043A000E114F10499F28281081748F78DE0089F23
:1043B00080011124E00EF11EF70180819181892B8B
:1043C00029F6BB20E1F2F7E0BF9E40011124C401B1
:1043D0000E94C72DF70191838083E0914405F091FD
:1043E0004505EC0DFD1D0190F081E02DE00FF11F62
:1043F00080819181009739F482E090E099838883ED
:104400008DEF9FEFA9CFA40170E060E00E94824190
:104410008091440590914505C80ED91EF601808112
:104420009181080F191FF801B28281E090E0998311
:10443000888390E080E090CFAF92BF92CF92DF92DE
:10444000FF920F931F93CF93DF93EA01FC01E60FD6
:10445000F71F82819381F4800091440510914505F6
:104460000115110581F482E090E0998388838CEF37
:104470009FEFDF91CF911F910F91FF90DF90CF9031
:10448000BF90AF900895209146053091470582175F
:10449000930738F082E090E0998388838EEF9FEF56
:1044A000E8CF2FEF2F0D2C3FA8F723E1289F6001C5
:1044B000299FD00C11240C0D1D1DF80180819181C4
:1044C000892B89F6FDE0FF9E50011124C5010E9451
:1044D000C72DF80191838083E0914405F091450553
:1044E000EC0DFD1D80819181009739F482E090E010
:1044F000998388838DEF9FEFBCCFA50170E060E0CA
:104500000E948241E0914405F0914505EC0DFD1DAE
:10451000F28281E090E09983888390E080E0A9CFE7
:10452000CF92DF92EF92FF920F931F93CF93DF937F
:10453000860F971FFC0102811381809144059091A1
:104540004505892B81F082E090E0FA019183808318
:104550008CEF9FEFDF91CF911F910F91FF90EF9024
:10456000DF90CF900895C801B0E0A0E00197A109C5
:10457000B1098F3F9F4FA105B10540F082E090E067
:10458000FA01918380838EEF9FEFE4CF7A0183E17C
:10459000809F6001819FD00C1124C6010E94C72D0D
:1045A000EC01009741F482E090E0F7019183808371
:1045B0008DEF9FEFCFCFA60170E060E00E948241B7
:1045C000D0934505C09344051093470500934605D5
:1045D00090E080E02FEF3FEF41E061E070E0801776
:1045E000910741F481E090E0F7019183808390E0AE
:1045F00080E0B0CF3A8B298B1B864C877E876D87F6
:10460000188A1F8601966396EACFEF92FF921F9356
:10461000CF93DF93EC0110E0F12CE12C6A811617A7
:10462000B0F083E0689FB0011124AE014F5E5F4F90
:10463000C7010E942C2E009721F02FEF3FEF3A8BFD
:10464000298BDF91CF911F91FF90EF900895612FFB
:10465000CE018DDC61E070E00E94742CE816F90652
:1046600008F47C011F5FDACFF89420914205309165
:10467000430581E02115310509F080E0232B09F085
:10468000789408952F923F924F925F926F927F920B
:104690008F929F92AF92BF92CF92DF92EF92FF9252
:1046A0000F931F93CF93DF933C01660E771EF301A8
:1046B000828193814C01B12CA12CC0914405D091F1
:1046C0004505209769F021E030E060914605709142
:1046D00047058617970710F030E020E0232BD1F430
:1046E00082E090E0FA01918380838EEF9FEFDF916B
:1046F000CF911F910F91FF90EF90DF90CF90BF90DF
:10470000AF909F908F907F906F905F904F903F9071
:104710002F90089580927B0290927C02A0927D025D
:10472000B0927E0263E1689F9001699F300D112471
:10473000C20FD31FF3018181833040F082E090E00B
:10474000FA019183808386EF9FEFD1CF2A012B81DD
:104750003C81232BF1F4288139819F8191FF2EC068
:10476000232B09F46FC0209149059A81422F490FEC
:104770005527551FBA0141E050E06138710514F02A
:1047800050E040E0452B09F45DC02A87920F9093DA
:1047900049058150823008F481C066DF882309F41E
:1047A000D8C0F3018181813009F48DC008F47BC049
:1047B000823009F4C6C090E080E0ADC0232B09F43C
:1047C00041C0209148059A81E22FE90FFF27FF1F82
:1047D00041E050E0ED3FF10514F050E040E0452BA2
:1047E00089F12A87920F90934805D3CFA081B18198
:1047F000A20FB31F11966C91060F111D0196295F30
:104800003F4F8417950794F38D859E85089F10016F
:10481000099F300C189F300C1124C114D104D1F41D
:104820008F8184FF17C00E94C22CF5E02F0E311C2F
:1048300021E08215930508F420E0A701435F5F4F54
:1048400021110EC082E090E0F2019183808387EF16
:104850009FEF4DCF0E94C22C2FEF221A320AE8CFD1
:1048600088819981E80EF91EF70114830383FFEF15
:10487000CF1ADF0A7A018A818C151D0409F00CF425
:104880008CCFE881F981EE0DFF1D428150E030E0D0
:1048900020E010E000E090E080E0B3CFF12CE12CCC
:1048A000D12CC12CE8CF81E090E09C838B83F1DA9E
:1048B000882309F480CF81E090E00E94C61B80E449
:1048C0000E94D41B78CF89899A89019661F083E090
:1048D00090E09C838B8382E090E00E94C61B80E482
:1048E0000E94CE1B68CF8D819E81209171023091F4
:1048F000720282179307D1F460917502709176026B
:10490000AE014F5E5F4F80917302909174020E94DE
:104910004B2F0097E1F2789422E030E0F2013183EE
:104920002083892B99F08DEF9FEFE1CE89288A288B
:104930008B2869F6892B59F6CE0167DE188A1F8607
:10494000E8CF82E090E09C838B8335CF90E080E0DD
:10495000CECE82E090E0F2019183808385EF9FEFDD
:10496000C6CE8F929F92AF92BF92CF92DF92EF927C
:10497000FF920F931F93CF93DF93EA018C01060FF1
:10498000171FF8018181833098F082E090E09983CD
:10499000888386EF9FEFDF91CF911F910F91FF905A
:1049A000EF90DF90CF90BF90AF909F908F90089541
:1049B0008091440590914505892B61F081E090E05C
:1049C0002091460530914705232B11F490E080E0BB
:1049D000892B39F482E090E0998388838EEF9FEFF2
:1049E000DACF42DE882309F4DFC0F801818181300B
:1049F00009F495C0E8F0823099F420914605309191
:104A00004705E0914405F091450590E080E041E0E4
:104A100050E02817390709F0BDC03BDA811117C0F3
:104A2000789481E090E09983888390E080E0B3CF30
:104A30002091460530914705E0914405F0914505E8
:104A400090E080E041E050E02817390741F481E030
:104A500090E00E94C61B80E40E94D41BE1CF6381DA
:104A60007481672B11F05483438301967396ECCFC6
:104A7000E0914405F0914505E00FF11F2381348159
:104A800022303105D9F4218932892F3F3F4FB1F4CB
:104A900025813681409171025091720224173507A9
:104AA00061F5AF014F5E5F4F6091750270917602C4
:104AB00080917302909174020E944B2FEFEFCE1AF7
:104AC000DE0AEE0AFE0A0D5E1F4F40914605509128
:104AD000470570E060E0C416D506E606F7063CF52B
:104AE000009731F27894892B09F49BCF82E090E013
:104AF000998388838DEF9FEF4ECFC114D104E104D9
:104B0000F104E1F6232BD1F6CF017FDDE0914405DE
:104B1000F0914505E00FF11F108A1786CFCF10E006
:104B200000E090E080E0C12CD12C7601CECF009740
:104B3000C9F610E000E0812C912C540183E0E82EAE
:104B4000F12C1AC0E0914405F0914505E00FF11FEA
:104B500083819481029749F4F482E38282E090E0B9
:104B60000E94C61B80E40E94CE1BFFEF8F1A9F0A93
:104B7000AF0ABF0A0D5E1F4F809146059091470511
:104B8000B0E0A0E088169906AA06BB06DCF290E029
:104B900080E0A8CF638174816230710511F4548381
:104BA00043830196739635CF82E090E099838883A2
:104BB00085EF9FEFF0CE0097B9F48FEFFB01808374
:104BC00020917B0230917C0243E1429FC001439FD0
:104BD000900D1124E0914405F0914505E80FF91F6F
:104BE0008285FB01818308950C947D1B88E090E011
:104BF000FA019183808390E080E00895109243054C
:104C000010924205E4E4F5E086E0DF011D928A950A
:104C1000E9F788E891E29093410580934005089573
:104C2000809140059091410508952F923F924F92B7
:104C30005F926F927F928F929F92AF92BF92CF922C
:104C4000DF92EF92FF920F931F93CF93DF93CDB735
:104C5000DEB72F970FB6F894DEBF0FBECDBFF89426
:104C6000E0914205F09143053196F0934305E093BE
:104C700042057894409044055090450541145104F4
:104C800009F40CC2E0914605F0914705EF2B09F4B9
:104C900005C22D8749875A876B877C8798878F83C2
:104CA0001201B12CA12C10E000E0809146059091FA
:104CB0004705A816B90618F40115110529F1F8944D
:104CC000809142059091430501979093430580930D
:104CD00042057894C8012F960FB6F894DEBF0FBE38
:104CE000CDBFDF91CF911F910F91FF90EF90DF909B
:104CF000CF90BF90AF909F908F907F906F905F907C
:104D00004F903F902F9008957101E418F508D1015C
:104D100017968C91179781FD54C013968D919C9195
:104D20001497039709F04DC015968D919C91EF81D2
:104D3000F8858E179F0709F044C0B50190E080E028
:104D40007FD48A8320914405309145053D832C838F
:104D50003D85332309F44CC04C815D81452B09F41A
:104D60009AC18091460590914705A816B90608F0AA
:104D700092C1C501D8D88823E9F06C817D816E0D80
:104D80007F1D7D836C83DB011F968D919C91892B08
:104D900089F0D12CC12CF12CE12CAC81BD81129673
:104DA0008C9112978E151F0409F094F450961C9262
:104DB0001E921F972A81222321F0B50190E080E006
:104DC00041D43FEFA31AB30A43E1240E311C6DCF47
:104DD000AC81BD81ED91FC91EC0DFD1D858196812D
:104DE0000FD7BFEFEB1AFB0AEDE0CE0ED11CD5CFEB
:104DF000EC81FD81309709F44EC180914605909178
:104E00004705A816B90608F046C1EE0DFF1DFF873D
:104E1000EE87C50188D88B83882339F1AE85BF859D
:104E20001F968D919C915097019621E01D964D9172
:104E30005C918417950709F020E02E831982712C6C
:104E400010E000E0AE85BF8512968C91781608F4CC
:104E50005DC0EE85FF85878590890196658576859D
:104E60000E942241908B8787A5CFB1E0BE83E6CF19
:104E7000992493946BC08BD6F6019683858382C068
:104E8000D601ED90FC90B7E06B9EE00CF11C112474
:104E9000F7016381748180818F3F61F121E030E00F
:104EA00002C0220F331F8A95E2F7C901092E000CB8
:104EB000AA0BBB0BFB01408151816281738184236A
:104EC0009523A623B72321E0892B8A2B8B2B09F46A
:104ED00020E0D4012C93D70111968C91F601238503
:104EE0003485820F932F911D880E991E1486138688
:104EF00063949BC0418150E0C4010E947941EBCF93
:104F0000998206EF1FEFC5C01982C3C0F981F11164
:104F1000A0CFEDE07E9E70011124AE85BF85CD90BF
:104F2000DC90CE0CDF1C15D49D838C83BB81BB230E
:104F300009F49ECF81E0EE85FF8527853089232BFC
:104F400009F080E0982E882309F458C0672D8E85DB
:104F50009F850DD8D60118969C938E93179761E084
:104F600070E0C2D4EE85FF85218932892F3F320758
:104F700009F481CFBC01C901CFD7D60116969C9305
:104F80008E931597D60115968D919C911697009743
:104F900009F4B6CFEC81FD818E0F9F1F1A969C936A
:104FA0008E931997AE85BF85ED91FC911197EE0E0A
:104FB000FF1EF70121853285148613861A968C917F
:104FC000870DD9018D93711016C0EE85FF858781FD
:104FD00084FF11C049855A856B857C85F901418321
:104FE000528363837483F701838594850496A80FA5
:104FF000B91F14861386F701B287A187D6011596CB
:105000008D919C911697892B09F443C0EE85FF85FD
:10501000258136818091710290917202281739079B
:1050200079F019968D909C90612CD60112968C91F6
:105030001297681608F424CF1A969C928E921997AC
:10504000BE81BB2309F460CF61E070E0F601878187
:1050500090854AD4D6011796ED90FC901897159636
:105060004D915C91E1E0F0E0BA81BB2311F0F0E0FA
:10507000E0E00C811D819C01B501882799278E1BDA
:105080009F0B6AD38C01892B21F0F60185819681D3
:10509000B7D57394D7CE0FEF1FEF8CCE10E000E0A2
:1050A0000ECE2F923F924F925F926F927F928F928D
:1050B0009F92AF92BF92CF92DF92EF92FF920F93A7
:1050C0001F93CF93DF93809144059091450510E0A5
:1050D00000E0892BA9F0C8DA0AEF1FEF882381F0DE
:1050E0002090460530904705C0914405D091450574
:1050F000D12CC12C10E000E02C143D04A9F47894CC
:10510000C801DF91CF911F910F91FF90EF90DF9039
:10511000CF90BF90AF909F908F907F906F905F9057
:105120004F903F902F900895C6010E94931F8823AF
:1051300009F18B819C810397E9F48F859889892BEC
:10514000C9F0B60190E080E07BD221E030E0882316
:1051500011F030E020E044245524421A530AB12CC7
:10516000A12C912C812C8A818815190409F038F41E
:10517000188A1F864FEFC41AD40A6396BDCFE88100
:10518000F981EA0DFB1D85819681892BA1F161E0F2
:1051900070E087819085A8D33C01DBD28C01E88147
:1051A000F981EA0DFB1D8185928525813681200FCD
:1051B000311FAC01421B530B9A0147815085421BA2
:1051C000530B70E060E00E948241E881F981EA0DB2
:1051D000FB1DE780F084458156819301B601C20131
:1051E000BBD28C01892B39F0E881F981EA0DFB1DD6
:1051F0008581968105D55FEF851A950A8DE0A80E09
:10520000B11CB1CF31CA789408952F923F924F923A
:105210005F926F927F929F92AF92BF92CF92DF92F6
:10522000EF92FF920F931F93CF93DF9300D000D0A4
:10523000CDB7DEB7009144051091450599249394AC
:105240000115110509F43EC0A0904605B090470530
:105250000BDA982E8823B1F110924505109244057F
:105260001092470510924605109248051092490584
:105270008FEF9FEFDC0180937B0290937C02A093E1
:105280007D02B0937E0278947FD31E830D83C12C60
:10529000D12C7601C501B0E0A0E089839A83AB836D
:1052A000BC8322242A94322C89819A81AB81BC81CF
:1052B000C816D906EA06FB06F4F0C801A1D480E4BA
:1052C0000E94D41B892D26960FB6F894DEBF0FBE20
:1052D000CDBFDF91CF911F910F91FF90EF90DF90A5
:1052E000CF90BF90AF909F907F906F905F904F90C6
:1052F0003F902F900895AD81BE8115968D919C9120
:105300001697209171023091720282179307D1F49F
:1053100051968D919C91EED5ED81FE818081918198
:10532000B12CA12C412C512C3201892B89F5BFEFD6
:10533000CB1ADB0AEB0AFB0AED81FE817396FE8332
:10534000ED83B2CFC114D104E104F10429F7892B14
:1053500019F7ED81FE81818992898F3F980709F0C5
:1053600029D5AD81BE8152963C922E925197D4CFD1
:105370008A0D9B1DDC018D919C91009709F040D412
:10538000BFEF4B1A5B0A6B0A7B0AEDE0AE0EB11C55
:10539000AD81BE818D919C91119712964C9150E0F8
:1053A00070E060E044165506660677060CF328D4D4
:1053B000BECFCF93DF93EA0128DF811109C082E0DD
:1053C00090E09983888385EF9FEFDF91CF910895D7
:1053D00081E090E00E94C61B81E090E09983888381
:1053E00090E080E0F2CF11DF10924105109240056D
:1053F000089542E050E06CE373E00C94E41BFF92EC
:105400000F931F93CF93DF938A01EC01C60FD71F31
:10541000F980B9D20897F816190671F068F082E0A1
:1054200090E0F801918380838EEF9FEFDF91CF9121
:105430001F910F91FF9008956C817D818E819F81D6
:105440004B810E94791E811108C082E090E0F80132
:105450009183808384EF9FEFE9CFF9800E94741ECF
:105460004F2D50E0BE01685F7F4F0E9479418981D6
:105470000E94E31E81E090E0F8019183808390E038
:1054800080E0D4CFDF92EF92FF920F931F93CF93E0
:10549000DF938A01EC01C60FD71F0E94741E7C01A6
:1054A000D98071D2DD2059F0029721E030E0D81682
:1054B000190619F010F030E020E0232B79F482E097
:1054C00090E0F801918380838EEF9FEFDF91CF9181
:1054D0001F910F91FF90EF90DF900895EF2841F416
:1054E00082E090E0F8019183808384EF9FEFEECF1C
:1054F000F9800E94741E4F2D50E0BE016E5F7F4FF9
:105500000E94794189810E94E31E81E090E0F801C8
:105510009183808390E080E0D9CF89EF99E29093E6
:105520004B0580934A05089580914A0590914B055B
:1055300008950895FC011182108293838283089557
:10554000DB011D921C92DC011296ED91FC911397E8
:105550007183608313967C936E9312970895FC0178
:1055600080819181DB018D939C93A081B181109703
:1055700041F08D919C9191838083892B11F4F38369
:10558000E2830895FC0180819181DB018D939C93DE
:10559000892B11F473836283718360830895FC0106
:1055A00011821082938382830895CF93DF931F9299
:1055B0001F92CDB7DEB71A821982F894BE016F5FD1
:1055C0007F4F81E595E0CBDF89819A81009709F0D3
:1055D00017D389819A81892B89F7BE016F5F7F4F2D
:1055E00085E595E0BCDF89819A81009709F008D3B1
:1055F00089819A81892B89F778940F900F90DF9198
:10560000CF910895CF93DF931F921F92CDB7DEB74E
:105610001A821982F894BE016F5F7F4F8DE495E086
:105620009EDF89819A81009709F0EAD289819A8167
:10563000892B89F778940F900F90DF91CF9108957F
:1056400081E0089590E080E00895EF92FF920F933B
:105650001F93CF93DF931F921F92CDB7DEB71A82AD
:10566000198280914C0507EF1FEF8823A1F1F89470
:10567000BE016F5F7F4F85E595E071DF789489818A
:105680009A81EE24E394F12C892B51F4F894BE0115
:105690006F5F7F4F81E595E062DF7894F12CE12C1C
:1056A00089819A810EEF1FEF0097A9F0FC014281DA
:1056B000538164E070E076D68C01892B61F0F89418
:1056C00069817A81C701880F991F880F991F8F5AA6
:1056D0009A4F58DF7894C8010F900F90DF91CF91C7
:1056E0001F910F91FF90EF9008950F931F93CF9309
:1056F000DF9300D01F92CDB7DEB71C821B821A82C7
:10570000198280914C0507EF1FEF8823C1F0AE018D
:105710004D5F5F4F64E070E0CE010196B6D68C011C
:10572000892B69F4E981FA818B819C81938382833F
:10573000F89469817A818DE495E002DF7894C8015C
:105740000F900F900F900F90DF91CF911F910F91BD
:105750000895BBD7049608958F929F92AF92BF92FF
:10576000CF92DF92EF92FF920F931F93CF93DF932D
:105770001F921F92CDB7DEB71A821982BC016F5FEC
:105780007F4F6330710598F0AA24AA94BA2CC50102
:105790000F900F90DF91CF911F910F91FF90EF909D
:1057A000DF90CF90BF90AF909F908F90089541155C
:1057B000510551F3480159018A016C01CADF88156E
:1057C000990511F7E114F104F9F28E0D9F1DA81649
:1057D000B906D0F280914C058823F1F0F894B50118
:1057E000645071099701AE014F5F5F4FC801049685
:1057F000E1D65C01892B71F489819A81F801938348
:105800008283C601880F991F880F991FB8018F5A8C
:105810009A4F96DE7894BBCF87EFA82EBB24BA941C
:10582000B6CFAF92BF92CF92DF92EF92FF920F93DB
:105830001F93CF93DF931F921F92CDB7DEB71A82CB
:105840001982892B09F047C06115710509F443C01D
:105850004115510509F43FC02115310509F43BC03C
:1058600001151105C1F180914C058823B9F1790129
:105870006A015B01F894BE016F5F7F4F8DE495E094
:105880006EDE789489819A81009759F1DC01129635
:105890006D917C91A8010496A6D68C01E981FA81CC
:1058A000D501ED93FC93828193810496F601918357
:1058B00080834FDFD7018D939C93C8010F900F9089
:1058C000DF91CF911F910F91FF90EF90DF90CF90DC
:1058D000BF90AF9008950FEF1FEFEFCF07EF1FEFCF
:1058E000ECCF0EEF1FEFE9CFCF93DF93EC01672BE7
:1058F00071F4F4D68C179D0760F0E7D62496C80F94
:10590000D91FE6D68C0F9D1FDF91CF910895E3D666
:10591000F1CF90E080E0F8CF0F931F93CF93DF9308
:1059200020914C0521112BC08B01EC0181E595E004
:1059300001DE85E595E0FEDD8DE495E0FBDD97D0A9
:105940000097C1F4CBD670E060E0CEDF4FE752E0C5
:1059500062E070E081D1009769F480917F029091BC
:105960008002CED6B801CE0103D5009719F421E00C
:1059700020934C05DF91CF911F910F91089584EFF3
:105980009FEFF8CFA8C6AAC6CF93DF93AAD6EC01A3
:10599000892B11F40ADE36DECE01DF91CF91089516
:1059A000CF93DF939ED6EC01892B09F4FEDDCE0167
:1059B000DF91CF91089580917F02909180020895A8
:1059C000CF93DF9380914C05D0E0C0E08823D1F0E5
:1059D0009CD6EC01892BB1F4E8DD14DE80917F02C6
:1059E00090918002E7D1E8D2EC01892B59F481E54E
:1059F00095E0D5DD85E595E0D2DD8DE495E0CFDD60
:105A000010924C05CE01DF91CF910895EF92FF9255
:105A10000F931F93CF93DF93EC017A018B010F5FFC
:105A20001F4F0E9DA0010F9D500D1E9D500D112466
:105A300070E060E00E94824190E080E0F0E0E0E011
:105A40002FEFE816F90639F4DF91CF911F910F91EE
:105A5000FF90EF9008951A8219822883309711F0F1
:105A6000D283C1830196FE01C00FD11FEACFCF922E
:105A7000DF92EF92FF920F931F93CF93DF9302E891
:105A800016E00C7F43E050E061E872E087E892E0C6
:105A90001CD481E8E82E82E0F82E97E8C92E92E027
:105AA000D92EC9E0D7E0D7014D915D917D01F60176
:105AB000619171916F01198308835D834C835B83CE
:105AC0004A837F836E839B012F5F3F4F249FC001DA
:105AD000259F900D349F900D11249987888701157B
