:10000000FAC000000C9443210C946E210C949921A9
:100010000C94C4210C94EF210C941A220C944522C8
:100020000C947022FAC500009BC60000D5C60000E3
:1000300013C1000011C100000FC100000DC100007C
:100040000BC1000009C1000007C1000005C100008C
:1000500003C1000001C10000FFC000000C949B22FE
:10006000FBC000000C9445260C947B26F5C00000D4
:10007000F3C00000F1C00000EFC00000EDC00000C0
:10008000EBC00000E9C00000E7C00000E5C00000D0
:100090000C94D1260C940727DFC000000C94060CAA
:1000A000DBC00000D9C00000D7C00000D5C00000F0
:1000B000D3C00000D1C00000CFC00000CDC0000000
:1000C000CBC00000C9C000000C94CD1D0C945D276E
:1000D0000C949327C1C000000C94E9270C941F28AE
:1000E000BBC0000000000A0B02090C0D0E0807033C
:1000F00004010000000000000000000000000000FB
:1001000000000000000000000000000000000000EF
:1001100012111000000000000000000000000000AC
:100120000000000000000000000001021020200874
:100130000810204010204080020102010804020142
:1001400001020408102040808040201008040201B1
:10015000800402018040201008040201080402010A
:100160000102040810204080010204081020408091
:1001700005050505070508080808020202020A0A23
:100180000808040404040101010101010101030341
:10019000030303030303040707070C0C0C0C0C0CEC
:1001A0000C0C0202020206060606060606060B0BE9
:1001B0000B0B0B0B0B0B00002200250028002B0063
:1001C0002E003100340002010000050108010B017E
:1001D00000002100240027002A002D0030003300F9
:1001E00001010000040107010A0174092D0FA42672
:1001F0003027BC27482811241FBECFEFD1E2DEBF35
:10020000CDBF00E00CBF14E0A0E0B2E0EAE9F6E503
:1002100000E00BBF02C007900D92AA36B107D9F7D4
:1002200028E0AAE6B4E001C01D92AF3FB207E1F7B3
:1002300010E0CBEFD0E000E006C021970109802F4D
:10024000FE010E94CD2AC53FD10780E00807A9F72B
:100250000E943D1E0C944B2BD3CE882311F182308B
:1002600071F08330A9F08130E1F426E030E040E81D
:1002700055E260E070E081E090E00C94B31D26E070
:1002800030E040E855E260E070E082E090E0F5CFD9
:1002900026E030E040E855E260E070E083E090E086
:1002A000ECCF08954F925F926F927F928F929F92C0
:1002B000AF92BF92CF92EF92FF920F931F93CF9383
:1002C000DF93CDB7DEB72B013A01F02EB40130E059
:1002D0002830310511F424E030E00AE010E0CC20B1
:1002E00061F091E000E110E0C91639F0E2E008E0C9
:1002F00010E0CE1611F002E010E0813009F4E8C001
:10030000B0F0823009F4C5C1833009F4A3C2DF9193
:10031000CF911F910F91FF90EF90CF90BF90AF9032
:100320009F908F907F906F905F904F900895F11005
:100330001BC0269DA001279D500D369D500D1124F8
:10034000B20180EA95E0DF91CF911F910F91FF906C
:10035000EF90CF90BF90AF909F908F907F906F90D5
:100360005F904F900C94752880EA95E00E94B12828
:10037000E11014C0640C751C6414750441F2F201A0
:1003800061912F01F1E0A80180EA95E0FF1203C01E
:100390000E948329F1CF0E948929EECF81E0E812E3
:1003A00015C091E0691A710808F4B1CFF2016191AA
:1003B00071912F01F1E0A80180EA95E0FF1203C0DE
:1003C0000E949929EECF0E949E29EBCF82E0E8128D
:1003D00017C091E0691A710808F499CFF2014191B0
:1003E0005191619171912F01F1E0980180EA95E0BE
:1003F000FF1203C00E947729ECCF0E94AE29E9CFFB
:1004000083E0E81218C0640C751C6414750409F4C8
:100410007ECFF20161912F01062E000C770BF1E0E7
:10042000A80180EA95E0FF1203C00E945129EDCF98
:100430000E945729EACF84E0E81215C091E0691ABA
:10044000710808F464CFF201619171912F01F1E01C
:10045000A80180EA95E0FF1203C00E945129EECF67
:100460000E945729EBCF85E0E81217C091E0691A86
:10047000710808F44CCFF201419151916191719151
:100480002F01F1E0980180EA95E0FF1203C00E947D
:100490000C29ECCF0E946729E9CF86E0E81237CF1C
:1004A000B12C91E0691A710808F431CFF201419141
:1004B0005191619171912F01F1E0950180EA95E0F0
:1004C000FF1203C00E949A2AECCF0E949B2AE9CF18
:1004D000F1100BC0269DA001279D500D369D500D9B
:1004E0001124B2018DE396E02ECF8DE396E00E94B9
:1004F000B128E11015C0640C751C4614570409F4AA
:1005000006CFF20161912F01F1E0A8018DE396E0A1
:10051000FF1203C00E948329F0CF0E948929EDCFEA
:1005200081E0E81215C091E0691A710808F4EFCE75
:10053000F201619171912F01F1E0A8018DE396E044
:10054000FF1203C00E949929EECF0E949E29EBCF93
:1005500082E0E81217C091E0691A710808F4D7CE5A
:10056000F20141915191619171912F01F1E0980156
:100570008DE396E0FF1203C00E947729ECCF0E9422
:10058000AE29E9CF83E0E81218C0640C751C64142E
:10059000750409F4BCCEF20161912F01062E000C06
:1005A000770BF1E0A8018DE396E0FF1203C00E94F3
:1005B0005129EDCF0E945729EACF84E0E81215C0F7
:1005C00091E0691A710808F4A2CEF201619171916B
:1005D0002F01F1E0A8018DE396E0FF1203C00E9415
:1005E0005129EECF0E945729EBCF85E0E81217C0C2
:1005F00091E0691A710808F48ACEF2014191519193
:10060000619171912F01F1E098018DE396E0FF1265
:1006100003C00E940C29ECCF0E946729E9CF86E035
:10062000E81275CEB12C91E0691A710808F46FCE0A
:10063000F20141915191619171912F01F1E0FF120D
:1006400014C0C11006C095018DE396E00E949A2A5D
:10065000EACFCB01BA010E94DD1EAB01BC019801BB
:100660008DE396E00E940C29DECFC11006C09501F3
:100670008DE396E00E949B2AD6CFCB01BA010E945F
:10068000DD1EAB01BC0198018DE396E00E94672955
:10069000CACFF1100BC0269DA001279D500D369D9D
:1006A000500D1124B2018AED96E04DCE8AED96E010
:1006B0000E94B128E11015C0640C751C4614570443
:1006C00009F425CEF20161912F01F1E0A8018AED34
:1006D00096E0FF1203C00E948329F0CF0E9489296F
:1006E000EDCF81E0E81215C091E0691A710808F4B5
:1006F0000ECEF201619171912F01F1E0A8018AED16
:1007000096E0FF1203C00E949929EECF0E949E2915
:10071000EBCF82E0E81217C091E0691A710808F483
:10072000F6CDF20141915191619171912F01F1E06A
:1007300098018AED96E0FF1203C00E947729ECCF62
:100740000E94AE29E9CF83E0E81218C0640C751C42
:100750006414750409F4DBCDF20161912F01062EBA
:10076000000C770BF1E0A8018AED96E0FF1203C0C0
:100770000E945129EDCF0E945729EACF84E0E81268
:1007800015C091E0691A710808F4C1CDF2016191B8
:1007900071912F01F1E0A8018AED96E0FF1203C0EC
:1007A0000E945129EECF0E945729EBCF85E0E81235
:1007B00017C091E0691A710808F4A9CDF2014191BE
:1007C0005191619171912F01F1E098018AED96E0CC
:1007D000FF1203C00E940C29ECCF0E946729E9CFC9
:1007E00086E0E81294CDB12C91E0691A710808F402
:1007F0008ECDF20141915191619171912F01F1E002
:10080000FF1214C0C11006C095018AED96E00E9447
:100810009A2AEACFCB01BA010E94DD1EAB01BC01CE
:1008200098018AED96E00E940C29DECFC11006C027
:1008300095018AED96E00E949B2AD6CFCB01BA01A2
:100840000E94DD1EAB01BC0198018AED96E00E947A
:100850006729CACFF1100BC0269DA001279D500D1E
:10086000369D500D1124B20187E797E06CCD87E7E4
:1008700097E00E94B128E11015C0640C751C641447
:10088000750409F444CDF20161912F01F1E0A80152
:1008900087E797E0FF1203C00E948329F0CF0E94F0
:1008A0008929EDCF81E0E81215C091E0691A71083D
:1008B00008F42DCDF201619171912F01F1E0A801B1
:1008C00087E797E0FF1203C00E949929EECF0E94AC
:1008D0009E29EBCF82E0E81217C091E0691A7108F7
:1008E00008F415CDF20141915191619171912F015F
:1008F000F1E0980187E797E0FF1203C00E94772993
:10090000ECCF0E94AE29E9CF83E0E81218C0640C56
:10091000751C6414750409F4FACCF20161912F017D
:10092000062E000C770BF1E0A80187E797E0FF1295
:1009300003C00E945129EDCF0E945729EACF84E0DD
:10094000E81215C091E0691A710808F4E0CCF201D0
:10095000619171912F01F1E0A80187E797E0FF1203
:1009600003C00E945129EECF0E945729EBCF85E0AA
:10097000E81217C091E0691A710808F4C8CCF201B6
:1009800041915191619171912F01F1E0980187E7B7
:1009900097E0FF1203C00E940C29ECCF0E94672948
:1009A000E9CF86E0E812B3CCB12C91E0691A710866
:1009B00008F4ADCCF20141915191619171912F01F7
:1009C000F1E0FF1214C0C11006C0950187E797E05F
:1009D0000E949A2AEACFCB01BA010E94DD1EAB0128
:1009E000BC01980187E797E00E940C29DECFC11077
:1009F00006C0950187E797E00E949B2AD6CFCB01DE
:100A0000BA010E94DD1EAB01BC01980187E797E0A7
:100A10000E946729CACF9CB1892F807294FF16C0AB
:100A2000811116C080916E0490916F04A0917004A2
:100A3000B09171040196A11DB11D80936E04909335
:100A40006F04A0937004B093710408958111EACFEC
:100A500080916E0490916F04A0917004B091710424
:100A60000197A109B109E9CF99B1892F847093FF4A
:100A700016C08823B1F080917C0490917D04A091F0
:100A80007E04B0917F040196A11DB11D80937C046A
:100A900090937D04A0937E04B0937F0408958823EF
:100AA00051F380917C0490917D04A0917E04B091DB
:100AB0007F040197A109B109E9CF8CB190E09C01B5
:100AC000220F232F221F330B86FF16C080918A042A
:100AD00090918B04A0918C04B0918D04232BB9F4D8
:100AE0000196A11DB11D80938A0490938B04A0935D
:100AF0008C04B0938D04089580918A0490918B04A6
:100B0000A0918C04B0918D042130310549F30197F7
:100B1000A109B109E8CF9CB1892F807195FF16C05A
:100B20008823B1F080916E0490916F04A0917004BD
:100B3000B09171040196A11DB11D80936E04909334
:100B40006F04A0937004B09371040895882351F347
:100B500080916E0490916F04A0917004B091710423
:100B60000197A109B109E9CF99B1892F887092FF46
:100B700016C0811116C080917C0490917D04A091D3
:100B80007E04B0917F040196A11DB11D80937C0469
:100B900090937D04A0937E04B0937F040895811107
:100BA000EACF80917C0490917D04A0917E04B09165
:100BB0007F040197A109B109E9CF8CB190E086FBD0
:100BC000222720F930E0880F892F881F990B019781
:100BD000B1F480918A0490918B04A0918C04B0911F
:100BE0008D04232BB1F00196A11DB11D80938A04C1
:100BF00090938B04A0938C04B0938D0408958091FE
:100C00008A0490918B04A0918C04B0918D04232BC5
:100C100051F30197A109B109E9CF1F920F920FB6C5
:100C20000F9211242F933F934F935F938F939F9332
:100C3000AF93BF9383B121E030E0982F907285FD90
:100C400002C030E020E080744091AE045091AF04C7
:100C50004217530709F062C021E030E0811102C061
:100C600030E020E03093AD042093AC04882309F1F8
:100C7000911121C08091A6049091A704A091A8048D
:100C8000B091A9040196A11DB11D8093A604909373
:100C9000A704A093A804B093A9048091A6049091FE
:100CA000A704A091A804B091A9040196A11DB11DAB
:100CB00020C09111DFCF8091A6049091A704A0914C
:100CC000A804B091A9040197A109B1098093A604D1
:100CD0009093A704A093A804B093A9048091A604BC
:100CE0009091A704A091A804B091A9040197A1092B
:100CF000B1098093A6049093A704A093A804B0938D
:100D0000A904BF91AF919F918F915F914F913F91B6
:100D10002F910F900FBE0F901F9018953093AF0436
:100D20002093AE04992371F0882371F08091A6047A
:100D30009091A704A091A804B091A9040196A11DC7
:100D4000B11DC4CF882391F38091A6049091A7048C
:100D5000A091A804B091A9040197A109B10995CF68
:100D60001F920F920FB60F9211248F939F93AF9300
:100D7000BF938091060181709091030190FF1EC086
:100D800081111EC08091980490919904A0919A04B9
:100D9000B0919B040196A11DB11D8093980490937E
:100DA0009904A0939A04B0939B04BF91AF919F9133
:100DB0008F910F900FBE0F901F9018958111E2CF69
:100DC0008091980490919904A0919A04B0919B0409
:100DD0000197A109B109E1CF1F920F920FB60F92AF
:100DE00011248F939F93AF93BF93809103018170E0
:100DF0009091060190FF1EC08823F1F08091980425
:100E000090919904A0919A04B0919B040196A11D20
:100E1000B11D8093980490939904A0939A04B09381
:100E20009B04BF91AF919F918F910F900FBE0F9038
:100E30001F901895882311F380919804909199043C
:100E4000A0919A04B0919B040197A109B109E1CF47
:100E50000F931F93CF93DF938C018EE0809FE0016F
:100E6000819FD00D1124C659DB4F798368835B8342
:100E70004A838881998160E00E94B2248A819B81A3
:100E800060E00E94B2248881998161E00E94EE2492
:100E90008A819B8161E00E94EE240230110509F4F1
:100EA00087C064F40115110501F10130110509F441
:100EB00050C0DF91CF911F910F910895033011051C
:100EC00009F4A5C004301105A1F780916800816084
:100ED0008093680080916B00806280936B008091AA
:100EE0006B00806480936B00E4CF80916A049091E2
:100EF0006B0402978431910530F58F5D9B4FFC01A7
:100F00008081082E000C990B41E050E06BE075E009
:100F10000E94C92080916C0490916D0402978431E5
:100F20009105A0F48F5D9B4FFC018081082E000C81
:100F3000990B41E050E06BE875E0DF91CF911F9194
:100F40000F910C94C9208FEF9FEFDECF8FEF9FEFB3
:100F5000F0CF8091780490917904029784319105C3
:100F600008F58F5D9B4FFC018081082E000C990BCA
:100F700041E050E064EB75E00E94C92080917A0462
:100F800090917B0402978431910578F48F5D9B4F9B
:100F9000FC018081082E000C990B41E050E064E3D5
:100FA00075E0CBCF8FEF9FEFE3CF8FEF9FEFF5CFC4
:100FB000809186049091870402978431910508F509
:100FC0008F5D9B4FFC018081082E000C990B41E046
:100FD00050E06DE575E00E94C920809188049091F1
:100FE000890402978431910578F48F5D9B4FFC0151
:100FF0008081082E000C990B41E050E06DED75E00A
:101000009CCF8FEF9FEFE3CF8FEF9FEFF5CF8091D6
:10101000680084608093680080916800826080939B
:10102000680080916D00816080936D0080916C00FC
:10103000826080936C003DCF2EE0269FF001279FB9
:10104000F00D1124E659FB4F6481758186819781EB
:10105000089590E080E008958091E4049091E50483
:10106000891B990B08959091E5048091E4042FEF7A
:101070003FEF981748F4E92FF0E0EA51FB4F208149
:1010800030E09F5F9093E504C9010895E091E50485
:101090008091E404E81730F4F0E0EA51FB4F8081DE
:1010A00090E008958FEF9FEF08950895CF93DF9319
:1010B000EC01E091BC04F091BD043097F1F0909107
:1010C000E5048091E4049817C0F090E0292F30E007
:1010D0002617370754F4DE01A20FB31F4C912A5193
:1010E0003B4FD9014C939F5FF1CF1092E504609381
:1010F000E404CB01DF91CF911994DF91CF91089552
:10110000E091BE04F091BF04309729F01092C20420
:101110001092C10419940895CF93DF931F92CDB715
:10112000DEB769832091C0042223F9F02091C10425
:10113000203258F021E030E0FC013383228390E03C
:1011400080E00F90DF91CF9108958091C204E82F45
:10115000F0E0ED53FB4F998190838F5F8093C20441
:101160008093C10481E090E0ECCF61E0CE01019674
:10117000F7D0F8CFCF92DF92EF92FF920F931F93A9
:10118000CF93DF937C01CB018A012091C0042223FD
:1011900089F0EB016B01C40ED51ECC15DD0561F0A5
:1011A0006991D701ED91FC910190F081E02DC7018B
:1011B0001995F3CF642FD4D0C801DF91CF911F913F
:1011C0000F91FF90EF90DF90CF9008951092E5047B
:1011D0001092E4041092C2041092C10496D080E8E8
:1011E00098E0EAD086E598E0E2C081E08093C00410
:1011F0006093E3041092C2041092C10408950F9307
:10120000062F21E04091C10463EC74E08091E30477
:10121000D5D11092C2041092C1041092C0040F9153
:1012200008954F925F926F927F92AF92BF92CF924A
:10123000EF92FF920F931F93CF93DF935C01F62EF3
:10124000D42F28013901EE2009F1CFDFCE2DC43093
:1012500008F0C3E0C150B8F028E0C29FC0011124DB
:10126000A301920104C056954795379527958A9515
:10127000D2F7B901D501ED91FC910190F081E02DFB
:10128000C5011995E7CF60E0C501B9DF4D2FD13217
:1012900008F040E22C2D66EE74E08F2DACD0109259
:1012A000E5048093E404DF91CF911F910F91FF90AB
:1012B000EF90CF90BF90AF907F906F905F904F90E6
:1012C0000895CF92EF920F931F93C22EE12C00E06E
:1012D00010E09801A6DF1F910F91EF90CF90089535
:1012E00021E0EFCF61E08BCFE0EBF4E013821282DC
:1012F00088EE93E0A0E0B0E084839583A683B78373
:1013000089E394E09183808308951092790581E0C8
:10131000809377051092760561E084E10E94EE24C7
:1013200061E085E10E94EE24E9EBF0E080818E7FB0
:10133000808380818D7F808388E48093B80085E4FA
:101340008093BC000895ECEBF0E080818A7B808381
:1013500060E084E10E94EE2460E085E10C94EE24DC
:1013600020912805260F3327331F21323105ECF455
:1013700020917905FC0190E080E0243069F082E062
:101380000895A09128052191AC01465D5A4FA40F04
:10139000B52FB11D2C930196861798F380912805DF
:1013A000680F6093280580E0089581E00895909388
:1013B0006D0580936C05089590936F0580936E057D
:1013C000089585EC8093BC00109279050895CF9321
:1013D000DF9391E090937105882351F0C091B8009C
:1013E000D091BA00B0DF91DFD093BA00C093B800BB
:1013F000DF91CF9108954F925F926F927F928F927B
:101400009F92AF92BF92CF92DF92EF92FF920F9393
:101410001F93CF93DF93D82F162F072FC42FB22EF1
:10142000413208F0A2C00E94F1226B017C01809140
:101430007905811176C081E080937905B0927705B6
:101440009FEF9093060510924B059C0F90934A05D1
:101450008093780580917805DD0FD82BD09378059F
:1014600080917605813009F082C0109276050E9445
:10147000F1226B017C01809178058093BB00809103
:10148000720590917305A0917405B0917505892B33
:101490008A2B8B2BA1F00E94F122809072059090F4
:1014A0007305A0907405B09075056C197D098E09BF
:1014B0009F0986169706A806B90608F453C08091BE
:1014C000BC0083FDD8CF85EC8093BC000E94F12244
:1014D0006B017C0180917905813009F44AC08091CB
:1014E0004B058C1710F4C0914B05ACE4B5E0912F7F
:1014F000E12FF02F8E2F891B8C1708F45CC08C2FE6
:10150000DF91CF911F910F91FF90EF90DF90CF90DF
:10151000BF90AF909F908F907F906F905F904F9013
:1015200008958091720590917305A0917405B09112
:101530007505892B8A2B8B2B09F479CF0E94F12218
:101540004090720550907305609074057090750519
:101550006C197D098E099F0946165706680679069B
:1015600008F065CF8091700532DFC0E0C8CF85EE0E
:10157000ABCF8091720590917305A0917405B091E5
:101580007505892B8A2B8B2B09F4A4CF0E94F1229D
:101590008090720590907305A0907405B0907505C9
:1015A0006C197D098E099F0986169706A806B9064B
:1015B00008F090CFD7CF8D9181939CCF4F925F92BF
:1015C0006F927F928F929F92AF92BF92EF92FF9213
:1015D0000F931F93CF93DF93413208F0D8C0F22EC0
:1015E000D42FE72E162FC82F0E94F1224B015C0149
:1015F00080917905811170C082E080937905009314
:1016000077058FEF8093060510924B05D0934A051E
:10161000912FACE4B5E0E12FFE2D8E2F891B8D17A5
:1016200008F48EC01092780580917805CC0FC82BF5
:10163000C093780580917605813009F084C01092BE
:1016400076050E94F1224B015C0180917805809320
:10165000BB008091720590917305A0917405B091C3
:101660007505892B8A2B8B2BA1F00E94F12200910A
:1016700072051091730520917405309175056819F4
:1016800079098A099B09061717072807390708F4FB
:1016900044C08091BC0083FDD8CF85EC8093BC0012
:1016A0000E94F1224B015C01FF2029F08091790515
:1016B000823009F44AC0809106058F3F09F469C061
:1016C00080910605803209F466C08091060580335A
:1016D00009F463C084E025C0809172059091730580
:1016E000A0917405B0917505892B8A2B8B2B09F479
:1016F0007FCF0E94F1224090720550907305609058
:10170000740570907505681979098A099B09461650
:1017100057066806790608F06BCF8091700557DE92
:1017200085E0DF91CF911F910F91FF90EF90BF90D7
:10173000AF909F908F907F906F905F904F900895A3
:1017400081918D936ACF85EEA9CF8091720590919A
:101750007305A0917405B0917505892B8A2B8B2B8D
:1017600009F4A2CF0E94F122009172051091730535
:101770002091740530917505681979098A099B09CA
:10178000061717072807390708F08ECFC6CF81E064
:10179000C8CF80E0C6CF82E0C4CF83E0C2CF85ED62
:1017A0008093BC008091720590917305A09174059F
:1017B000B09175050796A11DB11D23E0B695A795BB
:1017C000979587952A95D1F72091BC0024FD03C0F9
:1017D00010927905089540917205509173056091BA
:1017E000740570917505452B462B472B69F30097BF
:1017F000A105B10541F025E32A95F1F70000019715
:10180000A109B109E1CF80917005E1CD1F920F923E
:101810000FB60F9211240BB60F922F933F934F9355
:101820005F936F937F938F939F93AF93BF93EF9348
:10183000FF938091B900887F803609F44CC008F08E
:101840003FC0883209F4A8C028F5803109F49CC053
:10185000C8F4882309F4F8C0883009F495C0FF91D2
:10186000EF91BF91AF919F918F917F916F915F9118
:101870004F913F912F910F900BBE0F900FBE0F9085
:101880001F901895883109F487C0803241F7809302
:10189000060514C0803409F49CC040F48033B9F3C9
:1018A0008833E9F6809306058CDDD9CF803509F4BD
:1018B00084C0883509F495C0883489F670DFCFCFAD
:1018C000883909F48CC038F5883729F050F4883607
:1018D00011F0803721F683E0809379051092070597
:1018E00057C0883809F47BC0803919F0803809F076
:1018F000B6CF80910705803208F071C0E0910705EE
:1019000081E08E0F809307058091BB00F0E0E85FD7
:10191000FA4F80833DC0803B39F0E0F4803A09F40F
:1019200079C0883A09F09BCF84E0809379051092C2
:10193000290510922805E0916E05F0916F05199523
:101940008091280581110FC081E0809328051092B5
:101950002A0509C0803C09F475C0883C09F472C0AE
:10196000883B09F07CCFE091290581E08E0F8093C0
:101970002905F0E0E65DFA4F80818093BB009091ED
:1019800029058091280529C0809178058093BB00A6
:1019900085EC8093BC0063CF90914B0580914A0504
:1019A000981758F5E0914B0581E08E0F80934B0519
:1019B000F0E0E45BFA4F8081E9CFE0914B0581E0F4
:1019C0008E0F80934B058091BB00F0E0E45BFA4FF3
:1019D000808390914B0580914A059817C8F285E85D
:1019E000D8CFE0914B0581E08E0F80934B0580911D
:1019F000BB00F0E0E45BFA4F8083809177058111B2
:101A00005DCF81E08093760584EA8093BC001092DC
:101A1000790525CFD6DC80910705803230F4E0913E
:101A20000705F0E0E85FFA4F10826091070570E06B
:101A3000E0916C05F0916D0588E095E019951092A4
:101A400007050DCF85ECE1CF1092060537CFFF9249
:101A50000F931F93CF93DF93C62F042FF22E132FD4
:101A6000682F80EB94E0C1DB6C2F80EB94E054DBBB
:101A7000CF2DD12F0C0F1D2F111DC017D10729F00D
:101A8000699180EB94E048DBF8CF80EB94E02ADCAE
:101A900091E0811190E0892FDF91CF911F910F91FB
:101AA000FF900895CF93DF931F92CDB7DEB74983A0
:101AB0009E012F5F3F4F41E0CADF0F90DF91CF9132
:101AC00008952F923F924F925F926F927F928F92E2
:101AD0009F92AF92BF92CF92DF92EF92FF920F93BD
:101AE0001F93CF93DF9300D0CDB7DEB7E82E698385
:101AF0004B8369010E94E5224B015C01F12C1A82A3
:101B00002B81222E312C2801712C612C8B81F8160F
:101B100008F044C06E2D80EB94E067DB698180EBB8
:101B200094E0FADA80EB94E0DDDB6E2D80EB94E05C
:101B30005CDBA1014F1951094132510514F040E21B
:101B400050E06E2D80EB94E0CBDB80EB94E084DA08
:101B5000892BD9F00115110569F480EB94E083DA43
:101B6000F6019A81E90FF11D97FDFA9580839F5F39
:101B70009A83EBCF0E94E522681979098A099B09AB
:101B8000641575058605970540F380EB94E0AADBA4
:101B90008B81813208F080E2F80EB8CF0115110573
:101BA000C1F00E94E522681979098A099B0930E091
:101BB00020E0601771078207930758F02A81822F6F
:101BC000220F990B2B812817190619F014F08FEFAB
:101BD0008A838A810F900F900F90DF91CF911F9190
:101BE0000F91FF90EF90DF90CF90BF90AF909F90BC
:101BF0008F907F906F905F904F903F902F900895BF
:101C00000F931F9389019A0141E05BDF1F910F91B0
:101C10000895EF92FF920F931F93CF93DF931F923C
:101C2000CDB7DEB7182F062FE42EF22E209100023A
:101C300030910102AE014F5F5F4FE2DF81E090E043
:101C400001C0880FEA94EAF74981FF2069F0482B28
:101C50004983602F812F26DF0F90DF91CF911F9155
:101C60000F91FF90EF90089580954823F1CFDF9278
:101C7000EF92FF920F931F93CF93DF931F92CDB7F5
:101C8000DEB7F82EE62E142FD22E209100023091CE
:101C90000102AE014F5F5F4FB3DF882351F1812F07
:101CA0008D19990BAC014F5F5F4F81E090E002C04E
:101CB000880F991FDA94E2F70197042E01C0880F6C
:101CC0000A94EAF701C0000F4A95EAF7482F4095B9
:101CD000998149238023482B49836E2D8F2DE2DE85
:101CE0000F90DF91CF911F910F91FF90EF90DF90B8
:101CF000089580E0F5CF28E6FC01208308950F9336
:101D0000062F23E042E06AE1FC018081B0DF0F9101
:101D100008950F93062F22E044E06BE1FC018081DF
:101D2000A6DF0F9108950F93062F22E044E06CE1A7
:101D3000FC0180819CDF0F9108950F931F93CF9337
:101D4000DF93EC0100910002109101029C012F5FD2
:101D50003F4F42E063E48881B4DE89819A8198270D
:101D600089279827DF91CF911F910F9108950F93A5
:101D70001F93CF93DF93EC010091000210910102B9
:101D80009C012F5F3F4F42E065E488819ADE8981A4
:101D90009A81982789279827DF91CF911F910F91DA
:101DA00008950F931F93CF93DF93EC0100910002EE
:101DB000109101029C012F5F3F4F42E067E4888150
:101DC00080DE89819A81982789279827DF91CF9192
:101DD0001F910F910895262F46E06BE6FC0180814C
:101DE00018CF0F93062F23E042E06BE6FC018081C1
:101DF0003EDF0F910895CF93DF93EC0161E0F1DFB7
:101E000060E0CE0186DF60E0CE018DDF60E0CE01D4
:101E1000DF91CF91E0CFCF93C82F80EB94E0D6D95C
:101E20006C2F8AE795E06BDF8AE795E0CF91E3CFEF
:101E3000CF93DF93EC018AE795E07FDF9983888376
:101E40008AE795E094DF9B838A838AE795E0A9DFA0
:101E50009D838C83DF91CF9108958AE795E04BCFE6
:101E6000611102C00C94B2246130E1F362E0FACF58
:101E7000662319F061E00C94EE2460E0FCCFCF9271
:101E8000DF92EF92FF92CF93882351F16A017B0199
:101E9000CFEFC80F20E030E0A901CB01B6010E94CE
:101EA000D91E87FF11C0C701B60190580E94E21EDB
:101EB0009B01AC016C2F70E090E080E0CF91FF902F
:101EC000EF90DF90CF90B2C0C701B6010E94DD1E37
:101ED0008C2FCF91FF90EF90DF90CF900C947823D0
:101EE000CF91FF90EF90DF90CF9008950F931F93C5
:101EF0008B019C0183E036952795179507958A9568
:101F0000D1F707571A4F462F477021E030E0F9010B
:101F100002C0EE0FFF1F4A95E2F7AF01F8012081E2
:101F20002423CB010196211102C090E080E01F9193
:101F30000F9108950F931F938B019C0183E03695B9
:101F40002795179507958A95D1F7677081E090E0FE
:101F500001C0880F6A95EAF7F801E757FA4F208128
:101F6000452B31F48095822380831F910F91089532
:101F7000822BFACF2F923F924F925F926F927F9275
:101F80008F929F92AF92BF92CF92DF92EF92FF9289
:101F90000F931F93CF93DF93D62EC72E782E692EE3
:101FA00049015A01280161E08D2D0E94B224CD2DF6
:101FB000DC2D8E010F5F1F4FA8016D2D7C2D872D0D
:101FC000962DB8DF20E030E0A901C201B7010E94E0
:101FD0006120181664F4C201B7010E94E21E2B01B1
:101FE000C501B4010E94E21EA201CE0123D0C801A6
:101FF000DF91CF911F910F91FF90EF90DF90CF90E5
:10200000BF90AF909F908F907F906F905F904F9018
:102010003F902F900895882341F08150682F70E001
:1020200090E080E050E040E085CF0895862FB90130
:102030000C9478239C01FC01EC51FF4FE491E1509A
:10204000E231E0F4F0E08827E75DFF4E8F4F0C941B
:10205000CD2A3B10421045105C1071103E108610C6
:1020600092109610AD10C210D710EE1003113E1052
:1020700018112F11441184B5806884BD60E0822F4F
:102080000C94EE2484B58062F8CF809180008C7F20
:1020900082608093800080918100807E8061682BC7
:1020A0006093810050938700409386008091800068
:1020B000806880938000E2CF809180008C7F826076
:1020C0008093800080918100807E8061682B609386
:1020D0008100509387004093860080918000806249
:1020E000E8CF809180008C7F826080938000809117
:1020F0008100807E8061682B60938100509387000F
:1021000040938600809180008860D3CF8091B0009A
:1021100080688093B0008091B100887F682B6093C5
:10212000B100ACCF8091B0008062F3CF809190007D
:102130008C7F82608093900080919100807E80618E
:10214000682B609391005093970040939600809184
:10215000900080688093900091CF809190008C7F58
:1021600082608093900080919100807E8061682BD6
:102170006093910050939700409396008091900057
:102180008062E8CF809190008C7F82608093900085
:1021900080919100807E8061682B609391005093C4
:1021A000970040939600809190008860D3CF8091F3
:1021B000A0008C7F82608093A0008091A100807E2F
:1021C0008061682B6093A1005093A7004093A60004
:1021D0008091A00080688093A00050CF8091A000E3
:1021E0008C7F82608093A0008091A100807E8061BE
:1021F000682B6093A1005093A7004093A6008091A4
:10220000A0008062E8CF8091A0008C7F82608093E4
:10221000A0008091A100807E8061682B6093A10066
:102220005093A7004093A6008091A0008860D3CF70
:10223000809120018C7F8260809320018091210118
:10224000807E8061682B6093210150932701409329
:102250002601809120018068809320010FCF80911A
:1022600020018C7F82608093200180912101807EFB
:102270008061682B609321015093270140932601D0
:10228000809120018062E8CF809120018C7F826064
:102290008093200180912101807E8061682B609372
:1022A00021015093270140932601809120018860ED
:1022B000D3CF2F923F924F925F926F927F928F92E5
:1022C0009F92AF92BF92CF92DF92EF92FF920F93C5
:1022D0001F93CF93DF93CDB7DEB7E2970FB6F89495
:1022E000DEBF0FBECDBF61E070E080E090E00E94F5
:1022F0001C086093E1087093E2088093E3089093D0
:10230000E4080E94101F2091420330914303409142
:102310004403509145030E94652020912A03309187
:102320002B0340912C0350912D030E9465206B01DB
:102330007C01C092C108D092C208E092C308F0921A
:10234000C4082091460330914703409148035091BF
:1023500049030E9465206D8F7E8F8F8F98A36093B5
:10236000C5087093C6088093C7089093C808209149
:1023700054083091550840915608509157082983C8
:102380003A834B835C8320915203309153034091F5
:1023900054035091550369817A818B819C810E94FD
:1023A00065206DA37EA38FA398A76093C90870933F
:1023B000CA088093CB089093CC0820915C08309198
:1023C0005D0840915E0850915F0860915A037091DA
:1023D0005B0380915C0390915D030E94652020E087
:1023E00030E0A9010E94751E20E030E0A9010E94A2
:1023F000751E20E030E0A9010E94751E69877A876A
:102400008B879C8720916008309161084091620819
:1024100050916308609176037091770380917803FF
:10242000909179030E94652020E030E0A9010E948C
:10243000751E20E030E0A9010E94751E20E030E00A
:10244000A9010E94751E6D837E838F839887609398
:10245000CD087093CE088093CF089093D008209138
:102460006408309165084091660850916708609152
:1024700092037091930380919403909195030E942D
:10248000652020E030E0A9010E94751E20E030E0C8
:10249000A9010E94751E698B7D8B898F9D87209174
:1024A00068083091690840916A0850916B08609102
:1024B000AE037091AF038091B0039091B1030E947D
:1024C000652029853A854B855C852093D10830931A
:1024D000D2084093D3085093D40809891D89298DC7
:1024E0003D850093D5081093D6082093D7083093E4
:1024F000D80820E030E0A9010E94751E1B012C01C4
:102500002092D9083092DA084092DB085092DC0819
:1025100020916C0830916D0840916E0850916F08C1
:102520006091BA037091BB038091BC039091BD038D
:102530000E94652020E030E0A9010E94751E69A379
:102540007AA38BA39CA32091DA023091DB02409105
:10255000DC025091DD02C701B6010E9465204B01EB
:102560005C0120E030E0A90169A17AA18BA19CA1C6
:102570000E94751E9B01AC01C501B4010E94751E2D
:1025800069A37AA38BA39CA3209170083091710852
:1025900040917208509173086091D2037091D303F7
:1025A0008091D4039091D5030E94652020E030E013
:1025B000A9010E94751E20E030E0A9010E94751E4D
:1025C0004B015C012091DE023091DF024091E0027C
:1025D0005091E102C701B6010E9465209B01AC0148
:1025E000C501B4010E94751E69A77AA78BA79CA795
:1025F00020917408309175084091760850917708C1
:102600006091EA037091EB038091EC039091ED03EC
:102610000E94652020E030E0A9010E94751E4B0158
:102620005C012091E2023091E3024091E40250917A
:10263000E502C701B6010E9465209B01AC01C501FE
:10264000B4010E94751E6DA77EA78FA798AB26EEDA
:10265000622E22E0722E08E718E07AAA69AA34E016
:10266000630E711CA9A9BAA990962D913D914D9127
:102670005C91939769A57AA58BA59CA50E9465207E
:102680004B015C01E9A9FAA9208931894289538962
:1026900069A17AA18BA19CA10E9465209B01AC013C
:1026A000C501B4010E94751E4B015C01A9A9BAA91C
:1026B000D0962D913D914D915C91D3976DA57EA5BE
:1026C0008FA598A90E9465209B01AC01C501B401AA
:1026D0000E94751E4B015C01E9A9FAA92081318194
:1026E00042815381C701B6010E9465209B01AC0164
:1026F000C501B4010E94751ED8016D937D938D9321
:102700009D938D01E8E8F8E0EA17FB0709F0A5CFF3
:1027100080910F04813009F007C7C092DD08D09284
:10272000DE08E092DF08F092E00820915008309136
:10273000510840915208509153086D8D7E8D8F8DB8
:1027400098A10E94741E6D837E838F839887209149
:1027500058083091590840915A0850915B086DA172
:102760007EA18FA198A50E94741E1B012C01C98017
:10277000DA80EB80FC802091DD083091DE0840910A
:10278000DF085091E0086091F2037091F3038091AB
:10279000F4039091F5030E9465204B015C012091A8
:1027A000F6033091F7034091F8035091F9036D81DE
:1027B0007E818F8198850E9465209B01AC01C501B7
:1027C000B4010E94751E4B015C012091FA03309107
:1027D000FB034091FC035091FD03B601C7010E9429
:1027E00065209B01AC01C501B4010E94751E6B01FF
:1027F0007C012091FE033091FF0340910004509131
:102800000104C201B1010E9465209B01AC01C70116
:10281000B6010E94751E6B017C0169817A818B81F2
:102820009C819F7720E030E040E45FE30E94D91E66
:1028300087FDBCC660E070E0CB01A70196010E9455
:1028400065206983372E282E9D8320E030E040E20A
:1028500051E40E94751E2DEC3CEC4CE455E40E94C2
:1028600065200E944B1F6093DD087093DE08809303
:10287000DF089093E0080E948A1D882309F49BC614
:102880001092DD081092DE081092DF081092E00826
:10289000C090DD08D090DE08E090DF08F090E008FE
:1028A00020E030E0A901C701B6010E94D91E87FFD0
:1028B000A3C6C701B60190580E94E21E71956195AA
:1028C00071097093990860939A0820E030E040E223
:1028D00051E46091C1087091C2088091C308909141
:1028E000C4080E94751E2DEC3CEC4CE455E40E949B
:1028F00065200E944B1F6093DD087093DE08809373
:10290000DF089093E0080E948A1D882309F478C6A6
:102910001092DD081092DE081092DF081092E00895
:10292000C090DD08D090DE08E090DF08F090E0086D
:1029300020E030E0A901C701B6010E94D91E87FF3F
:1029400080C6C701B60190580E94E21E719561953C
:10295000710970939B0860939C0820E030E040E28E
:1029600051E46091540870915508809156089091F7
:1029700057080E94751E2DEC3CEC4CE455E40E9477
:1029800065200E944B1F6093DD087093DE088093E2
:10299000DF089093E0080E948A1D882309F455C639
:1029A0001092DD081092DE081092DF081092E00805
:1029B000C090DD08D090DE08E090DF08F090E008DD
:1029C00020E030E0A901C701B6010E94D91E87FFAF
:1029D0005DC6C701B60190580E94E21E71956195CF
:1029E000710970939D0860939E0820E030E040E2FA
:1029F00051E469857A858B859C850E94751E2DEC36
:102A00003CEC4CE455E40E9465200E944B1F60930F
:102A1000DD087093DE088093DF089093E0080E9441
:102A20008A1D882309F436C61092DD081092DE084C
:102A30001092DF081092E008C090DD08D090DE0808
:102A4000E090DF08F090E00820E030E0A901C70145
:102A5000B6010E94D91E87FF3EC6C701B601905835
:102A60000E94E21E71956195710970939F086093B1
:102A7000A00820E030E040E251E469897D89898D39
:102A80009D850E94751E2DEC3CEC4CE455E40E94A3
:102A900065200E944B1F6093DD087093DE088093D1
:102AA000DF089093E0080E948A1D882309F417C666
:102AB0001092DD081092DE081092DF081092E008F4
:102AC000C090DD08D090DE08E090DF08F090E008CC
:102AD00020E030E0A901C701B6010E94D91E87FF9E
:102AE0001FC6C701B60190580E94E21E71956195FC
:102AF00071097093A1086093A20820E030E040E2E1
:102B000051E4609178087091790880917A089091E9
:102B10007B080E94751E2DEC3CEC4CE455E40E94B1
:102B200065200E944B1F6093DD087093DE08809340
:102B3000DF089093E008EED7882309F4F5C51092DA
:102B4000DD081092DE081092DF081092E008C090B5
:102B5000DD08D090DE08E090DF08F090E00820E08B
:102B600030E0A901C701B6010E94D91E87FFFDC54B
:102B7000C701B60190580E94E21E719561957109D6
:102B80007093A3086093A40820E030E040E251E491
:102B900060918008709181088091820890918308EB
:102BA0000E94751E2DEC3CEC4CE455E40E9465201F
:102BB0000E944B1F6093DD087093DE088093DF084E
:102BC0009093E008A7D7882309F4D3C51092DD08B5
:102BD0001092DE081092DF081092E008C090DD0825
:102BE000D090DE08E090DF08F090E00820E030E0D0
:102BF000A901C701B6010E94D91E87FFDBC5C70125
:102C0000B60190580E94E21EAA27BB27A61BB70B4D
:102C1000BA87A987C0903A03D0903B03E0903C0369
:102C2000F0903D03A701960160911A0870911B086E
:102C300080911C0890911D080E94D91E882341F0A4
:102C4000C0921A08D0921B08E0921C08F0921D084E
:102C50008091100480939808BA85B093A508E985FF
:102C6000E093A60860912E0870912F08809130089B
:102C7000909131080E94E21EC62E60912608709144
:102C8000270880912808909129080E94E21EE62ECC
:102C900060912A0870912B0880912C0890912D0842
:102CA0000E94E21E062F60912208709123088091F5
:102CB0002408909125080E94E21E698760911E08F1
:102CC00070911F0880912008909121080E94E21EB7
:102CD000862F912C812C92E0A92E29854FE050E07F
:102CE00068E978E00E94520120915408309155081B
:102CF00040915608509157082D873E874F87588B33
:102D0000C090C108D090C208E090C308F090C408F9
:102D100042E952E05A8B498B87EA98E09A87898783
:102D200002E012E069887A88D3011496BA8BA98BE5
:102D3000F301248535854685578569A57AA58BA538
:102D40009CA50E9465204B015C01D3012D913D9112
:102D50004D915C9169A17AA18BA19CA10E946520F3
:102D60009B01AC01C501B401C0D74B015C01E989ED
:102D7000FA8924893589468957896DA57EA58FA54D
:102D800098A90E9465209B01AC01C501B401ADD793
:102D90004B015C01A989BA89D8962D913D914D913D
:102DA0005C91DB976D857E858F8598890E94652073
:102DB0002B013C01E989FA8924A535A546A557A52B
:102DC000C701B6010E9465209B01AC01C301B2019D
:102DD0008CD72B013C01A989BA8990962D913D9100
:102DE0004D915C9193976981732D822D9D810E94F5
:102DF00065209B01AC01C301B20177D79B01AC01F7
:102E0000C501B40172D7E985FA8561937193819305
:102E10009193FA87E9872EE932E049895A89241784
:102E2000350709F07FCF8091CD089091CE08A09111
:102E3000CF08B091D00889879A87AB87BC8720914B
:102E4000D1083091D2084091D3085091D408298BF1
:102E50003A8B4B8B5C8B8091D5089091D608A091D2
:102E6000D708B091D8088D8B9E8BAF8BB88F2091EF
:102E7000D9083091DA084091DB085091DC08298F9D
:102E80003A8F4B8F5C8F20915202309153024091C8
:102E900054025091550269897A898B899C890E94D4
:102EA00065204B015C0120915A0230915B024091F8
:102EB0005C0250915D0269857A858B859C850E94B4
:102EC00065209B01AC01C501B4010FD74B015C012A
:102ED0002091620230916302409164025091650238
:102EE0006D897E898F89988D0E9465209B01AC0138
:102EF000C501B401FAD64B015C0120916A02309100
:102F00006B0240916C0250916D02698D7A8D8B8DB0
:102F10009C8D0E9465209B01AC01C501B401E5D6E2
:102F20002B013C014092B3085092B4086092B5085E
:102F30007092B60820915E0230915F02409160026B
:102F40005091610269857A858B859C850E946520F8
:102F50004B015C012091560230915702409158027A
:102F60005091590269897A898B899C890E946520D0
:102F70009B01AC01C501B401B8D64B015C012091A5
:102F800066023091670240916802509169026D8932
:102F90007E898F89988D0E9465209B01AC01C501B7
:102FA000B401A3D64B015C0120916E0230916F02F7
:102FB0004091700250917102698D7A8D8B8D9C8D3C
:102FC0000E9465209B01AC01C501B4018ED64B0166
:102FD0005C018092B7089092B808A092B908B092AC
:102FE000BA08A3019201C701B6017ED66B017C012C
:102FF000C092C108D092C208E092C308F092C408FF
:10300000A50194016D857E858F8598896DD66D8F1C
:103010007E8F8F8F98A348E858E05E874D871AA36C
:1030200009A30C5F1F4FA9A1BAA150962D913D9104
:103030004D915C91539769857A858B859C850E941B
:1030400065204B015C01E9A1FAA120813181428117
:10305000538169897A898B899C890E9465209B01AB
:10306000AC01C501B40141D64B015C01D8015C96AD
:103070002D913D914D915C915F976D897E898F89EE
:10308000988D0E9465209B01AC01C501B4012DD62D
:103090004B015C01F80124A535A546A557A5698D0E
:1030A0007A8D8B8D9C8D0E9465209B01AC01C501A2
:1030B000B4011BD64B015C01F801E458FF4F20819D
:1030C0003181428153816D8D7E8D8F8D98A1FDD789
:1030D0002B013C01F801E459FF4F208131814281ED
:1030E0005381C701B601F1D79B01AC01C301B20105
:1030F000FCD52B013C01D801DC962D913D914D91E1
:103100005C91DF976981732D822D9D81DED79B01B4
:10311000AC01C301B201E9D59B01AC01C501B40109
:10312000E4D5ED85FE856193719381939193FE873C
:10313000ED87F2E002311F0709F071CF8BEB98E0C9
:103140000E94180F6091BB087091BC08072E000CFC
:10315000880B990B65D64B015C0121E029872981F9
:10316000332D422D5D8160913E0370913F0380912C
:10317000400390914103A5D718160CF01986698574
:1031800088E00E94380FF0903603009137033091A9
:1031900038033D874091390349872981332D422DDA
:1031A0005D816F2D702F8D85998503D687FD1AC09F
:1031B000F090060400910704509108045D87809107
:1031C000090489872981332D422D5D816F2D702F50
:1031D0008D85998576D718162CF0F980032D2D86CC
:1031E0009D81998766E070E080E090E00E94760F14
:1031F00090934F0880934E0820910A0430910B045D
:1032000040910C0450910D046F2D702F8D85998580
:103210005CD741D66093DD087093DE088093DF08A9
:103220009093E00877D4882309F4CAC21092DD088D
:103230001092DE081092DF081092E008C090DD08BE
:10324000D090DE08E090DF08F090E00820E030E069
:10325000A901C701B601ADD587FFD3C2C701B60129
:103260009058B0D5619570E090E080E0D9D5AB0181
:10327000BC0180914E0890914F080E943F0F8091B1
:10328000C5089091C608A091C708B091C80880935E
:10329000500890935108A0935208B093530820917E
:1032A0002603309127034091280350912903C5013B
:1032B000B4011AD520910204309103044091040412
:1032C0005091050402D720914A0330914B0340915D
:1032D0004C0350914D03F9D6209154083091550874
:1032E000409156085091570800D560935408709348
:1032F000550880935608909357088091C90890917B
:10330000CA08A091CB08B091CC088093580890933C
:103310005908A0935A08B0935B0820915C0830913B
:103320005D0840915E0850915F086091560370916E
:1033300057038091580390915903C7D6209188086C
:103340003091890840918A0850918B08CED46093BF
:103350005C0870935D0880935E0890935F082091ED
:103360006008309161084091620850916308609153
:103370007203709173038091740390917503A5D6C5
:1033800020918C0830918D0840918E0850918F08C3
:10339000ACD4609360087093610880936208909346
:1033A0006308209164083091650840916608509147
:1033B000670860918E0370918F03809190039091C4
:1033C000910383D620919008309191084091920802
:1033D000509193088AD46093640870936508809331
:1033E00066089093670820916808309169084091B9
:1033F0006A0850916B086091AA037091AB038091A9
:10340000AC039091AD0361D620919408309195085A
:10341000409196085091970868D46093680870931B
:10342000690880936A0890936B0820916C0830912A
:103430006D0840916E0850916F086091B6037091CD
:10344000B7038091B8039091B9033FD62091A708A4
:103450003091A8084091A9085091AA0846D46093D9
:103460006C0870936D0880936E0890936F0820919C
:103470007008309171084091720850917308609102
:10348000CE037091CF038091D0039091D1031DD6CC
:103490002091AB083091AC084091AD085091AE0836
:1034A00024D460937008709371088093720890938D
:1034B00073082091740830917508409176085091F6
:1034C00077086091E6037091E7038091E80390919B
:1034D000E903FBD52091AF083091B0084091B108C5
:1034E0005091B20802D46093740870937508809369
:1034F000760890937708E2960FB6F894DEBF0FBE79
:10350000CDBFDF91CF911F910F91FF90EF90DF9092
:10351000CF90BF90AF909F908F907F906F905F9073
:103520004F903F902F90089580910E04813089F440
:1035300029853A854B855C852093DD083093DE082C
:103540004093DF085093E008C988DD88E98CFD844A
:1035500012C98091780890917908A0917A08B09169
:103560007B088093DD089093DE08A093DF08B0937A
:10357000E00880917C0890917D08A0917E08B09130
:103580007F088D839E83AF83B887C0908008D090DA
:103590008108E0908208F0908308209084083090A1
:1035A00085084090860850908708E5C860E070E084
:1035B00080E89FE342C96091DD087091DE08809148
:1035C000DF089091E0087DD281115AC96091DD0831
:1035D0007091DE088091DF089091E00820E030E0F3
:1035E00040E857E472D46093DD087093DE0880935E
:1035F000DF089093E0084CC9C701B601E3D361C965
:103600006091DD087091DE088091DF089091E008FC
:1036100058D281117DC96091DD087091DE088091DA
:10362000DF089091E00820E030E040E857E44DD416
:103630006093DD087093DE088093DF089093E008C4
:103640006FC9C701B601BED384C96091DD0870910E
:10365000DE088091DF089091E00833D28111A0C983
:103660006091DD087091DE088091DF089091E0089C
:1036700020E030E040E857E428D46093DD08709300
:10368000DE088093DF089093E00892C9C701B60175
:1036900099D3A7C96091DD087091DE088091DF0899
:1036A0009091E0080ED28111BFC96091DD08709140
:1036B000DE088091DF089091E00820E030E040E8EB
:1036C00057E403D46093DD087093DE088093DF082D
:1036D0009093E008B1C9C701B60174D3C6C960911F
:1036E000DD087091DE088091DF089091E008E9D153
:1036F0008111DEC96091DD087091DE088091DF08DC
:103700009091E00820E030E040E857E4DED3609399
:10371000DD087093DE088093DF089093E008D0C93D
:10372000C701B6014FD3E5C96091DD087091DE088D
:103730008091DF089091E008C4D1811100CA6091A6
:10374000DD087091DE088091DF089091E00820E0AC
:1037500030E040E857E4B9D36093DD087093DE08A9
:103760008093DF089093E008F2C9C701B6012AD31D
:1037700007CA6091DD087091DE088091DF089091A2
:10378000E0089FD1811122CA6091DD087091DE08A6
:103790008091DF089091E00820E030E040E857E4B5
:1037A00094D36093DD087093DE088093DF089093D4
:1037B000E00814CAC701B60105D37A8769872ACA07
:1037C0006091DD087091DE088091DF089091E0083B
:1037D00078D181112BCD6091DD087091DE08809148
:1037E000DF089091E00820E030E040E853E46DD33A
:1037F0006093DD087093DE088093DF089093E00803
:103800001DCDC701B601DED22ECD8F929F92AF9211
:10381000BF92DF92EF92FF920F931F93CF93DF93AC
:1038200084E090E017D11092930510929205C4E1C4
:10383000D8E084E6FE0111928A95E9F7812C912C5B
:103840005401839489A29AA2ABA2BCA242E150E0A7
:1038500063E170E081E090E00E942807DD24D394CA
:10386000DDA2188280913A0390913B03A0913C0322
:10387000B0913D038E839F83A887B98789829A82FE
:10388000AB82BC821A861B861C861D8680E090E077
:10389000A0E8BFE38E879F87A88BB98B1A8A1B8A03
:1038A0001C8A1D8A1E8A1F8A188E198E1A8E1B8EDC
:1038B0001C8E1D8E80E00E942D01DD821EA28FA233
:1038C00098A6A9A6BAA690E080E00E940B0FDBA6FE
:1038D0001CA68DA69EA6AFA6B8AA61E088E00E94AD
:1038E000300FD9AA1CAA8DAA9EAAAFAAB8AEE12C05
:1038F000F12C8701A801970166E070E080E090E07C
:103900000E94BA0F9BAF8AAFD9AE80912E039091DF
:103910002F03A0913003B09131038CAF9DAFAEAFB8
:10392000BFAF80914E0390914F03A0915003B0918F
:1039300051038093540890935508A0935608B09370
:1039400057088091320390913303A0913403B091D2
:1039500035038093580890935908A0935A08B09360
:103960005B08DF91CF911F910F91FF90EF90DF9057
:10397000BF90AF909F908F900895809134088111EF
:1039800003C081E08093340880911408811103C042
:1039900081E08093140880913A08811103C081E08E
:1039A00080933A0880914008811103C081E08093A0
:1039B00040088091480881112EC081E0809348081A
:1039C0008091490890914A08A0914B08B0914C0809
:1039D0000197A105B105F9F480914D088823D9F02C
:1039E00066E070E080E090E00E94760F90934F08D0
:1039F00080934E0840E050E0BA010E943F0F66E01D
:103A000070E080E090E00E94760F90934F088093E2
:103A10004E080C940B10089560E070E080E89FE77A
:103A2000089560E070E080E89FE7089560E070E04E
:103A300080E89FEF089560E070E080E89FEF0895D0
:103A400060E070E080EC9FEF089560E070E080EC53
:103A50009FEF0895F5DF6093F1087093F20880936B
:103A6000F3089093F408F1DF6093E5087093E6089B
:103A70008093E7089093E808CFDF6093ED08709398
:103A8000EE088093EF089093F008CBDF6093E9088D
:103A90007093EA088093EB089093EC08C7DF60937B
:103AA000F5087093F6088093F7089093F808C3DF41
:103AB0006093F9087093FA088093FB089093FC08D0
:103AC0000895CF92DF92EF92FF92CF936B017C012A
:103AD000AC019B016091E9087091EA088091EB08C4
:103AE0009091EC0866D1C1E0882369F0A7019601A6
:103AF0006091F9087091FA088091FB089091FC0898
:103B000058D18111C0E08C2FCF91FF90EF90DF90C2
:103B1000CF9008950F931F938B019C0100271127CD
:103B200020783F770115110520483F4749F4AB0144
:103B3000BC016F77772781E0452B462B472B09F493
:103B400080E01F910F91089526E030E040E052ECB4
:103B500061E070E090E080E006D061E08DE002D7A7
:103B600060E08DE03BC78130910571F01CF4892B3A
:103B700039F008958230910551F0039759F0089576
:103B800080EA95E00C94E5258DE396E0FBCF8AED85
:103B900096E0F8CF87E797E0F5CF1F920F920FB628
:103BA0000F9211240BB60F922F933F934F935F9375
:103BB0006F937F938F939F93AF93BF93EF93FF93F5
:103BC0008BEC93EF909325018093240180919505D0
:103BD00090919605019719F461E08DE0FFD634D0FD
:103BE000FF91EF91BF91AF919F918F917F916F91D5
:103BF0005F914F913F912F910F900BBE0F900FBE91
:103C00000F901F9018958BEC93EF90932501809364
:103C10002401A3E7B0E08C918E7F8C93E0E2F1E089
:103C200080818C7F8083E1E2F1E08081877E8083E8
:103C300080818460808380818C7F80838C9181608F
:103C40008C93089581E008958091940591E0980FF8
:103C500090939405882349F021E030E03093960555
:103C60002093950580939405089578940E945911A6
:103C7000F894809194058150F5CFCF93DF93109203
:103C8000FE081092FD08D2D45FDFC0914704D091A6
:103C9000480419821882B9DDF894B5DF288139818A
:103CA00081E0232B09F080E08093FD0878947894DC
:103CB0008091FD08811107C060DEF89490E080E0FB
:103CC000DF91CF9108952881398181E0232B09F478
:103CD00080E08093FE089091FE0881E0911180E0E1
:103CE0008093FD08AFDFE4CF5058BB27AA270ED042
:103CF00097C188D130F08DD120F031F49F3F11F47D
:103D00001EF47DC10EF4E095E7FB4AC1E92F99D17D
:103D100080F3BA17620773078407950718F071F4E8
:103D20009EF5C8C10EF4E0950B2EBA2FA02D0B0105
:103D3000B90190010C01CA01A0011124FF27591BF0
:103D400099F0593F50F4503E68F11A16F040A22FF6
:103D5000232F342F4427585FF3CF46953795279567
:103D6000A795F0405395C9F77EF41F16BA0B620B66
:103D7000730B840BBAF09150A1F0FF0FBB1F661FAD
:103D8000771F881FC2F70EC0BA0F621F731F841FF0
:103D900048F4879577956795B795F7959E3F08F016
:103DA000B3CF9395880F08F09927EE0F97958795D5
:103DB0000895D2D008F481E0089504D06894B11138
:103DC0007AC1089546D188F09F5790F0B92F99276E
:103DD000B751A0F0D1F0660F771F881F991F1AF016
:103DE000BA95C9F712C0B13081F064D1B1E008953D
:103DF00061C1672F782F8827B85F39F0B93FCCF3BE
:103E0000869577956795B395D9F73EF4909580950B
:103E1000709561957F4F8F4F9F4F0895E89409C02B
:103E200097FB3EF490958095709561957F4F8F4FED
:103E30009F4F9923A9F0F92F96E9BB279395F69503
:103E4000879577956795B795F111F8CFFAF4BB0F81
:103E500011F460FF1BC06F5F7F4F8F4F9F4F16C0E5
:103E6000882311F096E911C0772321F09EE8872F6F
:103E7000762F05C0662371F096E8862F70E060E02B
:103E80002AF09A95660F771F881FDAF7880F9695A4
:103E9000879597F90895F7D080F09F3740F49111F6
:103EA0000EF009C160E070E080E89FEB089526F411
:103EB0001B16611D711D811D79C093C0A3D018F020
:103EC00011F0A7D038F49BC0F6C0E92FBAD0B0F3F8
:103ED0005523C9F3E7FB6217730784079507A8F119
:103EE00099F3E92FFF2788232AF03197660F771F70
:103EF000881FDAF7952F5527442332F09150504010
:103F0000220F331F441FD2F7BB27E91BF50B621B9F
:103F1000730B840BB109C1F222F4620F731F841F6B
:103F2000B11D31972AF0660F771F881FBB1FEFCF97
:103F3000915050405AF041F0882332F0660F771FBD
:103F4000881F91505040C1F793954BC08695779547
:103F500067959F5FD9F7F8CF990F0008550FAA0B07
:103F6000E0E8FEEF16161706E807F907C0F012168C
:103F70001306E407F50798F0621B730B840B950B8F
:103F800039F40A2661F0232B242B252B21F40895E4
:103F90000A2609F4A140A6958FEF811D811D089581
:103FA00097F99F6780E870E060E00895882371F4D6
:103FB000772321F09850872B762F07C0662311F4C2
:103FC00099270DC09051862B70E060E02AF09A95F9
:103FD000660F771F881FDAF7880F9695879597F9F0
:103FE00008959F3F31F0915020F48795779567951C
:103FF000B795880F911D9695879597F908959FEF2E
:1040000080EC089500240A9416161706180609066F
:10401000089500240A94121613061406050608953E
:10402000092E0394000C11F4882352F0BB0F40F4C6
:10403000BF2B11F460FF04C06F5F7F4F8F4F9F4F06
:10404000089557FD9058440F551F59F05F3F71F088
:104050004795880F97FB991F61F09F3F79F08795EF
:104060000895121613061406551FF2CF4695F1DF78
:1040700008C0161617061806991FF1CF8695710508
:10408000610508940895E5DFA0F0BEE7B91788F44C
:10409000BB279F3860F41616B11D672F782F88272D
:1040A000985FF7CF869577956795B11D939596396B
:1040B000C8F30895E894BB2766277727CB0197F9C3
:1040C00008954ADF08F48FEF08950BD0A9CF9ADF47
:1040D00028F09FDF18F0952309F062CF90CF1124CC
:1040E000EACFAFDFA0F3959FD1F3950F50E0551FB6
:1040F000629FF001729FBB27F00DB11D639FAA273D
:10410000F00DB11DAA1F649F6627B00DA11D661F8B
:10411000829F2227B00DA11D621F739FB00DA11DAC
:10412000621F839FA00D611D221F749F3327A00D66
:10413000611D231F849F600D211D822F762F6A2F02
:1041400011249F5750408AF0E1F088234AF0EE0F87
:10415000FF1FBB1F661F771F881F91505040A9F794
:104160009E3F510570F01CCFA6CF5F3FECF3983E09
:10417000DCF3869577956795B795F795E7959F5FFB
:10418000C1F7FE2B880F911D9695879597F9089595
:104190000895883008F076C0E82FF0E0EE0FFF1F9A
:1041A000EF5EFB4F718360838150873008F03DC024
:1041B000E82FF0E08827E052FF4D8F4F0C94CD2A76
:1041C0001D21E720EF20FB200821292136218091A5
:1041D00069008C7F482B40936900E89A089580918C
:1041E0006900837F440F551F440F551F482B409390
:1041F0006900E99A0895809169008F7C74E0440F0A
:10420000551F7A95E1F7482B40936900EA9A089583
:10421000809169008F7366E0440F551F6A95E1F73E
:10422000482B40936900EB9A089580916A008C7F37
:10423000482B40936A00EC9A089580916A00837F2E
:10424000440F551F440F551F482B40936A00ED9AA9
:10425000089580916A008F7C24E0440F551F2A95B1
:10426000E1F7482B40936A00EE9A089580916A0026
:104270008F7396E0440F551F9A95E1F7482B4093B2
:104280006A00EF9A08951F920F920FB60F921124B1
:104290000BB60F922F933F934F935F936F937F9340
:1042A0008F939F93AF93BF93EF93FF93E091150488
:1042B000F09116041995FF91EF91BF91AF919F91E5
:1042C0008F917F916F915F914F913F912F910F90BF
:1042D0000BBE0F900FBE0F901F9018951F920F925C
:1042E0000FB60F9211240BB60F922F933F934F935B
:1042F0005F936F937F938F939F93AF93BF93EF934E
:10430000FF93E0911704F09118041995FF91EF9134
:10431000BF91AF919F918F917F916F915F914F91DD
:104320003F912F910F900BBE0F900FBE0F901F90DB
:1043300018951F920F920FB60F9211240BB60F9281
:104340002F933F934F935F936F937F938F939F939D
:10435000AF93BF93EF93FF93E0911904F0911A0488
:104360001995FF91EF91BF91AF919F918F917F919F
:104370006F915F914F913F912F910F900BBE0F90D6
:104380000FBE0F901F9018951F920F920FB60F92AD
:1043900011240BB60F922F933F934F935F936F931C
:1043A0007F938F939F93AF93BF93EF93FF93E0918E
:1043B0001B04F0911C041995FF91EF91BF91AF91EF
:1043C0009F918F917F916F915F914F913F912F912D
:1043D0000F900BBE0F900FBE0F901F9018951F925D
:1043E0000F920FB60F9211240BB60F922F933F939B
:1043F0004F935F936F937F938F939F93AF93BF93ED
:10440000EF93FF93E0911104F09112041995FF913D
:10441000EF91BF91AF919F918F917F916F915F913C
:104420004F913F912F910F900BBE0F900FBE0F90A9
:104430001F9018951F920F920FB60F9211240BB672
:104440000F922F933F934F935F936F937F938F932D
:104450009F93AF93BF93EF93FF93E0911304F09179
:1044600014041995FF91EF91BF91AF919F918F9196
:104470007F916F915F914F913F912F910F900BBE64
:104480000F900FBE0F901F9018951F920F920FB6AE
:104490000F9211240BB60F922F933F934F935F937C
:1044A0006F937F938F939F93AF93BF93EF93FF93FC
:1044B000E0911D04F0911E041995FF91EF91BF91B9
:1044C000AF919F918F917F916F915F914F913F91AC
:1044D0002F910F900BBE0F900FBE0F901F9018954D
:1044E0001F920F920FB60F9211240BB60F922F93BB
:1044F0003F934F935F936F937F938F939F93AF936C
:10450000BF93EF93FF93E0911F04F091200419955E
:10451000FF91EF91BF91AF919F918F917F916F919B
:104520005F914F913F912F910F900BBE0F900FBE57
:104530000F901F9018951F920F920FB60F92112493
:104540002F933F938F939F93AF93BF938091980541
:1045500090919905A0919A05B0919B05309197058E
:1045600023E0230F2D3758F50196A11DB11D20938F
:1045700097058093980590939905A0939A05B09319
:104580009B0580919C0590919D05A0919E05B09101
:104590009F050196A11DB11D80939C0590939D05DB
:1045A000A0939E05B0939F05BF91AF919F918F916E
:1045B0003F912F910F900FBE0F901F90189526E8F6
:1045C000230F0296A11DB11DD2CF2FB7F894609191
:1045D00098057091990580919A0590919B052FBF40
:1045E00008953FB7F89480919C0590919D05A09106
:1045F0009E05B0919F0526B5A89B05C02F3F19F0D9
:104600000196A11DB11D3FBFBA2FA92F982F882752
:10461000BC01CD01620F711D811D911D42E0660F2D
:10462000771F881F991F4A95D1F70895789484B50C
:10463000826084BD84B5816084BD85B5826085BD9E
:1046400085B5816085BDEEE6F0E080818160808384
:10465000E1E8F0E010828081826080838081816067
:104660008083E0E8F0E0808181608083E1EBF0E02E
:10467000808184608083E0EBF0E0808181608083D2
:10468000E1E9F0E0808182608083808181608083C5
:10469000E0E9F0E0808181608083E1EAF0E0808100
:1046A00082608083808181608083E0EAF0E08081A5
:1046B00081608083E1E2F1E080818260808380819B
:1046C00081608083E0E2F1E0808181608083EAE7BD
:1046D000F0E080818460808380818260808380813B
:1046E000816080838081806880831092C1000895FA
:1046F0001F93CF93DF93182FEB0161E033D1209705
:1047000031F460E0812FDF91CF911F9167C1CF3FDE
:10471000D10511F461E0F6CFE12FF0E0EC51FF4F4D
:10472000E491E150E23108F0B2C0F0E08827E556AC
:10473000FC4D8F4F32C7AD23B523BA23C423CE23FC
:104740004724D823E023E823F223FC23062415245E
:104750001F244724292433243D2484B5806884BD44
:10476000C7BDDF91CF911F91089584B5806284BD4C
:10477000C8BDF7CF80918000806880938000D0937F
:104780008900C0938800EDCF809180008062809383
:104790008000D0938B00C0938A00E3CF809180008B
:1047A000886080938000D0938D00C0938C00D9CF17
:1047B0008091B00080688093B000C093B300D1CFE7
:1047C0008091B00080628093B000C093B400C9CFE4
:1047D00080919000806880939000D0939900C0935E
:1047E0009800BFCF80919000806280939000D0931A
:1047F0009B00C0939A00B5CF809190008860809311
:104800009000D0939D00C0939C00ABCF8091A000FE
:1048100080688093A0008091A0008F7B8093A0008F
:10482000D093A900C093A8009CCF8091A000806283
:104830008093A000D093AB00C093AA0092CF809148
:10484000A00088608093A000D093AD00C093AC001E
:1048500088CF80912001806880932001D093290126
:10486000C09328017ECF8091200180628093200137
:10487000D0932B01C0932A0174CF809120018860CE
:1048800080932001D0932D01C0932C016ACFC038B2
:10489000D1050CF03FCF35CF8150823108F059C09F
:1048A000E82FF0E08827E95AFB4D8F4F76C6772432
:1048B0007B2469246F247324A9247E2484248824DF
:1048C0008E24922496249C24A024A924A424AA24DF
:1048D000AE24809180008F7780938000089580912E
:1048E00080008F7DF9CF80918000877FF5CF84B5E0
:1048F0008F7784BD089584B58F7DFBCF8091B00004
:104900008F778093B00008958091B0008F7DF9CFAC
:10491000809190008F77809390000895809190000F
:104920008F7DF9CF80919000877FF5CF8091A00097
:104930008F778093A00008958091A0008F7DF9CF9C
:104940008091A000877FF5CF809120018F778093A1
:1049500020010895809120018F7DF9CF8091200161
:10496000877FF5CFCF93DF9390E0FC01E65DFE4FAC
:10497000249180599E4FFC0184918823C9F090E0D6
:10498000880F991FFC01E053FE4FA591B491FC01E3
:10499000EA54FE4FC591D49161110DC09FB7F894B0
:1049A0008C91209582238C938881282328839FBF14
:1049B000DF91CF910895623051F49FB7F8943C9104
:1049C000822F809583238C93E8812E2BEFCF8FB796
:1049D000F894EC912E2B2C938FBFEACF1F93CF939B
:1049E000DF93282F30E0F901EC51FF4F8491F9015A
:1049F000E65DFE4FD491F901E059FE4FC491CC23FE
:104A0000A1F0162F811148DFEC2FF0E0EE0FFF1F11
:104A1000EA54FE4FA591B4918FB7F894EC9111111F
:104A200008C0D095DE23DC938FBFDF91CF911F911B
:104A30000895DE2BF8CFFC01918D228D892F90E017
:104A4000805C9F4F821B91098F7399270895FC0109
:104A5000918D828D981731F0828DE80FF11D858D33
:104A600090E008958FEF9FEF0895FC01918D828D66
:104A7000981761F0A28DAE0FBF2FB11D5D968C917E
:104A8000928D9F5F9F73928F90E008958FEF9FEFBD
:104A90000895FC01538D448D252F30E0842F90E044
:104AA000821B930B541710F0CF9608950197089529
:104AB000FC01A48DA80FB92FB11DA35ABF4F2C9193
:104AC000848D90E001968F739927848FA689B7898A
:104AD0002C93A089B1898C91837080648C93938D81
:104AE000848D981306C00288F389E02D80818F7D24
:104AF00080830895CF93DF93EC01888D8823B1F0F4
:104B0000AA89BB89E889F9898C9185FD03C08081D8
:104B100086FD0CC00FB607FCF7CF8C9185FFF2CF56
:104B2000808185FFEDCFCE01C3DFEACFDF91CF914A
:104B30000895EF92FF920F931F93CF93DF93EC01B1
:104B400081E0888F9B8D8C8D98131AC0E889F98934
:104B5000808185FF15C09FB7F894EE89FF89608337
:104B6000E889F98980818370806480839FBF81E0B8
:104B700090E0DF91CF911F910F91FF90EF900895FA
:104B8000F62E0B8D10E00F5F1F4F0F731127E02ED5
:104B90008C8D8E110BC00FB607FCFACFE889F9890E
:104BA000808185FFF5CFCE0183DFF2CFEB8DEC0F57
:104BB000FD2FF11DE35AFF4FF0829FB7F8940B8F42
:104BC000EA89FB8980818062D0CFCF92DF92EF9219
:104BD000FF921F93CF93DF93EC016A017B01122FA9
:104BE000E889F98982E08083C11481EED806E10466
:104BF000F10499F060E079E08DE390E0A70196017F
:104C0000AAD4215031094109510956954795379544
:104C10002795211580E1380790F0E889F9891082FD
:104C200060E874E88EE190E0A701960194D42150E9
:104C30003109410951095695479537952795EC85D6
:104C4000FD853083EE85FF852083188EEC89FD89F4
:104C50001083EA89FB89808180618083EA89FB89EE
:104C6000808188608083EA89FB8980818068808375
:104C7000EA89FB8980818F7D8083DF91CF911F91AD
:104C8000FF90EF90DF90CF9008951F920F920FB694
:104C90000F9211240BB60F922F938F939F93EF9344
:104CA000FF93E091B005F091B1058081E091B605E8
:104CB000F091B70582FD1DC090818091B9058F5F8D
:104CC0008F732091BA05821741F0E091B905F0E0A9
:104CD000E056FA4F958F8093B905FF91EF919F9120
:104CE0008F912F910F900BBE0F900FBE0F901F90C2
:104CF00018958081F2CF1F920F920FB60F92112458
:104D00000BB60F922F933F934F935F936F937F93C5
:104D10008F939F93AF93BF93EF93FF9380EA95E0B8
:104D2000C7DEFF91EF91BF91AF919F918F917F91DE
:104D30006F915F914F913F912F910F900BBE0F900C
:104D40000FBE0F901F901895E0EAF5E013821282D3
:104D500088EE93E0A0E0B0E084839583A683B783D8
:104D60008DE494E09183808385EC90E0958784873F
:104D700084EC90E09787868780EC90E0918B808B25
:104D800081EC90E0938B828B82EC90E0958B848B0E
:104D900086EC90E0978B868B118E128E138E148E7C
:104DA00008951F920F920FB60F9211240BB60F9217
:104DB0002F938F939F93EF93FF93E0914D06F09184
:104DC0004E068081E0915306F091540682FD1DC08D
:104DD0009081809156068F5F8F73209157068217BE
:104DE00041F0E0915606F0E0E35CF94F958F809337
:104DF0005606FF91EF919F918F912F910F900BBECF
:104E00000F900FBE0F901F9018958081F2CF1F92C8
:104E10000F920FB60F9211240BB60F922F933F9360
:104E20004F935F936F937F938F939F93AF93BF93B2
:104E3000EF93FF938DE396E03BDEFF91EF91BF91FF
:104E4000AF919F918F917F916F915F914F913F9122
:104E50002F910F900BBE0F900FBE0F901F901895C3
:104E6000EDE3F6E01382128288EE93E0A0E0B0E07A
:104E700084839583A683B7838DE494E091838083B4
:104E80008DEC90E0958784878CEC90E097878687FF
:104E900088EC90E0918B808B89EC90E0938B828BF7
:104EA0008AEC90E0958B848B8EEC90E0978B868BD0
:104EB000118E128E138E148E08951F920F920FB6BC
:104EC0000F9211240BB60F922F938F939F93EF9312
:104ED000FF93E091EA06F091EB068081E091F00605
:104EE000F091F10682FD1DC090818091F3068F5FE5
:104EF0008F732091F406821741F0E091F306F0E001
:104F0000E652F94F958F8093F306FF91EF919F91B1
:104F10008F912F910F900BBE0F900FBE0F901F908F
:104F200018958081F2CF1F920F920FB60F92112425
:104F30000BB60F922F933F934F935F936F937F9393
:104F40008F939F93AF93BF93EF93FF938AED96E078
:104F5000AFDDFF91EF91BF91AF919F918F917F91C5
:104F60006F915F914F913F912F910F900BBE0F90DA
:104F70000FBE0F901F901895EAEDF6E01382128293
:104F800088EE93E0A0E0B0E084839583A683B783A6
:104F90008DE494E09183808385ED90E0958784870C
:104FA00084ED90E09787868780ED90E0918B808BF1
:104FB00081ED90E0938B828B82ED90E0958B848BDA
:104FC00086ED90E0978B868B118E128E138E148E49
:104FD00008951F920F920FB60F9211240BB60F92E5
:104FE0002F938F939F93EF93FF93E0918707F09117
:104FF00088078081E0918D07F0918E0782FD1DC0AA
:105000009081809190078F5F8F7320919107821715
:1050100041F0E0919007F0E0E958F84F958F8093C8
:105020009007FF91EF919F918F912F910F900BBE61
:105030000F900FBE0F901F9018958081F2CF1F9296
:105040000F920FB60F9211240BB60F922F933F932E
:105050004F935F936F937F938F939F93AF93BF9380
:10506000EF93FF9387E797E023DDFF91EF91BF91E7
:10507000AF919F918F917F916F915F914F913F91F0
:105080002F910F900BBE0F900FBE0F901F90189591
:10509000E7E7F7E01382128288EE93E0A0E0B0E049
:1050A00084839583A683B7838DE494E09183808382
:1050B00085E391E09587848784E391E097878687ED
:1050C00080E391E0918B808B81E391E0938B828BE5
:1050D00082E391E0958B848B86E391E0978B868BBE
:1050E000118E128E138E148E0895AF92BF92CF92AE
:1050F000DF92EF92FF920F931F93CF93DF936C0198
:105100007B018B01040F151FEB015E01AE18BF0878
:10511000C017D10759F06991D601ED91FC9101902A
:10512000F081E02DC6011995892B79F7C501DF9132
:10513000CF911F910F91FF90EF90DF90CF90BF9094
:10514000AF900895FB0101900020E9F73197AF017E
:10515000461B570BDC01ED91FC910280F381E02DA1
:1051600019946115710509F0EDCF90E080E0089584
:10517000DC01ED91FC910190F081E02D19946BE53B
:1051800074E0E0CF8F929F92AF92BF92EF92FF9226
:105190000F931F93CF93DF93CDB7DEB7A1970FB6D1
:1051A000F894DEBF0FBECDBF7C01FA01CB0119A27E
:1051B000223008F42AE08E010F5D1F4F822E912CC1
:1051C000B12CA12CBF01A5019401C5D1F901CA01DF
:1051D0006A3004F5605DD8016E938D01232B242B7A
:1051E000252B81F790E080E0109719F0BD01C701F1
:1051F000A9DFA1960FB6F894DEBF0FBECDBFDF9139
:10520000CF911F910F91FF90EF90BF90AF909F9023
:105210008F900895695CDFCFCF92DF92EF92FF927B
:105220000F931F93CF93DF932115310581F4DC0198
:10523000ED91FC910190F081E02D642FDF91CF91F1
:105240001F910F91FF90EF90DF90CF9019942A302B
:105250003105F1F42AE077FF1BC06A017B01EC0104
:105260006DE286DF8C0144275527BA014C195D0990
:105270006E097F092AE0CE0185DF800F911FDF9143
:10528000CF911F910F91FF90EF90DF90CF900895F5
:10529000DF91CF911F910F91FF90EF90DF90CF9012
:1052A00071CF9A01AB01770F660B770BB5CF0F93D8
:1052B0001F93CF93DF93EC01F4DF8C01CE015FDF0E
:1052C000800F911FDF91CF911F910F9108950F9340
:1052D0001F93CF93DF93EC019FDF8C01CE014FDF53
:1052E000800F911FDF91CF911F910F91089521158C
:1052F000310541F4DC01ED91FC910190F081E02D4C
:10530000642F19943FCF9A01462F50E070E060E07F
:10531000EECF0F931F93CF93DF93EC01F4DF8C015B
:10532000CE012DDF800F911FDF91CF911F910F9143
:1053300008959A01AB0170E060E0D9CF0F931F93FD
:10534000CF93DF93EC01F5DF8C01CE0118DF800FE6
:10535000911FDF91CF911F910F9108950F931F938C
:10536000CF93DF93EC01C3DF8C01CE0108DF800F08
:10537000911FDF91CF911F910F9108952F923F922E
:105380004F925F926F927F928F929F92AF92BF9255
:10539000CF92DF92EF92FF921F93CF93DF93EC01B6
:1053A0006A017B01722EAB019601CB01B6016ED171
:1053B0006EE574E0811125C046015701E894B7F805
:1053C0002FEF3FEF4FE75FE7C501B4015FD18111D8
:1053D0000CC02FEF3FEF4FE75FE7C501B4010E941C
:1053E000D91E62E674E0181664F02FEF3FEF4FE726
:1053F0005FE4C701B6010E9461201816ACF466E6AE
:1054000074E0CE01DF91CF911F91FF90EF90DF907C
:10541000CF90BF90AF909F908F907F906F905F9054
:105420004F903F902F908ECE2FEF3FEF4FE75FECE6
:10543000C701B6010E94D91E87FDE1CF20E030E010
:10544000A901C701B6010E94D91E312C212C87FF6A
:1054500008C06DE2CE018CDE1C01F7FAF094F7F87B
:10546000F09410E060E070E080E09FE3711639F0A6
:1054700020E030E040E251E498D01F5FF7CFA70171
:1054800096010E94751E2B013C010E94E21E4B01F9
:105490005C012AE0BC01A401CE0174DE7C01E20CB7
:1054A000F31C1123A1F1C501B4010E940E1F9B0141
:1054B000AC01C301B2010E94741E4B015C016EE29B
:1054C000CE0156DEE80EF91E115008F120E030E062
:1054D00040E251E4C501B4010E9465202B013C016A
:1054E0000E94E21E4B014AE050E0CE0122DFE80EAE
:1054F000F91EB40190E080E00E940E1F9B01AC01F8
:10550000C301B2010E94741E4B015C01DDCFC701D3
:10551000DF91CF911F91FF90EF90DF90CF90BF90E0
:10552000AF909F908F907F906F905F904F903F9043
:105530002F90089523CF0F931F93CF93DF93EC0108
:105540001DDF8C01CE011BDE800F911FDF91CF91FB
:105550001F910F910895A1E21A2EAA1BBB1BFD01FA
:105560000DC0AA1FBB1FEE1FFF1FA217B307E40742
:10557000F50720F0A21BB30BE40BF50B661F771F9A
:10558000881F991F1A9469F760957095809590957A
:105590009B01AC01BD01CF010895EE0FFF1F881FD5
:1055A0008BBF0790F691E02D199412D00C94102027
:1055B0000E94092058F00E94022040F029F45F3F29
:1055C00029F00C94D01F51110C945B200C94FF1FF8
:1055D0000E94212068F39923B1F3552391F3951B81
:1055E000550BBB27AA2762177307840738F09F5F04
:1055F0005F4F220F331F441FAA1FA9F335D00E2E71
:105600003AF0E0E832D091505040E695001CCAF7DD
:105610002BD0FE2F29D0660F771F881FBB1F2617A0
:1056200037074807AB07B0E809F0BB0B802DBF0177
:10563000FF2793585F4F3AF09E3F510578F00C9446
:10564000D01F0C945B205F3FE4F3983ED4F3869523
:1056500077956795B795F7959F5FC9F7880F911D67
:105660009695879597F90895E1E0660F771F881F53
:10567000BB1F621773078407BA0720F0621B730B06
:10568000840BBA0BEE1F88F7E09508950E94AC1FBB
:0A569000880B990B0895F894FFCFE2
:10569A00E8030000803F0000000000000000000056
:1056AA000000E02D103B8D282D3E5F294B3CA69B28
:1056BA0068400000008052491DBCA913803F098A36
:1056CA005F3E17B7D138BBB88D3C75029A3B9A77C3
:1056DA006C3F17B7D138E561213D52491DBAB29DD9
:1056EA002FBE0000803F0000000000000000000004
:1056FA000000000000000000803F000000000000E1
:10570A0000000612943DA69BC43AA69B443B2F6E0A
:10571A00233D3480373BED0D3E3D19E2583EB5A698
:10572A0009401A51DA3D1DC965BD6F81043F9FCDFD
:10573A002ABD448B7C3FC520B03C24977F3CED0DAD
:10574A003E3B0BB5563F7368113D52499DBB516BA9
:10575A00BABE6666E6C1CDCCFCC100A0B3C4DE9376
:10576A00073D6C09793CB6F37D3E6666E641CDCCD1
:10577A00FC4100A0B3440000803F0000000000008C
:10578A00000000000000000000000000803F000050
:10579A0000000000000000000000000000000000FF
:1057AA00803F000000000000000000000000000030
:1057BA0000000000803F7A2910C27CF2B03C000051
:1057CA00000000000000000010410000000000007E
:1057DA00000035FA0EBC0000A041CDCC4C3D0000C3
:1057EA0000000000A041000000800000803F00008F
:1057FA00000000000000000000000000000000009F
:10580A000000000000800000803F0000000000004F
:10581A00000000000000000000000000000000007E
:10582A0000800000803F000000000000000000002F
:10583A0000000000000000000000000000800000DE
:10584A00803F00000000000000800000803F000050
:10585A00000000000000000000000000000000003E
:10586A0000800000803F00000000000000000000EF
:10587A00000000000000000000800000803F0000DF
:10588A00000001DE02413C7D444250FC8E425474C9
:10589A003941FDB30BB9000010C1ABAAE2410101C5
:1058AA0001C820C820C820C820C820C820C820C8CD
:1058BA00200001FFFF0607FFFFFFFFFFFFFFFFFFBB
:1058CA00FF05040302000000008C08BA08290855E5
:1058DA00082C08330846089205000000009925752F
:1058EA002849257A251B25352527250D0A006E61AD
:0A58FA006E00696E66006F766600AE
:00000001FF
